{
  "_format": "hh-sol-artifact-1",
  "contractName": "ScrollBadgePowerRank",
  "sourceName": "src/badge/examples/ScrollBadgePowerRank.sol",
  "abi": [
    {
      "inputs": [
        {
          "internalType": "address",
          "name": "resolver_",
          "type": "address"
        }
      ],
      "stateMutability": "nonpayable",
      "type": "constructor"
    },
    {
      "inputs": [
        {
          "internalType": "bytes32",
          "name": "uid",
          "type": "bytes32"
        }
      ],
      "name": "AttestationBadgeMismatch",
      "type": "error"
    },
    {
      "inputs": [],
      "name": "CannotUpgrade",
      "type": "error"
    },
    {
      "inputs": [],
      "name": "ExpirationDisabled",
      "type": "error"
    },
    {
      "inputs": [],
      "name": "MissingPayload",
      "type": "error"
    },
    {
      "inputs": [],
      "name": "RevocationDisabled",
      "type": "error"
    },
    {
      "inputs": [],
      "name": "SingletonBadge",
      "type": "error"
    },
    {
      "inputs": [],
      "name": "Unauthorized",
      "type": "error"
    },
    {
      "anonymous": false,
      "inputs": [
        {
          "indexed": true,
          "internalType": "bytes32",
          "name": "uid",
          "type": "bytes32"
        }
      ],
      "name": "IssueBadge",
      "type": "event"
    },
    {
      "anonymous": false,
      "inputs": [
        {
          "indexed": true,
          "internalType": "address",
          "name": "previousOwner",
          "type": "address"
        },
        {
          "indexed": true,
          "internalType": "address",
          "name": "newOwner",
          "type": "address"
        }
      ],
      "name": "OwnershipTransferred",
      "type": "event"
    },
    {
      "anonymous": false,
      "inputs": [
        {
          "indexed": true,
          "internalType": "bytes32",
          "name": "uid",
          "type": "bytes32"
        }
      ],
      "name": "RevokeBadge",
      "type": "event"
    },
    {
      "anonymous": false,
      "inputs": [
        {
          "indexed": false,
          "internalType": "uint256",
          "name": "oldRank",
          "type": "uint256"
        },
        {
          "indexed": false,
          "internalType": "uint256",
          "name": "newRank",
          "type": "uint256"
        }
      ],
      "name": "Upgrade",
      "type": "event"
    },
    {
      "inputs": [
        {
          "internalType": "bytes32",
          "name": "",
          "type": "bytes32"
        }
      ],
      "name": "badgeRank",
      "outputs": [
        {
          "internalType": "uint256",
          "name": "",
          "type": "uint256"
        }
      ],
      "stateMutability": "view",
      "type": "function"
    },
    {
      "inputs": [
        {
          "internalType": "bytes32",
          "name": "uid",
          "type": "bytes32"
        }
      ],
      "name": "badgeTokenURI",
      "outputs": [
        {
          "internalType": "string",
          "name": "",
          "type": "string"
        }
      ],
      "stateMutability": "view",
      "type": "function"
    },
    {
      "inputs": [
        {
          "internalType": "bytes32",
          "name": "uid",
          "type": "bytes32"
        }
      ],
      "name": "getAndValidateBadge",
      "outputs": [
        {
          "components": [
            {
              "internalType": "bytes32",
              "name": "uid",
              "type": "bytes32"
            },
            {
              "internalType": "bytes32",
              "name": "schema",
              "type": "bytes32"
            },
            {
              "internalType": "uint64",
              "name": "time",
              "type": "uint64"
            },
            {
              "internalType": "uint64",
              "name": "expirationTime",
              "type": "uint64"
            },
            {
              "internalType": "uint64",
              "name": "revocationTime",
              "type": "uint64"
            },
            {
              "internalType": "bytes32",
              "name": "refUID",
              "type": "bytes32"
            },
            {
              "internalType": "address",
              "name": "recipient",
              "type": "address"
            },
            {
              "internalType": "address",
              "name": "attester",
              "type": "address"
            },
            {
              "internalType": "bool",
              "name": "revocable",
              "type": "bool"
            },
            {
              "internalType": "bytes",
              "name": "data",
              "type": "bytes"
            }
          ],
          "internalType": "struct Attestation",
          "name": "",
          "type": "tuple"
        }
      ],
      "stateMutability": "view",
      "type": "function"
    },
    {
      "inputs": [
        {
          "components": [
            {
              "internalType": "bytes32",
              "name": "uid",
              "type": "bytes32"
            },
            {
              "internalType": "bytes32",
              "name": "schema",
              "type": "bytes32"
            },
            {
              "internalType": "uint64",
              "name": "time",
              "type": "uint64"
            },
            {
              "internalType": "uint64",
              "name": "expirationTime",
              "type": "uint64"
            },
            {
              "internalType": "uint64",
              "name": "revocationTime",
              "type": "uint64"
            },
            {
              "internalType": "bytes32",
              "name": "refUID",
              "type": "bytes32"
            },
            {
              "internalType": "address",
              "name": "recipient",
              "type": "address"
            },
            {
              "internalType": "address",
              "name": "attester",
              "type": "address"
            },
            {
              "internalType": "bool",
              "name": "revocable",
              "type": "bool"
            },
            {
              "internalType": "bytes",
              "name": "data",
              "type": "bytes"
            }
          ],
          "internalType": "struct Attestation",
          "name": "badge",
          "type": "tuple"
        }
      ],
      "name": "getPayload",
      "outputs": [
        {
          "internalType": "bytes",
          "name": "",
          "type": "bytes"
        }
      ],
      "stateMutability": "pure",
      "type": "function"
    },
    {
      "inputs": [],
      "name": "getSchema",
      "outputs": [
        {
          "internalType": "string",
          "name": "",
          "type": "string"
        }
      ],
      "stateMutability": "pure",
      "type": "function"
    },
    {
      "inputs": [
        {
          "internalType": "address",
          "name": "user",
          "type": "address"
        }
      ],
      "name": "hasBadge",
      "outputs": [
        {
          "internalType": "bool",
          "name": "",
          "type": "bool"
        }
      ],
      "stateMutability": "view",
      "type": "function"
    },
    {
      "inputs": [
        {
          "internalType": "address",
          "name": "",
          "type": "address"
        }
      ],
      "name": "isAttester",
      "outputs": [
        {
          "internalType": "bool",
          "name": "",
          "type": "bool"
        }
      ],
      "stateMutability": "view",
      "type": "function"
    },
    {
      "inputs": [
        {
          "components": [
            {
              "internalType": "bytes32",
              "name": "uid",
              "type": "bytes32"
            },
            {
              "internalType": "bytes32",
              "name": "schema",
              "type": "bytes32"
            },
            {
              "internalType": "uint64",
              "name": "time",
              "type": "uint64"
            },
            {
              "internalType": "uint64",
              "name": "expirationTime",
              "type": "uint64"
            },
            {
              "internalType": "uint64",
              "name": "revocationTime",
              "type": "uint64"
            },
            {
              "internalType": "bytes32",
              "name": "refUID",
              "type": "bytes32"
            },
            {
              "internalType": "address",
              "name": "recipient",
              "type": "address"
            },
            {
              "internalType": "address",
              "name": "attester",
              "type": "address"
            },
            {
              "internalType": "bool",
              "name": "revocable",
              "type": "bool"
            },
            {
              "internalType": "bytes",
              "name": "data",
              "type": "bytes"
            }
          ],
          "internalType": "struct Attestation",
          "name": "attestation",
          "type": "tuple"
        }
      ],
      "name": "issueBadge",
      "outputs": [
        {
          "internalType": "bool",
          "name": "",
          "type": "bool"
        }
      ],
      "stateMutability": "nonpayable",
      "type": "function"
    },
    {
      "inputs": [],
      "name": "owner",
      "outputs": [
        {
          "internalType": "address",
          "name": "",
          "type": "address"
        }
      ],
      "stateMutability": "view",
      "type": "function"
    },
    {
      "inputs": [],
      "name": "renounceOwnership",
      "outputs": [],
      "stateMutability": "nonpayable",
      "type": "function"
    },
    {
      "inputs": [],
      "name": "resolver",
      "outputs": [
        {
          "internalType": "address",
          "name": "",
          "type": "address"
        }
      ],
      "stateMutability": "view",
      "type": "function"
    },
    {
      "inputs": [
        {
          "components": [
            {
              "internalType": "bytes32",
              "name": "uid",
              "type": "bytes32"
            },
            {
              "internalType": "bytes32",
              "name": "schema",
              "type": "bytes32"
            },
            {
              "internalType": "uint64",
              "name": "time",
              "type": "uint64"
            },
            {
              "internalType": "uint64",
              "name": "expirationTime",
              "type": "uint64"
            },
            {
              "internalType": "uint64",
              "name": "revocationTime",
              "type": "uint64"
            },
            {
              "internalType": "bytes32",
              "name": "refUID",
              "type": "bytes32"
            },
            {
              "internalType": "address",
              "name": "recipient",
              "type": "address"
            },
            {
              "internalType": "address",
              "name": "attester",
              "type": "address"
            },
            {
              "internalType": "bool",
              "name": "revocable",
              "type": "bool"
            },
            {
              "internalType": "bytes",
              "name": "data",
              "type": "bytes"
            }
          ],
          "internalType": "struct Attestation",
          "name": "attestation",
          "type": "tuple"
        }
      ],
      "name": "revokeBadge",
      "outputs": [
        {
          "internalType": "bool",
          "name": "",
          "type": "bool"
        }
      ],
      "stateMutability": "nonpayable",
      "type": "function"
    },
    {
      "inputs": [
        {
          "internalType": "uint256",
          "name": "timestamp",
          "type": "uint256"
        }
      ],
      "name": "timestampToRank",
      "outputs": [
        {
          "internalType": "uint256",
          "name": "",
          "type": "uint256"
        }
      ],
      "stateMutability": "view",
      "type": "function"
    },
    {
      "inputs": [
        {
          "internalType": "address",
          "name": "attester",
          "type": "address"
        },
        {
          "internalType": "bool",
          "name": "enable",
          "type": "bool"
        }
      ],
      "name": "toggleAttester",
      "outputs": [],
      "stateMutability": "nonpayable",
      "type": "function"
    },
    {
      "inputs": [
        {
          "internalType": "address",
          "name": "newOwner",
          "type": "address"
        }
      ],
      "name": "transferOwnership",
      "outputs": [],
      "stateMutability": "nonpayable",
      "type": "function"
    },
    {
      "inputs": [
        {
          "internalType": "bytes32",
          "name": "uid",
          "type": "bytes32"
        }
      ],
      "name": "upgrade",
      "outputs": [],
      "stateMutability": "nonpayable",
      "type": "function"
    }
  ],
  "bytecode": "0x60a060405234801561001057600080fd5b5060405161178238038061178283398101604081905261002f9161009b565b806100393361004b565b6001600160a01b0316608052506100cb565b600080546001600160a01b038381166001600160a01b0319831681178455604051919092169283917f8be0079c531659141344cd1fd0a4f28419497f9722a3daafe3b4186f6b6457e09190a35050565b6000602082840312156100ad57600080fd5b81516001600160a01b03811681146100c457600080fd5b9392505050565b6080516116876100fb6000396000818161010a015281816104410152818161057f015261073401526116876000f3fe608060405234801561001057600080fd5b50600436106101005760003560e01c80638c6f12f011610097578063d753a63d11610066578063d753a63d14610295578063df038773146102a8578063f15b3bad146102c8578063f2fde38b146102db57600080fd5b80638c6f12f01461022e5780638da5cb5b1461024e578063b6ebe5391461025f578063bc444e131461028257600080fd5b80635e50864f116100d35780635e50864f1461019f5780636b122fe0146101da578063715018a6146102135780638298b0301461021b57600080fd5b806304f3bcec1461010557806307bd59fb146101495780630ee489481461016a578063248305631461017f575b600080fd5b61012c7f000000000000000000000000000000000000000000000000000000000000000081565b6040516001600160a01b0390911681526020015b60405180910390f35b61015c610157366004610e42565b6102ee565b604051908152602001610140565b61017d610178366004610e99565b610319565b005b61019261018d366004610e42565b61034c565b6040516101409190610f22565b6101ca6101ad366004610f3c565b6001600160a01b0316600090815260016020526040902054151590565b6040519015158152602001610140565b60408051808201909152601881527f75696e74323536206669727374547854696d657374616d7000000000000000006020820152610192565b61017d610420565b6101ca610229366004610f59565b610434565b61024161023c366004610e42565b610510565b6040516101409190610f94565b6000546001600160a01b031661012c565b6101ca61026d366004610f3c565b60026020526000908152604090205460ff1681565b61017d610290366004610e42565b61063b565b6101ca6102a3366004610f59565b610727565b61015c6102b6366004610e42565b60036020526000908152604090205481565b6101926102d636600461123b565b610803565b61017d6102e9366004610f3c565b61081d565b600062278d006102fe8342611285565b6103089190611298565b6103139060016112ba565b92915050565b610321610896565b6001600160a01b03919091166000908152600260205260409020805460ff1916911515919091179055565b600081815260036020526040812054606091610367826108f0565b60405160200161037791906112cd565b60408051601f198184030181528282018252601783527f5363726f6c6c20506f7765722052616e6b204261646765000000000000000000602084810191909152825180820184526000808252935192955092916103f2916103de918791879187910161130a565b604051602081830303815290604052610982565b90508060405160200161040591906113aa565b60405160208183030381529060405295505050505050919050565b610428610896565b6104326000610ad4565b565b6000336001600160a01b037f0000000000000000000000000000000000000000000000000000000000000000161461047e576040516282b42960e81b815260040160405180910390fd5b61048782610b24565b61049357506000919050565b60018060006104a860e0860160c08701610f3c565b6001600160a01b03166001600160a01b0316815260200190815260200160002060008282546104d79190611285565b90915550506040518235907f504e4727721de18c6bf7f66448a6ff6da00aa4b1f00b6034e71723ae7ce6373a90600090a2506001919050565b604080516101408101825260008082526020820181905281830181905260608083018290526080830182905260a0830182905260c0830182905260e08301829052610100830182905261012083015291516308c6f12f60e41b8152600481018490529091906001600160a01b037f00000000000000000000000000000000000000000000000000000000000000001690638c6f12f090602401600060405180830381865afa1580156105c6573d6000803e3d6000fd5b505050506040513d6000823e601f3d908101601f191682016040526105ee9190810190611455565b90506000610600826101200151610b2f565b5090506001600160a01b03811630146106345760405163b923d26160e01b8152600481018590526024015b60405180910390fd5b5092915050565b600061064682610510565b90508060c001516001600160a01b0316336001600160a01b03161461067d576040516282b42960e81b815260040160405180910390fd5b600061068882610803565b9050600061069582610b50565b905060006106a2826102ee565b6000868152600360205260409020549091508082116106d45760405163093075b560e21b815260040160405180910390fd5b60008681526003602090815260409182902084905581518381529081018490527feb0ebb51128928d7b1a6419c52128a9319bfcb55f0adafea75afbf75f9f2f3e9910160405180910390a1505050505050565b6000336001600160a01b037f00000000000000000000000000000000000000000000000000000000000000001614610771576040516282b42960e81b815260040160405180910390fd5b61077a82610b66565b61078657506000919050565b600180600061079b60e0860160c08701610f3c565b6001600160a01b03166001600160a01b0316815260200190815260200160002060008282546107ca91906112ba565b90915550506040518235907fa0785ec0b9bf31a5475d33c716fb9f500f0ea0bb9e4bc10ec39d5db763c1da1590600090a2506001919050565b60606000610815836101200151610b2f565b949350505050565b610825610896565b6001600160a01b03811661088a5760405162461bcd60e51b815260206004820152602660248201527f4f776e61626c653a206e6577206f776e657220697320746865207a65726f206160448201526564647265737360d01b606482015260840161062b565b61089381610ad4565b50565b6000546001600160a01b031633146104325760405162461bcd60e51b815260206004820181905260248201527f4f776e61626c653a2063616c6c6572206973206e6f7420746865206f776e6572604482015260640161062b565b606060006108fd83610bc0565b60010190506000816001600160401b0381111561091c5761091c611060565b6040519080825280601f01601f191660200182016040528015610946576020820181803683370190505b5090508181016020015b600019016f181899199a1a9b1b9c1cb0b131b232b360811b600a86061a8153600a850494508461095057509392505050565b606081516000036109a157505060408051602081019091526000815290565b600060405180606001604052806040815260200161161260409139905060006003845160026109d091906112ba565b6109da9190611298565b6109e590600461154b565b6001600160401b038111156109fc576109fc611060565b6040519080825280601f01601f191660200182016040528015610a26576020820181803683370190505b509050600182016020820185865187015b80821015610a92576003820191508151603f8160121c168501518453600184019350603f81600c1c168501518453600184019350603f8160061c168501518453600184019350603f8116850151845350600183019250610a37565b5050600386510660018114610aae5760028114610ac157610ac9565b603d6001830353603d6002830353610ac9565b603d60018303535b509195945050505050565b600080546001600160a01b038381166001600160a01b0319831681178455604051919092169283917f8be0079c531659141344cd1fd0a4f28419497f9722a3daafe3b4186f6b6457e09190a35050565b600061031382610c98565b6000606082806020019051810190610b479190611562565b91509150915091565b60008180602001905181019061031391906115b2565b6000610b7182610ca3565b610b7d57506000919050565b6000610b8b6102d6846115cb565b90506000610b9882610b50565b9050610ba3816102ee565b933560009081526003602052604090209390935550600192915050565b60008072184f03e93ff9f4daa797ed6e38ed64bf6a1f0160401b8310610bff5772184f03e93ff9f4daa797ed6e38ed64bf6a1f0160401b830492506040015b6d04ee2d6d415b85acef81000000008310610c2b576d04ee2d6d415b85acef8100000000830492506020015b662386f26fc100008310610c4957662386f26fc10000830492506010015b6305f5e1008310610c61576305f5e100830492506008015b6127108310610c7557612710830492506004015b60648310610c87576064830492506002015b600a83106103135760010192915050565b600061031382610cf3565b6000610cae82610cfe565b610cba57506000919050565b610ccd6101ad60e0840160c08501610f3c565b15610ceb57604051630c59311960e11b815260040160405180910390fd5b506001919050565b600061031382610d45565b6000610d0982610d50565b610d1557506000919050565b610d27610120830161010084016115d7565b15610ceb576040516313ff31ad60e11b815260040160405180910390fd5b600061031382610da0565b6000610d5b82610df0565b610d6757506000919050565b6000610d7960808401606085016115f4565b6001600160401b031614610ceb57604051637bfd865360e11b815260040160405180910390fd5b600060026000610db7610100850160e08601610f3c565b6001600160a01b0316815260208101919091526040016000205460ff16610ceb576040516282b42960e81b815260040160405180910390fd5b6000610dfb82610da0565b610e0757506000919050565b6000610e156102d6846115cb565b90508051600003610e3957604051636de4b34760e01b815260040160405180910390fd5b50600192915050565b600060208284031215610e5457600080fd5b5035919050565b6001600160a01b038116811461089357600080fd5b8035610e7b81610e5b565b919050565b801515811461089357600080fd5b8035610e7b81610e80565b60008060408385031215610eac57600080fd5b8235610eb781610e5b565b91506020830135610ec781610e80565b809150509250929050565b60005b83811015610eed578181015183820152602001610ed5565b50506000910152565b60008151808452610f0e816020860160208601610ed2565b601f01601f19169290920160200192915050565b602081526000610f356020830184610ef6565b9392505050565b600060208284031215610f4e57600080fd5b8135610f3581610e5b565b600060208284031215610f6b57600080fd5b81356001600160401b03811115610f8157600080fd5b82016101408185031215610f3557600080fd5b60208152815160208201526020820151604082015260006040830151610fc560608401826001600160401b03169052565b5060608301516001600160401b03811660808401525060808301516001600160401b03811660a08401525060a083015160c083015260c083015161101460e08401826001600160a01b03169052565b5060e0830151610100611031818501836001600160a01b03169052565b84015190506101206110468482018315159052565b840151610140848101529050610815610160840182610ef6565b634e487b7160e01b600052604160045260246000fd5b60405161014081016001600160401b038111828210171561109957611099611060565b60405290565b604051601f8201601f191681016001600160401b03811182821017156110c7576110c7611060565b604052919050565b6001600160401b038116811461089357600080fd5b8035610e7b816110cf565b60006001600160401b0382111561110857611108611060565b50601f01601f191660200190565b600082601f83011261112757600080fd5b813561113a611135826110ef565b61109f565b81815284602083860101111561114f57600080fd5b816020850160208301376000918101602001919091529392505050565b6000610140828403121561117f57600080fd5b611187611076565b905081358152602082013560208201526111a3604083016110e4565b60408201526111b4606083016110e4565b60608201526111c5608083016110e4565b608082015260a082013560a08201526111e060c08301610e70565b60c08201526111f160e08301610e70565b60e0820152610100611204818401610e8e565b90820152610120828101356001600160401b0381111561122357600080fd5b61122f85828601611116565b82840152505092915050565b60006020828403121561124d57600080fd5b81356001600160401b0381111561126357600080fd5b6108158482850161116c565b634e487b7160e01b600052601160045260246000fd5b818103818111156103135761031361126f565b6000826112b557634e487b7160e01b600052601260045260246000fd5b500490565b808201808211156103135761031361126f565b6040815260136040820152725363726f6c6c20506f7765722052616e6b202360681b6060820152608060208201526000610f356080830184610ef6565b683d913730b6b2911d1160b91b8152835160009061132f816009850160208901610ed2565b71111610113232b9b1b934b83a34b7b7111d1160711b600991840191820152845161136181601b840160208901610ed2565b6b16101134b6b0b3b2911d101160a11b601b9290910191820152835161138e816027840160208801610ed2565b61227d60f01b6027929091019182015260290195945050505050565b7f646174613a6170706c69636174696f6e2f6a736f6e3b6261736536342c0000008152600082516113e281601d850160208701610ed2565b91909101601d0192915050565b8051610e7b816110cf565b8051610e7b81610e5b565b8051610e7b81610e80565b600082601f83011261142157600080fd5b815161142f611135826110ef565b81815284602083860101111561144457600080fd5b610815826020830160208701610ed2565b60006020828403121561146757600080fd5b81516001600160401b038082111561147e57600080fd5b90830190610140828603121561149357600080fd5b61149b611076565b82518152602083015160208201526114b5604084016113ef565b60408201526114c6606084016113ef565b60608201526114d7608084016113ef565b608082015260a083015160a08201526114f260c084016113fa565b60c082015261150360e084016113fa565b60e0820152610100611516818501611405565b90820152610120838101518381111561152e57600080fd5b61153a88828701611410565b918301919091525095945050505050565b80820281158282048414176103135761031361126f565b6000806040838503121561157557600080fd5b825161158081610e5b565b60208401519092506001600160401b0381111561159c57600080fd5b6115a885828601611410565b9150509250929050565b6000602082840312156115c457600080fd5b5051919050565b6000610313368361116c565b6000602082840312156115e957600080fd5b8135610f3581610e80565b60006020828403121561160657600080fd5b8135610f35816110cf56fe4142434445464748494a4b4c4d4e4f505152535455565758595a6162636465666768696a6b6c6d6e6f707172737475767778797a303132333435363738392b2fa2646970667358221220a4eafb7413e4f7775bcce4b9ed33d22d776e65f9a7066c953cd085c68721fdbd64736f6c63430008130033",
  "linkReferences": {},
  "deployedLinkReferences": {}
}