{
  "_format": "hh-sol-artifact-1",
  "contractName": "ScrollBadgeWhale",
  "sourceName": "src/badge/examples/ScrollBadgeWhale.sol",
  "abi": [
    {
      "inputs": [
        {
          "internalType": "address",
          "name": "resolver_",
          "type": "address"
        }
      ],
      "stateMutability": "nonpayable",
      "type": "constructor"
    },
    {
      "inputs": [
        {
          "internalType": "bytes32",
          "name": "uid",
          "type": "bytes32"
        }
      ],
      "name": "AttestationBadgeMismatch",
      "type": "error"
    },
    {
      "inputs": [],
      "name": "SingletonBadge",
      "type": "error"
    },
    {
      "inputs": [],
      "name": "Unauthorized",
      "type": "error"
    },
    {
      "anonymous": false,
      "inputs": [
        {
          "indexed": true,
          "internalType": "bytes32",
          "name": "uid",
          "type": "bytes32"
        }
      ],
      "name": "IssueBadge",
      "type": "event"
    },
    {
      "anonymous": false,
      "inputs": [
        {
          "indexed": true,
          "internalType": "bytes32",
          "name": "uid",
          "type": "bytes32"
        }
      ],
      "name": "RevokeBadge",
      "type": "event"
    },
    {
      "inputs": [
        {
          "internalType": "bytes32",
          "name": "",
          "type": "bytes32"
        }
      ],
      "name": "badgeTokenURI",
      "outputs": [
        {
          "internalType": "string",
          "name": "",
          "type": "string"
        }
      ],
      "stateMutability": "pure",
      "type": "function"
    },
    {
      "inputs": [
        {
          "internalType": "bytes32",
          "name": "uid",
          "type": "bytes32"
        }
      ],
      "name": "getAndValidateBadge",
      "outputs": [
        {
          "components": [
            {
              "internalType": "bytes32",
              "name": "uid",
              "type": "bytes32"
            },
            {
              "internalType": "bytes32",
              "name": "schema",
              "type": "bytes32"
            },
            {
              "internalType": "uint64",
              "name": "time",
              "type": "uint64"
            },
            {
              "internalType": "uint64",
              "name": "expirationTime",
              "type": "uint64"
            },
            {
              "internalType": "uint64",
              "name": "revocationTime",
              "type": "uint64"
            },
            {
              "internalType": "bytes32",
              "name": "refUID",
              "type": "bytes32"
            },
            {
              "internalType": "address",
              "name": "recipient",
              "type": "address"
            },
            {
              "internalType": "address",
              "name": "attester",
              "type": "address"
            },
            {
              "internalType": "bool",
              "name": "revocable",
              "type": "bool"
            },
            {
              "internalType": "bytes",
              "name": "data",
              "type": "bytes"
            }
          ],
          "internalType": "struct Attestation",
          "name": "",
          "type": "tuple"
        }
      ],
      "stateMutability": "view",
      "type": "function"
    },
    {
      "inputs": [
        {
          "internalType": "address",
          "name": "user",
          "type": "address"
        }
      ],
      "name": "hasBadge",
      "outputs": [
        {
          "internalType": "bool",
          "name": "",
          "type": "bool"
        }
      ],
      "stateMutability": "view",
      "type": "function"
    },
    {
      "inputs": [
        {
          "internalType": "address",
          "name": "recipient",
          "type": "address"
        }
      ],
      "name": "isEligible",
      "outputs": [
        {
          "internalType": "bool",
          "name": "",
          "type": "bool"
        }
      ],
      "stateMutability": "view",
      "type": "function"
    },
    {
      "inputs": [
        {
          "components": [
            {
              "internalType": "bytes32",
              "name": "uid",
              "type": "bytes32"
            },
            {
              "internalType": "bytes32",
              "name": "schema",
              "type": "bytes32"
            },
            {
              "internalType": "uint64",
              "name": "time",
              "type": "uint64"
            },
            {
              "internalType": "uint64",
              "name": "expirationTime",
              "type": "uint64"
            },
            {
              "internalType": "uint64",
              "name": "revocationTime",
              "type": "uint64"
            },
            {
              "internalType": "bytes32",
              "name": "refUID",
              "type": "bytes32"
            },
            {
              "internalType": "address",
              "name": "recipient",
              "type": "address"
            },
            {
              "internalType": "address",
              "name": "attester",
              "type": "address"
            },
            {
              "internalType": "bool",
              "name": "revocable",
              "type": "bool"
            },
            {
              "internalType": "bytes",
              "name": "data",
              "type": "bytes"
            }
          ],
          "internalType": "struct Attestation",
          "name": "attestation",
          "type": "tuple"
        }
      ],
      "name": "issueBadge",
      "outputs": [
        {
          "internalType": "bool",
          "name": "",
          "type": "bool"
        }
      ],
      "stateMutability": "nonpayable",
      "type": "function"
    },
    {
      "inputs": [],
      "name": "resolver",
      "outputs": [
        {
          "internalType": "address",
          "name": "",
          "type": "address"
        }
      ],
      "stateMutability": "view",
      "type": "function"
    },
    {
      "inputs": [
        {
          "components": [
            {
              "internalType": "bytes32",
              "name": "uid",
              "type": "bytes32"
            },
            {
              "internalType": "bytes32",
              "name": "schema",
              "type": "bytes32"
            },
            {
              "internalType": "uint64",
              "name": "time",
              "type": "uint64"
            },
            {
              "internalType": "uint64",
              "name": "expirationTime",
              "type": "uint64"
            },
            {
              "internalType": "uint64",
              "name": "revocationTime",
              "type": "uint64"
            },
            {
              "internalType": "bytes32",
              "name": "refUID",
              "type": "bytes32"
            },
            {
              "internalType": "address",
              "name": "recipient",
              "type": "address"
            },
            {
              "internalType": "address",
              "name": "attester",
              "type": "address"
            },
            {
              "internalType": "bool",
              "name": "revocable",
              "type": "bool"
            },
            {
              "internalType": "bytes",
              "name": "data",
              "type": "bytes"
            }
          ],
          "internalType": "struct Attestation",
          "name": "attestation",
          "type": "tuple"
        }
      ],
      "name": "revokeBadge",
      "outputs": [
        {
          "internalType": "bool",
          "name": "",
          "type": "bool"
        }
      ],
      "stateMutability": "nonpayable",
      "type": "function"
    }
  ],
  "bytecode": "0x60a060405234801561001057600080fd5b50604051610b2a380380610b2a83398101604081905261002f91610040565b6001600160a01b0316608052610070565b60006020828403121561005257600080fd5b81516001600160a01b038116811461006957600080fd5b9392505050565b608051610a8b61009f600039600081816087015281816101d40152818161031201526103da0152610a8b6000f3fe608060405234801561001057600080fd5b506004361061007d5760003560e01c806366e305fd1161005b57806366e305fd1461012f5780638298b030146101425780638c6f12f014610155578063d753a63d1461017557600080fd5b806304f3bcec1461008257806324830563146100c65780635e50864f146100f4575b600080fd5b6100a97f000000000000000000000000000000000000000000000000000000000000000081565b6040516001600160a01b0390911681526020015b60405180910390f35b6100e76100d4366004610606565b5060408051602081019091526000815290565b6040516100bd919061066f565b61011f6101023660046106a1565b6001600160a01b0316600090815260208190526040902054151590565b60405190151581526020016100bd565b61011f61013d3660046106a1565b610188565b61011f6101503660046106be565b6101c7565b610168610163366004610606565b6102a3565b6040516100bd91906106fa565b61011f6101833660046106be565b6103cd565b6001600160a01b0381166000908152602081905260408120541580156101c15750683635c9adc5dea00000826001600160a01b03163110155b92915050565b6000336001600160a01b037f00000000000000000000000000000000000000000000000000000000000000001614610211576040516282b42960e81b815260040160405180910390fd5b61021a826104a9565b61022657506000919050565b600160008061023b60e0860160c087016106a1565b6001600160a01b03166001600160a01b03168152602001908152602001600020600082825461026a91906107e7565b90915550506040518235907f504e4727721de18c6bf7f66448a6ff6da00aa4b1f00b6034e71723ae7ce6373a90600090a2506001919050565b604080516101408101825260008082526020820181905281830181905260608083018290526080830182905260a0830182905260c0830182905260e08301829052610100830182905261012083015291516308c6f12f60e41b8152600481018490529091906001600160a01b037f00000000000000000000000000000000000000000000000000000000000000001690638c6f12f090602401600060405180830381865afa158015610359573d6000803e3d6000fd5b505050506040513d6000823e601f3d908101601f1916820160405261038191908101906108fa565b905060006103938261012001516104c8565b5090506001600160a01b03811630146103c65760405163b923d26160e01b81526004810185905260240160405180910390fd5b5092915050565b6000336001600160a01b037f00000000000000000000000000000000000000000000000000000000000000001614610417576040516282b42960e81b815260040160405180910390fd5b610420826104e9565b61042c57506000919050565b600160008061044160e0860160c087016106a1565b6001600160a01b03166001600160a01b03168152602001908152602001600020600082825461047091906109f1565b90915550506040518235907fa0785ec0b9bf31a5475d33c716fb9f500f0ea0bb9e4bc10ec39d5db763c1da1590600090a2506001919050565b60006104b482610542565b6104c057506000919050565b506001919050565b60006060828060200190518101906104e09190610a04565b91509150915091565b60006104f48261054d565b61050057506000919050565b683635c9adc5dea0000061051a60e0840160c085016106a1565b6001600160a01b03163110156104c0576040516282b42960e81b815260040160405180910390fd5b60006101c182610558565b60006101c182610563565b60006101c1826105ab565b600061056e826105b4565b61057a57506000919050565b61058d61010260e0840160c085016106a1565b156104c057604051630c59311960e11b815260040160405180910390fd5b600060016101c1565b60006105c7610100830160e084016106a1565b6001600160a01b03166105e060e0840160c085016106a1565b6001600160a01b0316146104c0576040516282b42960e81b815260040160405180910390fd5b60006020828403121561061857600080fd5b5035919050565b60005b8381101561063a578181015183820152602001610622565b50506000910152565b6000815180845261065b81602086016020860161061f565b601f01601f19169290920160200192915050565b6020815260006106826020830184610643565b9392505050565b6001600160a01b038116811461069e57600080fd5b50565b6000602082840312156106b357600080fd5b813561068281610689565b6000602082840312156106d057600080fd5b813567ffffffffffffffff8111156106e757600080fd5b8201610140818503121561068257600080fd5b6020815281516020820152602082015160408201526000604083015161072c606084018267ffffffffffffffff169052565b50606083015167ffffffffffffffff8116608084015250608083015167ffffffffffffffff811660a08401525060a083015160c083015260c083015161077d60e08401826001600160a01b03169052565b5060e083015161010061079a818501836001600160a01b03169052565b84015190506101206107af8482018315159052565b8401516101408481015290506107c9610160840182610643565b949350505050565b634e487b7160e01b600052601160045260246000fd5b818103818111156101c1576101c16107d1565b634e487b7160e01b600052604160045260246000fd5b604051610140810167ffffffffffffffff81118282101715610834576108346107fa565b60405290565b805167ffffffffffffffff8116811461085257600080fd5b919050565b805161085281610689565b8051801515811461085257600080fd5b600082601f83011261088357600080fd5b815167ffffffffffffffff8082111561089e5761089e6107fa565b604051601f8301601f19908116603f011681019082821181831017156108c6576108c66107fa565b816040528381528660208588010111156108df57600080fd5b6108f084602083016020890161061f565b9695505050505050565b60006020828403121561090c57600080fd5b815167ffffffffffffffff8082111561092457600080fd5b90830190610140828603121561093957600080fd5b610941610810565b825181526020830151602082015261095b6040840161083a565b604082015261096c6060840161083a565b606082015261097d6080840161083a565b608082015260a083015160a082015261099860c08401610857565b60c08201526109a960e08401610857565b60e08201526101006109bc818501610862565b9082015261012083810151838111156109d457600080fd5b6109e088828701610872565b918301919091525095945050505050565b808201808211156101c1576101c16107d1565b60008060408385031215610a1757600080fd5b8251610a2281610689565b602084015190925067ffffffffffffffff811115610a3f57600080fd5b610a4b85828601610872565b915050925092905056fea26469706673582212202ec476f9e1eda2d115e90ed79ce61ab99c77b80ff8545d5fb051bce0abd4544364736f6c63430008130033",
  "linkReferences": {},
  "deployedLinkReferences": {}
}