{
  "_format": "hh-sol-artifact-1",
  "contractName": "ScrollBadgeTokenOwner",
  "sourceName": "src/badge/examples/ScrollBadgeTokenOwner.sol",
  "abi": [
    {
      "inputs": [
        {
          "internalType": "address",
          "name": "resolver_",
          "type": "address"
        },
        {
          "internalType": "address[]",
          "name": "tokens_",
          "type": "address[]"
        }
      ],
      "stateMutability": "nonpayable",
      "type": "constructor"
    },
    {
      "inputs": [
        {
          "internalType": "bytes32",
          "name": "uid",
          "type": "bytes32"
        }
      ],
      "name": "AttestationBadgeMismatch",
      "type": "error"
    },
    {
      "inputs": [],
      "name": "IncorrectBadgeOwner",
      "type": "error"
    },
    {
      "inputs": [],
      "name": "MissingPayload",
      "type": "error"
    },
    {
      "inputs": [],
      "name": "SingletonBadge",
      "type": "error"
    },
    {
      "inputs": [],
      "name": "Unauthorized",
      "type": "error"
    },
    {
      "anonymous": false,
      "inputs": [
        {
          "indexed": true,
          "internalType": "bytes32",
          "name": "uid",
          "type": "bytes32"
        }
      ],
      "name": "IssueBadge",
      "type": "event"
    },
    {
      "anonymous": false,
      "inputs": [
        {
          "indexed": true,
          "internalType": "bytes32",
          "name": "uid",
          "type": "bytes32"
        }
      ],
      "name": "RevokeBadge",
      "type": "event"
    },
    {
      "inputs": [
        {
          "internalType": "bytes32",
          "name": "uid",
          "type": "bytes32"
        }
      ],
      "name": "badgeTokenURI",
      "outputs": [
        {
          "internalType": "string",
          "name": "",
          "type": "string"
        }
      ],
      "stateMutability": "view",
      "type": "function"
    },
    {
      "inputs": [
        {
          "internalType": "bytes32",
          "name": "uid",
          "type": "bytes32"
        }
      ],
      "name": "getAndValidateBadge",
      "outputs": [
        {
          "components": [
            {
              "internalType": "bytes32",
              "name": "uid",
              "type": "bytes32"
            },
            {
              "internalType": "bytes32",
              "name": "schema",
              "type": "bytes32"
            },
            {
              "internalType": "uint64",
              "name": "time",
              "type": "uint64"
            },
            {
              "internalType": "uint64",
              "name": "expirationTime",
              "type": "uint64"
            },
            {
              "internalType": "uint64",
              "name": "revocationTime",
              "type": "uint64"
            },
            {
              "internalType": "bytes32",
              "name": "refUID",
              "type": "bytes32"
            },
            {
              "internalType": "address",
              "name": "recipient",
              "type": "address"
            },
            {
              "internalType": "address",
              "name": "attester",
              "type": "address"
            },
            {
              "internalType": "bool",
              "name": "revocable",
              "type": "bool"
            },
            {
              "internalType": "bytes",
              "name": "data",
              "type": "bytes"
            }
          ],
          "internalType": "struct Attestation",
          "name": "",
          "type": "tuple"
        }
      ],
      "stateMutability": "view",
      "type": "function"
    },
    {
      "inputs": [
        {
          "components": [
            {
              "internalType": "bytes32",
              "name": "uid",
              "type": "bytes32"
            },
            {
              "internalType": "bytes32",
              "name": "schema",
              "type": "bytes32"
            },
            {
              "internalType": "uint64",
              "name": "time",
              "type": "uint64"
            },
            {
              "internalType": "uint64",
              "name": "expirationTime",
              "type": "uint64"
            },
            {
              "internalType": "uint64",
              "name": "revocationTime",
              "type": "uint64"
            },
            {
              "internalType": "bytes32",
              "name": "refUID",
              "type": "bytes32"
            },
            {
              "internalType": "address",
              "name": "recipient",
              "type": "address"
            },
            {
              "internalType": "address",
              "name": "attester",
              "type": "address"
            },
            {
              "internalType": "bool",
              "name": "revocable",
              "type": "bool"
            },
            {
              "internalType": "bytes",
              "name": "data",
              "type": "bytes"
            }
          ],
          "internalType": "struct Attestation",
          "name": "badge",
          "type": "tuple"
        }
      ],
      "name": "getPayload",
      "outputs": [
        {
          "internalType": "bytes",
          "name": "",
          "type": "bytes"
        }
      ],
      "stateMutability": "pure",
      "type": "function"
    },
    {
      "inputs": [],
      "name": "getSchema",
      "outputs": [
        {
          "internalType": "string",
          "name": "",
          "type": "string"
        }
      ],
      "stateMutability": "pure",
      "type": "function"
    },
    {
      "inputs": [
        {
          "internalType": "address",
          "name": "user",
          "type": "address"
        }
      ],
      "name": "hasBadge",
      "outputs": [
        {
          "internalType": "bool",
          "name": "",
          "type": "bool"
        }
      ],
      "stateMutability": "view",
      "type": "function"
    },
    {
      "inputs": [
        {
          "internalType": "address",
          "name": "",
          "type": "address"
        }
      ],
      "name": "isTokenAllowed",
      "outputs": [
        {
          "internalType": "bool",
          "name": "",
          "type": "bool"
        }
      ],
      "stateMutability": "view",
      "type": "function"
    },
    {
      "inputs": [
        {
          "components": [
            {
              "internalType": "bytes32",
              "name": "uid",
              "type": "bytes32"
            },
            {
              "internalType": "bytes32",
              "name": "schema",
              "type": "bytes32"
            },
            {
              "internalType": "uint64",
              "name": "time",
              "type": "uint64"
            },
            {
              "internalType": "uint64",
              "name": "expirationTime",
              "type": "uint64"
            },
            {
              "internalType": "uint64",
              "name": "revocationTime",
              "type": "uint64"
            },
            {
              "internalType": "bytes32",
              "name": "refUID",
              "type": "bytes32"
            },
            {
              "internalType": "address",
              "name": "recipient",
              "type": "address"
            },
            {
              "internalType": "address",
              "name": "attester",
              "type": "address"
            },
            {
              "internalType": "bool",
              "name": "revocable",
              "type": "bool"
            },
            {
              "internalType": "bytes",
              "name": "data",
              "type": "bytes"
            }
          ],
          "internalType": "struct Attestation",
          "name": "attestation",
          "type": "tuple"
        }
      ],
      "name": "issueBadge",
      "outputs": [
        {
          "internalType": "bool",
          "name": "",
          "type": "bool"
        }
      ],
      "stateMutability": "nonpayable",
      "type": "function"
    },
    {
      "inputs": [],
      "name": "resolver",
      "outputs": [
        {
          "internalType": "address",
          "name": "",
          "type": "address"
        }
      ],
      "stateMutability": "view",
      "type": "function"
    },
    {
      "inputs": [
        {
          "components": [
            {
              "internalType": "bytes32",
              "name": "uid",
              "type": "bytes32"
            },
            {
              "internalType": "bytes32",
              "name": "schema",
              "type": "bytes32"
            },
            {
              "internalType": "uint64",
              "name": "time",
              "type": "uint64"
            },
            {
              "internalType": "uint64",
              "name": "expirationTime",
              "type": "uint64"
            },
            {
              "internalType": "uint64",
              "name": "revocationTime",
              "type": "uint64"
            },
            {
              "internalType": "bytes32",
              "name": "refUID",
              "type": "bytes32"
            },
            {
              "internalType": "address",
              "name": "recipient",
              "type": "address"
            },
            {
              "internalType": "address",
              "name": "attester",
              "type": "address"
            },
            {
              "internalType": "bool",
              "name": "revocable",
              "type": "bool"
            },
            {
              "internalType": "bytes",
              "name": "data",
              "type": "bytes"
            }
          ],
          "internalType": "struct Attestation",
          "name": "attestation",
          "type": "tuple"
        }
      ],
      "name": "revokeBadge",
      "outputs": [
        {
          "internalType": "bool",
          "name": "",
          "type": "bool"
        }
      ],
      "stateMutability": "nonpayable",
      "type": "function"
    }
  ],
  "bytecode": "0x60a06040523480156200001157600080fd5b5060405162001119380380620011198339810160408190526200003491620000e9565b6001600160a01b03821660805260005b8151811015620000ad576001806000848481518110620000685762000068620001d2565b6020908102919091018101516001600160a01b03168252810191909152604001600020805460ff1916911515919091179055620000a581620001e8565b905062000044565b50505062000210565b80516001600160a01b0381168114620000ce57600080fd5b919050565b634e487b7160e01b600052604160045260246000fd5b60008060408385031215620000fd57600080fd5b6200010883620000b6565b602084810151919350906001600160401b03808211156200012857600080fd5b818601915086601f8301126200013d57600080fd5b815181811115620001525762000152620000d3565b8060051b604051601f19603f830116810181811085821117156200017a576200017a620000d3565b6040529182528482019250838101850191898311156200019957600080fd5b938501935b82851015620001c257620001b285620000b6565b845293850193928501926200019e565b8096505050505050509250929050565b634e487b7160e01b600052603260045260246000fd5b6000600182016200020957634e487b7160e01b600052601160045260246000fd5b5060010190565b608051610ed96200024060003960008181609d0152818161028c015281816103ca01526104920152610ed96000f3fe608060405234801561001057600080fd5b50600436106100935760003560e01c80638298b030116100665780638298b0301461013f5780638c6f12f014610152578063d753a63d14610172578063f15b3bad14610185578063f9eaee0d1461019857600080fd5b806304f3bcec1461009857806324830563146100dc5780635e50864f146100fc5780636b122fe014610137575b600080fd5b6100bf7f000000000000000000000000000000000000000000000000000000000000000081565b6040516001600160a01b0390911681526020015b60405180910390f35b6100ef6100ea3660046107f5565b6101bb565b6040516100d3919061085e565b61012761010a3660046108a0565b6001600160a01b0316600090815260208190526040902054151590565b60405190151581526020016100d3565b6100ef61025f565b61012761014d3660046108bd565b61027f565b6101656101603660046107f5565b61035b565b6040516100d391906108f8565b6101276101803660046108bd565b610485565b6100ef610193366004610bb8565b610561565b6101276101a63660046108a0565b60016020526000908152604090205460ff1681565b606060006101c88361035b565b905060006101d582610561565b90506000806101e38361057b565b60405163c87b56dd60e01b81526004810182905291935091506001600160a01b0383169063c87b56dd90602401600060405180830381865afa15801561022d573d6000803e3d6000fd5b505050506040513d6000823e601f3d908101601f191682016040526102559190810190610c1c565b9695505050505050565b6060604051806060016040528060258152602001610e7f60259139905090565b6000336001600160a01b037f000000000000000000000000000000000000000000000000000000000000000016146102c9576040516282b42960e81b815260040160405180910390fd5b6102d28261059b565b6102de57506000919050565b60016000806102f360e0860160c087016108a0565b6001600160a01b03166001600160a01b0316815260200190815260200160002060008282546103229190610c7a565b90915550506040518235907f504e4727721de18c6bf7f66448a6ff6da00aa4b1f00b6034e71723ae7ce6373a90600090a2506001919050565b604080516101408101825260008082526020820181905281830181905260608083018290526080830182905260a0830182905260c0830182905260e08301829052610100830182905261012083015291516308c6f12f60e41b8152600481018490529091906001600160a01b037f00000000000000000000000000000000000000000000000000000000000000001690638c6f12f090602401600060405180830381865afa158015610411573d6000803e3d6000fd5b505050506040513d6000823e601f3d908101601f191682016040526104399190810190610cce565b9050600061044b8261012001516105ac565b5090506001600160a01b038116301461047e5760405163b923d26160e01b81526004810185905260240160405180910390fd5b5092915050565b6000336001600160a01b037f000000000000000000000000000000000000000000000000000000000000000016146104cf576040516282b42960e81b815260040160405180910390fd5b6104d8826105c4565b6104e457506000919050565b60016000806104f960e0860160c087016108a0565b6001600160a01b03166001600160a01b0316815260200190815260200160002060008282546105289190610dc4565b90915550506040518235907fa0785ec0b9bf31a5475d33c716fb9f500f0ea0bb9e4bc10ec39d5db763c1da1590600090a2506001919050565b606060006105738361012001516105ac565b949350505050565b600080828060200190518101906105929190610dd7565b91509150915091565b60006105a6826106e3565b92915050565b60006060828060200190518101906105929190610e05565b60006105cf826106ee565b6105db57506000919050565b60006105e961019384610e55565b90506000806105f78361057b565b6001600160a01b038216600090815260016020526040902054919350915060ff16610634576040516282b42960e81b815260040160405180910390fd5b61064460e0860160c087016108a0565b6040516331a9108f60e11b8152600481018390526001600160a01b0391821691841690636352211e90602401602060405180830381865afa15801561068d573d6000803e3d6000fd5b505050506040513d601f19601f820116820180604052508101906106b19190610e61565b6001600160a01b0316146106d857604051635d64474f60e11b815260040160405180910390fd5b506001949350505050565b60006105a68261073e565b60006106f982610749565b61070557506000919050565b61071861010a60e0840160c085016108a0565b1561073657604051630c59311960e11b815260040160405180910390fd5b506001919050565b60006105a6826107b0565b6000610754826107b9565b61076057506000919050565b610771610100830160e084016108a0565b6001600160a01b031661078a60e0840160c085016108a0565b6001600160a01b031614610736576040516282b42960e81b815260040160405180910390fd5b600060016105a6565b6000806107c861019384610e55565b905080516000036107ec57604051636de4b34760e01b815260040160405180910390fd5b50600192915050565b60006020828403121561080757600080fd5b5035919050565b60005b83811015610829578181015183820152602001610811565b50506000910152565b6000815180845261084a81602086016020860161080e565b601f01601f19169290920160200192915050565b6020815260006108716020830184610832565b9392505050565b6001600160a01b038116811461088d57600080fd5b50565b803561089b81610878565b919050565b6000602082840312156108b257600080fd5b813561087181610878565b6000602082840312156108cf57600080fd5b81356001600160401b038111156108e557600080fd5b8201610140818503121561087157600080fd5b6020815281516020820152602082015160408201526000604083015161092960608401826001600160401b03169052565b5060608301516001600160401b03811660808401525060808301516001600160401b03811660a08401525060a083015160c083015260c083015161097860e08401826001600160a01b03169052565b5060e0830151610100610995818501836001600160a01b03169052565b84015190506101206109aa8482018315159052565b840151610140848101529050610573610160840182610832565b634e487b7160e01b600052604160045260246000fd5b60405161014081016001600160401b03811182821017156109fd576109fd6109c4565b60405290565b604051601f8201601f191681016001600160401b0381118282101715610a2b57610a2b6109c4565b604052919050565b6001600160401b038116811461088d57600080fd5b803561089b81610a33565b801515811461088d57600080fd5b803561089b81610a53565b60006001600160401b03821115610a8557610a856109c4565b50601f01601f191660200190565b600082601f830112610aa457600080fd5b8135610ab7610ab282610a6c565b610a03565b818152846020838601011115610acc57600080fd5b816020850160208301376000918101602001919091529392505050565b60006101408284031215610afc57600080fd5b610b046109da565b90508135815260208201356020820152610b2060408301610a48565b6040820152610b3160608301610a48565b6060820152610b4260808301610a48565b608082015260a082013560a0820152610b5d60c08301610890565b60c0820152610b6e60e08301610890565b60e0820152610100610b81818401610a61565b90820152610120828101356001600160401b03811115610ba057600080fd5b610bac85828601610a93565b82840152505092915050565b600060208284031215610bca57600080fd5b81356001600160401b03811115610be057600080fd5b61057384828501610ae9565b6000610bfa610ab284610a6c565b9050828152838383011115610c0e57600080fd5b61087183602083018461080e565b600060208284031215610c2e57600080fd5b81516001600160401b03811115610c4457600080fd5b8201601f81018413610c5557600080fd5b61057384825160208401610bec565b634e487b7160e01b600052601160045260246000fd5b818103818111156105a6576105a6610c64565b805161089b81610a33565b805161089b81610878565b805161089b81610a53565b600082601f830112610cbf57600080fd5b61087183835160208501610bec565b600060208284031215610ce057600080fd5b81516001600160401b0380821115610cf757600080fd5b908301906101408286031215610d0c57600080fd5b610d146109da565b8251815260208301516020820152610d2e60408401610c8d565b6040820152610d3f60608401610c8d565b6060820152610d5060808401610c8d565b608082015260a083015160a0820152610d6b60c08401610c98565b60c0820152610d7c60e08401610c98565b60e0820152610100610d8f818501610ca3565b908201526101208381015183811115610da757600080fd5b610db388828701610cae565b918301919091525095945050505050565b808201808211156105a6576105a6610c64565b60008060408385031215610dea57600080fd5b8251610df581610878565b6020939093015192949293505050565b60008060408385031215610e1857600080fd5b8251610e2381610878565b60208401519092506001600160401b03811115610e3f57600080fd5b610e4b85828601610cae565b9150509250929050565b60006105a63683610ae9565b600060208284031215610e7357600080fd5b81516108718161087856fe6164647265737320746f6b656e416464726573732c2075696e7432353620746f6b656e4964a264697066735822122052fa65a297b5743edc9a79f0f510c362e30e9d9e09936e808d46c8cb1e825f6364736f6c63430008130033",
  "linkReferences": {},
  "deployedLinkReferences": {}
}