{
  "_format": "hh-sol-artifact-1",
  "contractName": "ScrollBadgePermissionless",
  "sourceName": "src/badge/examples/ScrollBadgePermissionless.sol",
  "abi": [
    {
      "inputs": [
        {
          "internalType": "address",
          "name": "resolver_",
          "type": "address"
        }
      ],
      "stateMutability": "nonpayable",
      "type": "constructor"
    },
    {
      "inputs": [
        {
          "internalType": "bytes32",
          "name": "uid",
          "type": "bytes32"
        }
      ],
      "name": "AttestationBadgeMismatch",
      "type": "error"
    },
    {
      "inputs": [],
      "name": "SingletonBadge",
      "type": "error"
    },
    {
      "inputs": [],
      "name": "Unauthorized",
      "type": "error"
    },
    {
      "anonymous": false,
      "inputs": [
        {
          "indexed": true,
          "internalType": "bytes32",
          "name": "uid",
          "type": "bytes32"
        }
      ],
      "name": "IssueBadge",
      "type": "event"
    },
    {
      "anonymous": false,
      "inputs": [
        {
          "indexed": true,
          "internalType": "bytes32",
          "name": "uid",
          "type": "bytes32"
        }
      ],
      "name": "RevokeBadge",
      "type": "event"
    },
    {
      "inputs": [
        {
          "internalType": "bytes32",
          "name": "",
          "type": "bytes32"
        }
      ],
      "name": "badgeTokenURI",
      "outputs": [
        {
          "internalType": "string",
          "name": "",
          "type": "string"
        }
      ],
      "stateMutability": "pure",
      "type": "function"
    },
    {
      "inputs": [
        {
          "internalType": "bytes32",
          "name": "uid",
          "type": "bytes32"
        }
      ],
      "name": "getAndValidateBadge",
      "outputs": [
        {
          "components": [
            {
              "internalType": "bytes32",
              "name": "uid",
              "type": "bytes32"
            },
            {
              "internalType": "bytes32",
              "name": "schema",
              "type": "bytes32"
            },
            {
              "internalType": "uint64",
              "name": "time",
              "type": "uint64"
            },
            {
              "internalType": "uint64",
              "name": "expirationTime",
              "type": "uint64"
            },
            {
              "internalType": "uint64",
              "name": "revocationTime",
              "type": "uint64"
            },
            {
              "internalType": "bytes32",
              "name": "refUID",
              "type": "bytes32"
            },
            {
              "internalType": "address",
              "name": "recipient",
              "type": "address"
            },
            {
              "internalType": "address",
              "name": "attester",
              "type": "address"
            },
            {
              "internalType": "bool",
              "name": "revocable",
              "type": "bool"
            },
            {
              "internalType": "bytes",
              "name": "data",
              "type": "bytes"
            }
          ],
          "internalType": "struct Attestation",
          "name": "",
          "type": "tuple"
        }
      ],
      "stateMutability": "view",
      "type": "function"
    },
    {
      "inputs": [
        {
          "internalType": "address",
          "name": "user",
          "type": "address"
        }
      ],
      "name": "hasBadge",
      "outputs": [
        {
          "internalType": "bool",
          "name": "",
          "type": "bool"
        }
      ],
      "stateMutability": "view",
      "type": "function"
    },
    {
      "inputs": [
        {
          "components": [
            {
              "internalType": "bytes32",
              "name": "uid",
              "type": "bytes32"
            },
            {
              "internalType": "bytes32",
              "name": "schema",
              "type": "bytes32"
            },
            {
              "internalType": "uint64",
              "name": "time",
              "type": "uint64"
            },
            {
              "internalType": "uint64",
              "name": "expirationTime",
              "type": "uint64"
            },
            {
              "internalType": "uint64",
              "name": "revocationTime",
              "type": "uint64"
            },
            {
              "internalType": "bytes32",
              "name": "refUID",
              "type": "bytes32"
            },
            {
              "internalType": "address",
              "name": "recipient",
              "type": "address"
            },
            {
              "internalType": "address",
              "name": "attester",
              "type": "address"
            },
            {
              "internalType": "bool",
              "name": "revocable",
              "type": "bool"
            },
            {
              "internalType": "bytes",
              "name": "data",
              "type": "bytes"
            }
          ],
          "internalType": "struct Attestation",
          "name": "attestation",
          "type": "tuple"
        }
      ],
      "name": "issueBadge",
      "outputs": [
        {
          "internalType": "bool",
          "name": "",
          "type": "bool"
        }
      ],
      "stateMutability": "nonpayable",
      "type": "function"
    },
    {
      "inputs": [],
      "name": "resolver",
      "outputs": [
        {
          "internalType": "address",
          "name": "",
          "type": "address"
        }
      ],
      "stateMutability": "view",
      "type": "function"
    },
    {
      "inputs": [
        {
          "components": [
            {
              "internalType": "bytes32",
              "name": "uid",
              "type": "bytes32"
            },
            {
              "internalType": "bytes32",
              "name": "schema",
              "type": "bytes32"
            },
            {
              "internalType": "uint64",
              "name": "time",
              "type": "uint64"
            },
            {
              "internalType": "uint64",
              "name": "expirationTime",
              "type": "uint64"
            },
            {
              "internalType": "uint64",
              "name": "revocationTime",
              "type": "uint64"
            },
            {
              "internalType": "bytes32",
              "name": "refUID",
              "type": "bytes32"
            },
            {
              "internalType": "address",
              "name": "recipient",
              "type": "address"
            },
            {
              "internalType": "address",
              "name": "attester",
              "type": "address"
            },
            {
              "internalType": "bool",
              "name": "revocable",
              "type": "bool"
            },
            {
              "internalType": "bytes",
              "name": "data",
              "type": "bytes"
            }
          ],
          "internalType": "struct Attestation",
          "name": "attestation",
          "type": "tuple"
        }
      ],
      "name": "revokeBadge",
      "outputs": [
        {
          "internalType": "bool",
          "name": "",
          "type": "bool"
        }
      ],
      "stateMutability": "nonpayable",
      "type": "function"
    }
  ],
  "bytecode": "0x60a060405234801561001057600080fd5b50604051610a53380380610a5383398101604081905261002f91610040565b6001600160a01b0316608052610070565b60006020828403121561005257600080fd5b81516001600160a01b038116811461006957600080fd5b9392505050565b6080516109b461009f60003960008181606c01528181610167015281816102a5015261036d01526109b46000f3fe608060405234801561001057600080fd5b50600436106100625760003560e01c806304f3bcec1461006757806324830563146100ab5780635e50864f146100d95780638298b030146101145780638c6f12f014610127578063d753a63d14610147575b600080fd5b61008e7f000000000000000000000000000000000000000000000000000000000000000081565b6040516001600160a01b0390911681526020015b60405180910390f35b6100cc6100b936600461052f565b5060408051602081019091526000815290565b6040516100a29190610598565b6101046100e73660046105ca565b6001600160a01b0316600090815260208190526040902054151590565b60405190151581526020016100a2565b6101046101223660046105e7565b61015a565b61013a61013536600461052f565b610236565b6040516100a29190610623565b6101046101553660046105e7565b610360565b6000336001600160a01b037f000000000000000000000000000000000000000000000000000000000000000016146101a4576040516282b42960e81b815260040160405180910390fd5b6101ad8261043c565b6101b957506000919050565b60016000806101ce60e0860160c087016105ca565b6001600160a01b03166001600160a01b0316815260200190815260200160002060008282546101fd9190610710565b90915550506040518235907f504e4727721de18c6bf7f66448a6ff6da00aa4b1f00b6034e71723ae7ce6373a90600090a2506001919050565b604080516101408101825260008082526020820181905281830181905260608083018290526080830182905260a0830182905260c0830182905260e08301829052610100830182905261012083015291516308c6f12f60e41b8152600481018490529091906001600160a01b037f00000000000000000000000000000000000000000000000000000000000000001690638c6f12f090602401600060405180830381865afa1580156102ec573d6000803e3d6000fd5b505050506040513d6000823e601f3d908101601f191682016040526103149190810190610823565b9050600061032682610120015161044d565b5090506001600160a01b03811630146103595760405163b923d26160e01b81526004810185905260240160405180910390fd5b5092915050565b6000336001600160a01b037f000000000000000000000000000000000000000000000000000000000000000016146103aa576040516282b42960e81b815260040160405180910390fd5b6103b38261046e565b6103bf57506000919050565b60016000806103d460e0860160c087016105ca565b6001600160a01b03166001600160a01b031681526020019081526020016000206000828254610403919061091a565b90915550506040518235907fa0785ec0b9bf31a5475d33c716fb9f500f0ea0bb9e4bc10ec39d5db763c1da1590600090a2506001919050565b600061044782610479565b92915050565b6000606082806020019051810190610465919061092d565b91509150915091565b600061044782610484565b6000610447826104d4565b600061048f826104dd565b61049b57506000919050565b6104ae6100e760e0840160c085016105ca565b156104cc57604051630c59311960e11b815260040160405180910390fd5b506001919050565b60006001610447565b60006104f0610100830160e084016105ca565b6001600160a01b031661050960e0840160c085016105ca565b6001600160a01b0316146104cc576040516282b42960e81b815260040160405180910390fd5b60006020828403121561054157600080fd5b5035919050565b60005b8381101561056357818101518382015260200161054b565b50506000910152565b60008151808452610584816020860160208601610548565b601f01601f19169290920160200192915050565b6020815260006105ab602083018461056c565b9392505050565b6001600160a01b03811681146105c757600080fd5b50565b6000602082840312156105dc57600080fd5b81356105ab816105b2565b6000602082840312156105f957600080fd5b813567ffffffffffffffff81111561061057600080fd5b820161014081850312156105ab57600080fd5b60208152815160208201526020820151604082015260006040830151610655606084018267ffffffffffffffff169052565b50606083015167ffffffffffffffff8116608084015250608083015167ffffffffffffffff811660a08401525060a083015160c083015260c08301516106a660e08401826001600160a01b03169052565b5060e08301516101006106c3818501836001600160a01b03169052565b84015190506101206106d88482018315159052565b8401516101408481015290506106f261016084018261056c565b949350505050565b634e487b7160e01b600052601160045260246000fd5b81810381811115610447576104476106fa565b634e487b7160e01b600052604160045260246000fd5b604051610140810167ffffffffffffffff8111828210171561075d5761075d610723565b60405290565b805167ffffffffffffffff8116811461077b57600080fd5b919050565b805161077b816105b2565b8051801515811461077b57600080fd5b600082601f8301126107ac57600080fd5b815167ffffffffffffffff808211156107c7576107c7610723565b604051601f8301601f19908116603f011681019082821181831017156107ef576107ef610723565b8160405283815286602085880101111561080857600080fd5b610819846020830160208901610548565b9695505050505050565b60006020828403121561083557600080fd5b815167ffffffffffffffff8082111561084d57600080fd5b90830190610140828603121561086257600080fd5b61086a610739565b825181526020830151602082015261088460408401610763565b604082015261089560608401610763565b60608201526108a660808401610763565b608082015260a083015160a08201526108c160c08401610780565b60c08201526108d260e08401610780565b60e08201526101006108e581850161078b565b9082015261012083810151838111156108fd57600080fd5b6109098882870161079b565b918301919091525095945050505050565b80820180821115610447576104476106fa565b6000806040838503121561094057600080fd5b825161094b816105b2565b602084015190925067ffffffffffffffff81111561096857600080fd5b6109748582860161079b565b915050925092905056fea2646970667358221220d979ca1b8a9ef82bc036a90ce7094203004b0681611092ae9ddab7ab395623d264736f6c63430008130033",
  "linkReferences": {},
  "deployedLinkReferences": {}
}