{"src/badge/examples/ScrollBadgeLevelsScrolly.sol":{"ScrollBadgeLevelsScrolly":{"abi":[{"inputs":[{"internalType":"address","name":"resolver_","type":"address"},{"internalType":"address","name":"activityPoints_","type":"address"},{"internalType":"string","name":"_defaultBadgeURI","type":"string"},{"internalType":"string","name":"_baseBadgeURI","type":"string"}],"stateMutability":"nonpayable","type":"constructor"},{"inputs":[{"internalType":"bytes32","name":"uid","type":"bytes32"}],"name":"AttestationBadgeMismatch","type":"error"},{"inputs":[],"name":"ExpirationDisabled","type":"error"},{"inputs":[],"name":"SingletonBadge","type":"error"},{"inputs":[],"name":"Unauthorized","type":"error"},{"anonymous":false,"inputs":[{"indexed":true,"internalType":"bytes32","name":"uid","type":"bytes32"}],"name":"IssueBadge","type":"event"},{"anonymous":false,"inputs":[{"indexed":true,"internalType":"address","name":"previousOwner","type":"address"},{"indexed":true,"internalType":"address","name":"newOwner","type":"address"}],"name":"OwnershipTransferred","type":"event"},{"anonymous":false,"inputs":[{"indexed":true,"internalType":"bytes32","name":"uid","type":"bytes32"}],"name":"RevokeBadge","type":"event"},{"inputs":[],"name":"MINIMUM_POINTS_ELIGIBILITY","outputs":[{"internalType":"uint256","name":"","type":"uint256"}],"stateMutability":"view","type":"function"},{"inputs":[],"name":"MINIMUM_POINTS_LEVEL_0","outputs":[{"internalType":"uint256","name":"","type":"uint256"}],"stateMutability":"view","type":"function"},{"inputs":[],"name":"MINIMUM_POINTS_LEVEL_1","outputs":[{"internalType":"uint256","name":"","type":"uint256"}],"stateMutability":"view","type":"function"},{"inputs":[],"name":"MINIMUM_POINTS_LEVEL_2","outputs":[{"internalType":"uint256","name":"","type":"uint256"}],"stateMutability":"view","type":"function"},{"inputs":[],"name":"MINIMUM_POINTS_LEVEL_3","outputs":[{"internalType":"uint256","name":"","type":"uint256"}],"stateMutability":"view","type":"function"},{"inputs":[],"name":"MINIMUM_POINTS_LEVEL_4","outputs":[{"internalType":"uint256","name":"","type":"uint256"}],"stateMutability":"view","type":"function"},{"inputs":[{"internalType":"bytes32","name":"uid","type":"bytes32"}],"name":"badgeTokenURI","outputs":[{"internalType":"string","name":"","type":"string"}],"stateMutability":"view","type":"function"},{"inputs":[],"name":"baseBadgeURI","outputs":[{"internalType":"string","name":"","type":"string"}],"stateMutability":"view","type":"function"},{"inputs":[],"name":"defaultBadgeURI","outputs":[{"internalType":"string","name":"","type":"string"}],"stateMutability":"view","type":"function"},{"inputs":[{"internalType":"uint256","name":"points","type":"uint256"}],"name":"determineBadgeLevel","outputs":[{"internalType":"uint8","name":"","type":"uint8"}],"stateMutability":"pure","type":"function"},{"inputs":[{"internalType":"bytes32","name":"uid","type":"bytes32"}],"name":"getAndValidateBadge","outputs":[{"components":[{"internalType":"bytes32","name":"uid","type":"bytes32"},{"internalType":"bytes32","name":"schema","type":"bytes32"},{"internalType":"uint64","name":"time","type":"uint64"},{"internalType":"uint64","name":"expirationTime","type":"uint64"},{"internalType":"uint64","name":"revocationTime","type":"uint64"},{"internalType":"bytes32","name":"refUID","type":"bytes32"},{"internalType":"address","name":"recipient","type":"address"},{"internalType":"address","name":"attester","type":"address"},{"internalType":"bool","name":"revocable","type":"bool"},{"internalType":"bytes","name":"data","type":"bytes"}],"internalType":"struct Attestation","name":"","type":"tuple"}],"stateMutability":"view","type":"function"},{"inputs":[{"internalType":"bytes32","name":"uid","type":"bytes32"}],"name":"getCurrentLevel","outputs":[{"internalType":"uint8","name":"","type":"uint8"}],"stateMutability":"view","type":"function"},{"inputs":[{"internalType":"address","name":"recipient","type":"address"}],"name":"getLevel","outputs":[{"internalType":"uint8","name":"","type":"uint8"}],"stateMutability":"view","type":"function"},{"inputs":[{"internalType":"uint8","name":"level","type":"uint8"}],"name":"getLevelDescription","outputs":[{"internalType":"string","name":"","type":"string"}],"stateMutability":"pure","type":"function"},{"inputs":[{"internalType":"address","name":"recipient","type":"address"}],"name":"getPoints","outputs":[{"internalType":"uint256","name":"","type":"uint256"}],"stateMutability":"view","type":"function"},{"inputs":[{"internalType":"address","name":"user","type":"address"}],"name":"hasBadge","outputs":[{"internalType":"bool","name":"","type":"bool"}],"stateMutability":"view","type":"function"},{"inputs":[{"internalType":"address","name":"","type":"address"}],"name":"isAttester","outputs":[{"internalType":"bool","name":"","type":"bool"}],"stateMutability":"view","type":"function"},{"inputs":[{"internalType":"address","name":"recipient","type":"address"}],"name":"isEligible","outputs":[{"internalType":"bool","name":"","type":"bool"}],"stateMutability":"view","type":"function"},{"inputs":[{"components":[{"internalType":"bytes32","name":"uid","type":"bytes32"},{"internalType":"bytes32","name":"schema","type":"bytes32"},{"internalType":"uint64","name":"time","type":"uint64"},{"internalType":"uint64","name":"expirationTime","type":"uint64"},{"internalType":"uint64","name":"revocationTime","type":"uint64"},{"internalType":"bytes32","name":"refUID","type":"bytes32"},{"internalType":"address","name":"recipient","type":"address"},{"internalType":"address","name":"attester","type":"address"},{"internalType":"bool","name":"revocable","type":"bool"},{"internalType":"bytes","name":"data","type":"bytes"}],"internalType":"struct Attestation","name":"attestation","type":"tuple"}],"name":"issueBadge","outputs":[{"internalType":"bool","name":"","type":"bool"}],"stateMutability":"nonpayable","type":"function"},{"inputs":[],"name":"owner","outputs":[{"internalType":"address","name":"","type":"address"}],"stateMutability":"view","type":"function"},{"inputs":[],"name":"renounceOwnership","outputs":[],"stateMutability":"nonpayable","type":"function"},{"inputs":[],"name":"resolver","outputs":[{"internalType":"address","name":"","type":"address"}],"stateMutability":"view","type":"function"},{"inputs":[{"components":[{"internalType":"bytes32","name":"uid","type":"bytes32"},{"internalType":"bytes32","name":"schema","type":"bytes32"},{"internalType":"uint64","name":"time","type":"uint64"},{"internalType":"uint64","name":"expirationTime","type":"uint64"},{"internalType":"uint64","name":"revocationTime","type":"uint64"},{"internalType":"bytes32","name":"refUID","type":"bytes32"},{"internalType":"address","name":"recipient","type":"address"},{"internalType":"address","name":"attester","type":"address"},{"internalType":"bool","name":"revocable","type":"bool"},{"internalType":"bytes","name":"data","type":"bytes"}],"internalType":"struct Attestation","name":"attestation","type":"tuple"}],"name":"revokeBadge","outputs":[{"internalType":"bool","name":"","type":"bool"}],"stateMutability":"nonpayable","type":"function"},{"inputs":[{"internalType":"address","name":"attester","type":"address"},{"internalType":"bool","name":"enable","type":"bool"}],"name":"toggleAttester","outputs":[],"stateMutability":"nonpayable","type":"function"},{"inputs":[{"internalType":"address","name":"newOwner","type":"address"}],"name":"transferOwnership","outputs":[],"stateMutability":"nonpayable","type":"function"}],"evm":{"bytecode":{"linkReferences":{},"object":"610160604052670de0b6b3a764000060a05268120d4da7b0bd14000060c052682a1f0a87470e84000060e05268487a9a304539440000610100526884618ecdbabfe800006101205268e3aeb5737240a00000610140523480156200006257600080fd5b5060405162001fe138038062001fe1833981016040819052620000859162000214565b81846200009233620000e2565b6001600160a01b03166080526003620000ac828262000333565b5050600480546001600160a01b0319166001600160a01b0385161790556005620000d7828262000333565b5050505050620003ff565b600080546001600160a01b038381166001600160a01b0319831681178455604051919092169283917f8be0079c531659141344cd1fd0a4f28419497f9722a3daafe3b4186f6b6457e09190a35050565b80516001600160a01b03811681146200014a57600080fd5b919050565b634e487b7160e01b600052604160045260246000fd5b600082601f8301126200017757600080fd5b81516001600160401b03808211156200019457620001946200014f565b604051601f8301601f19908116603f01168101908282118183101715620001bf57620001bf6200014f565b81604052838152602092508683858801011115620001dc57600080fd5b600091505b83821015620002005785820183015181830184015290820190620001e1565b600093810190920192909252949350505050565b600080600080608085870312156200022b57600080fd5b620002368562000132565b9350620002466020860162000132565b60408601519093506001600160401b03808211156200026457600080fd5b620002728883890162000165565b935060608701519150808211156200028957600080fd5b50620002988782880162000165565b91505092959194509250565b600181811c90821680620002b957607f821691505b602082108103620002da57634e487b7160e01b600052602260045260246000fd5b50919050565b601f8211156200032e57600081815260208120601f850160051c81016020861015620003095750805b601f850160051c820191505b818110156200032a5782815560010162000315565b5050505b505050565b81516001600160401b038111156200034f576200034f6200014f565b6200036781620003608454620002a4565b84620002e0565b602080601f8311600181146200039f5760008415620003865750858301515b600019600386901b1c1916600185901b1785556200032a565b600085815260208120601f198616915b82811015620003d057888601518255948401946001909101908401620003af565b5085821015620003ef5787850151600019600388901b60f8161c191681555b5050505050600190811b01905550565b60805160a05160c05160e051610100516101205161014051611b4862000499600039600081816102790152610bc60152600081816102a00152610b970152600081816103c40152610b680152600081816103760152610b390152600081816101c10152610b0a01526000818161039d015261069701526000818161017d015281816107a2015281816108e00152610a370152611b486000f3fe608060405234801561001057600080fd5b50600436106101735760003560e01c80638c6f12f0116100de578063cfe3e6a011610097578063ee204abb11610071578063ee204abb1461040c578063eed05dce1461041f578063f22abab414610432578063f2fde38b1461043a57600080fd5b8063cfe3e6a0146103bf578063d753a63d146103e6578063e7257d22146103f957600080fd5b80638c6f12f0146103155780638da5cb5b14610335578063b1a3a35f14610346578063b6ebe5391461034e578063c47162be14610371578063ceb51c411461039857600080fd5b80636538a7d9116101305780636538a7d9146102745780636636114d1461029b57806366e305fd146102c2578063715018a6146102d5578063817c8966146102dd5780638298b0301461030257600080fd5b806304f3bcec146101785780630cdcc387146101bc5780630ee48948146101f15780632483056314610206578063500eace2146102265780635e50864f14610239575b600080fd5b61019f7f000000000000000000000000000000000000000000000000000000000000000081565b6040516001600160a01b0390911681526020015b60405180910390f35b6101e37f000000000000000000000000000000000000000000000000000000000000000081565b6040519081526020016101b3565b6102046101ff36600461135c565b61044d565b005b610219610214366004611395565b610480565b6040516101b391906113fe565b610219610234366004611411565b610528565b610264610247366004611434565b6001600160a01b0316600090815260016020526040902054151590565b60405190151581526020016101b3565b6101e37f000000000000000000000000000000000000000000000000000000000000000081565b6101e37f000000000000000000000000000000000000000000000000000000000000000081565b6102646102d0366004611434565b61066f565b61020461070b565b6102f06102eb366004611434565b61071f565b60405160ff90911681526020016101b3565b610264610310366004611451565b610795565b610328610323366004611395565b610871565b6040516101b3919061148d565b6000546001600160a01b031661019f565b61021961099c565b61026461035c366004611434565b60026020526000908152604090205460ff1681565b6101e37f000000000000000000000000000000000000000000000000000000000000000081565b6101e37f000000000000000000000000000000000000000000000000000000000000000081565b6101e37f000000000000000000000000000000000000000000000000000000000000000081565b6102646103f4366004611451565b610a2a565b6102f0610407366004611395565b610b06565b6101e361041a366004611434565b610bfb565b6102f061042d366004611395565b610c6f565b610219610c91565b610204610448366004611434565b610c9e565b610455610d17565b6001600160a01b03919091166000908152600260205260409020805460ff1916911515919091179055565b606081610519576003805461049490611564565b80601f01602080910402602001604051908101604052809291908181526020018280546104c090611564565b801561050d5780601f106104e25761010080835404028352916020019161050d565b820191906000526020600020905b8154815290600101906020018083116104f057829003601f168201915b50505050509050919050565b61052282610d71565b92915050565b60608160ff1660000361055d57505060408051808201909152600c81526b5363726f6c6c79204261627960a01b602082015290565b8160ff1660010361059257505060408051808201909152600e81526d5363726f6c6c79204e6f7669636560901b602082015290565b8160ff166002036105c957505060408051808201909152601081526f29b1b937b6363c9022bc383637b932b960811b602082015290565b8160ff166003036105fd57505060408051808201909152600d81526c26b0b9ba32b91026b0b83832b960991b602082015290565b8160ff1660040361063157505060408051808201909152600d81526c436172746f204d61657374726f60981b602082015290565b505060408051808201909152601d81527f4772616e6420436172746f67726170686572206f66205363726f6c6c79000000602082015290565b919050565b6004805460405163ee204abb60e01b81526001600160a01b03848116938201939093526000927f000000000000000000000000000000000000000000000000000000000000000092169063ee204abb90602401602060405180830381865afa1580156106df573d6000803e3d6000fd5b505050506040513d601f19601f82011682018060405250810190610703919061159e565b101592915050565b610713610d17565b61071d6000610e4c565b565b6004805460405163ee204abb60e01b81526001600160a01b038481169382019390935260009261052292169063ee204abb90602401602060405180830381865afa158015610771573d6000803e3d6000fd5b505050506040513d601f19601f82011682018060405250810190610407919061159e565b6000336001600160a01b037f000000000000000000000000000000000000000000000000000000000000000016146107df576040516282b42960e81b815260040160405180910390fd5b6107e882610e9c565b6107f457506000919050565b600180600061080960e0860160c08701611434565b6001600160a01b03166001600160a01b03168152602001908152602001600020600082825461083891906115cd565b90915550506040518235907f504e4727721de18c6bf7f66448a6ff6da00aa4b1f00b6034e71723ae7ce6373a90600090a2506001919050565b604080516101408101825260008082526020820181905281830181905260608083018290526080830182905260a0830182905260c0830182905260e08301829052610100830182905261012083015291516308c6f12f60e41b8152600481018490529091906001600160a01b037f00000000000000000000000000000000000000000000000000000000000000001690638c6f12f090602401600060405180830381865afa158015610927573d6000803e3d6000fd5b505050506040513d6000823e601f3d908101601f1916820160405261094f91908101906116df565b90506000610961826101200151610ea7565b5090506001600160a01b03811630146109955760405163b923d26160e01b8152600481018590526024015b60405180910390fd5b5092915050565b600380546109a990611564565b80601f01602080910402602001604051908101604052809291908181526020018280546109d590611564565b8015610a225780601f106109f757610100808354040283529160200191610a22565b820191906000526020600020905b815481529060010190602001808311610a0557829003601f168201915b505050505081565b6000336001600160a01b037f00000000000000000000000000000000000000000000000000000000000000001614610a74576040516282b42960e81b815260040160405180910390fd5b610a7d82610ec8565b610a8957506000919050565b6001806000610a9e60e0860160c08701611434565b6001600160a01b03166001600160a01b031681526020019081526020016000206000828254610acd91906117d6565b90915550506040518235907fa0785ec0b9bf31a5475d33c716fb9f500f0ea0bb9e4bc10ec39d5db763c1da1590600090a2506001919050565b60007f00000000000000000000000000000000000000000000000000000000000000008211610b3757506000919050565b7f00000000000000000000000000000000000000000000000000000000000000008211610b6657506001919050565b7f00000000000000000000000000000000000000000000000000000000000000008211610b9557506002919050565b7f00000000000000000000000000000000000000000000000000000000000000008211610bc457506003919050565b7f00000000000000000000000000000000000000000000000000000000000000008211610bf357506004919050565b506005919050565b6004805460405163ee204abb60e01b81526001600160a01b03848116938201939093526000929091169063ee204abb90602401602060405180830381865afa158015610c4b573d6000803e3d6000fd5b505050506040513d601f19601f82011682018060405250810190610522919061159e565b600080610c7b83610871565b9050610c8a8160c0015161071f565b9392505050565b600580546109a990611564565b610ca6610d17565b6001600160a01b038116610d0b5760405162461bcd60e51b815260206004820152602660248201527f4f776e61626c653a206e6577206f776e657220697320746865207a65726f206160448201526564647265737360d01b606482015260840161098c565b610d1481610e4c565b50565b6000546001600160a01b0316331461071d5760405162461bcd60e51b815260206004820181905260248201527f4f776e61626c653a2063616c6c6572206973206e6f7420746865206f776e6572604482015260640161098c565b60606000610d7e83610c6f565b90506000610d8e8260ff16610f02565b604051602001610d9e91906117e9565b60405160208183030381529060405290506000610dba83610528565b905060006005610dcc8560ff16610f02565b604051602001610ddd929190611822565b60405160208183030381529060405290506000610e1e84848488604051602001610e0a949392919061191c565b604051602081830303815290604052610f95565b905080604051602001610e3191906119e6565b60405160208183030381529060405295505050505050919050565b600080546001600160a01b038381166001600160a01b0319831681178455604051919092169283917f8be0079c531659141344cd1fd0a4f28419497f9722a3daafe3b4186f6b6457e09190a35050565b6000610522826110e8565b6000606082806020019051810190610ebf9190611a2b565b91509150915091565b6000610edd6102d060e0840160c08501611434565b610ef9576040516282b42960e81b815260040160405180910390fd5b610522826110f3565b60606000610f0f83611162565b600101905060008167ffffffffffffffff811115610f2f57610f2f6115e0565b6040519080825280601f01601f191660200182016040528015610f59576020820181803683370190505b5090508181016020015b600019016f181899199a1a9b1b9c1cb0b131b232b360811b600a86061a8153600a8504945084610f6357509392505050565b60608151600003610fb457505060408051602081019091526000815290565b6000604051806060016040528060408152602001611ad36040913990506000600384516002610fe391906117d6565b610fed9190611a7c565b610ff8906004611a9e565b67ffffffffffffffff811115611010576110106115e0565b6040519080825280601f01601f19166020018201604052801561103a576020820181803683370190505b509050600182016020820185865187015b808210156110a6576003820191508151603f8160121c168501518453600184019350603f81600c1c168501518453600184019350603f8160061c168501518453600184019350603f811685015184535060018301925061104b565b50506003865106600181146110c257600281146110d5576110dd565b603d6001830353603d60028303536110dd565b603d60018303535b509195945050505050565b60006105228261123a565b60006110fe82611245565b61110a57506000919050565b61111b610100830160e08401611434565b6001600160a01b031661113460e0840160c08501611434565b6001600160a01b03161461115a576040516282b42960e81b815260040160405180910390fd5b506001919050565b60008072184f03e93ff9f4daa797ed6e38ed64bf6a1f0160401b83106111a15772184f03e93ff9f4daa797ed6e38ed64bf6a1f0160401b830492506040015b6d04ee2d6d415b85acef810000000083106111cd576d04ee2d6d415b85acef8100000000830492506020015b662386f26fc1000083106111eb57662386f26fc10000830492506010015b6305f5e1008310611203576305f5e100830492506008015b612710831061121757612710830492506004015b60648310611229576064830492506002015b600a83106105225760010192915050565b60006105228261128d565b600061125082611298565b61125c57506000919050565b61126f61024760e0840160c08501611434565b1561115a57604051630c59311960e11b815260040160405180910390fd5b6000610522826112e9565b60006112a3826112e9565b6112af57506000919050565b60006112c16080840160608501611ab5565b67ffffffffffffffff161461115a57604051637bfd865360e11b815260040160405180910390fd5b600060026000611300610100850160e08601611434565b6001600160a01b0316815260208101919091526040016000205460ff1661115a576040516282b42960e81b815260040160405180910390fd5b6001600160a01b0381168114610d1457600080fd5b8015158114610d1457600080fd5b6000806040838503121561136f57600080fd5b823561137a81611339565b9150602083013561138a8161134e565b809150509250929050565b6000602082840312156113a757600080fd5b5035919050565b60005b838110156113c95781810151838201526020016113b1565b50506000910152565b600081518084526113ea8160208601602086016113ae565b601f01601f19169290920160200192915050565b602081526000610c8a60208301846113d2565b60006020828403121561142357600080fd5b813560ff81168114610c8a57600080fd5b60006020828403121561144657600080fd5b8135610c8a81611339565b60006020828403121561146357600080fd5b813567ffffffffffffffff81111561147a57600080fd5b82016101408185031215610c8a57600080fd5b602081528151602082015260208201516040820152600060408301516114bf606084018267ffffffffffffffff169052565b50606083015167ffffffffffffffff8116608084015250608083015167ffffffffffffffff811660a08401525060a083015160c083015260c083015161151060e08401826001600160a01b03169052565b5060e083015161010061152d818501836001600160a01b03169052565b84015190506101206115428482018315159052565b84015161014084810152905061155c6101608401826113d2565b949350505050565b600181811c9082168061157857607f821691505b60208210810361159857634e487b7160e01b600052602260045260246000fd5b50919050565b6000602082840312156115b057600080fd5b5051919050565b634e487b7160e01b600052601160045260246000fd5b81810381811115610522576105226115b7565b634e487b7160e01b600052604160045260246000fd5b604051610140810167ffffffffffffffff8111828210171561161a5761161a6115e0565b60405290565b67ffffffffffffffff81168114610d1457600080fd5b805161066a81611620565b805161066a81611339565b805161066a8161134e565b600082601f83011261166857600080fd5b815167ffffffffffffffff80821115611683576116836115e0565b604051601f8301601f19908116603f011681019082821181831017156116ab576116ab6115e0565b816040528381528660208588010111156116c457600080fd5b6116d58460208301602089016113ae565b9695505050505050565b6000602082840312156116f157600080fd5b815167ffffffffffffffff8082111561170957600080fd5b90830190610140828603121561171e57600080fd5b6117266115f6565b825181526020830151602082015261174060408401611636565b604082015261175160608401611636565b606082015261176260808401611636565b608082015260a083015160a082015261177d60c08401611641565b60c082015261178e60e08401611641565b60e08201526101006117a181850161164c565b9082015261012083810151838111156117b957600080fd5b6117c588828701611657565b918301919091525095945050505050565b80820180821115610522576105226115b7565b60408152600f60408201526e5363726f6c6c79204c6576656c202360881b6060820152608060208201526000610c8a60808301846113d2565b60808152600080845481600182811c91508083168061184257607f831692505b6020808410820361186157634e487b7160e01b86526022600452602486fd5b6080880184905260a088018280156118805760018114611896576118c1565b60ff198716825285151560051b820197506118c1565b60008c81526020902060005b878110156118bb578154848201529086019084016118a2565b83019850505b5050878603908801525050600183525050602f60f81b602082015260408101905082810360408401526118f481856113d2565b838103606085015260048152632e706e6760e01b602082015290506040810195945050505050565b683d913730b6b2911d1160b91b81528451600090611941816009850160208a016113ae565b71111610113232b9b1b934b83a34b7b7111d1160711b600991840191820152855161197381601b840160208a016113ae565b6b16101134b6b0b3b2911d101160a11b601b929091019182015284516119a08160278401602089016113ae565b6b1610113632bb32b6111d101160a11b6027929091019182015260f89390931b6001600160f81b0319166033840152505061227d60f01b60348201526036019392505050565b7f646174613a6170706c69636174696f6e2f6a736f6e3b6261736536342c000000815260008251611a1e81601d8501602087016113ae565b91909101601d0192915050565b60008060408385031215611a3e57600080fd5b8251611a4981611339565b602084015190925067ffffffffffffffff811115611a6657600080fd5b611a7285828601611657565b9150509250929050565b600082611a9957634e487b7160e01b600052601260045260246000fd5b500490565b8082028115828204841417610522576105226115b7565b600060208284031215611ac757600080fd5b8135610c8a8161162056fe4142434445464748494a4b4c4d4e4f505152535455565758595a6162636465666768696a6b6c6d6e6f707172737475767778797a303132333435363738392b2fa2646970667358221220423c5bad70722303210d610ccaa123c16e2279337753f370234000174828b55e64736f6c63430008130033","opcodes":"PUSH2 0x160 PUSH1 0x40 MSTORE PUSH8 0xDE0B6B3A7640000 PUSH1 0xA0 MSTORE PUSH9 0x120D4DA7B0BD140000 PUSH1 0xC0 MSTORE PUSH9 0x2A1F0A87470E840000 PUSH1 0xE0 MSTORE PUSH9 0x487A9A304539440000 PUSH2 0x100 MSTORE PUSH9 0x84618ECDBABFE80000 PUSH2 0x120 MSTORE PUSH9 0xE3AEB5737240A00000 PUSH2 0x140 MSTORE CALLVALUE DUP1 ISZERO PUSH3 0x62 JUMPI PUSH1 0x0 DUP1 REVERT JUMPDEST POP PUSH1 0x40 MLOAD PUSH3 0x1FE1 CODESIZE SUB DUP1 PUSH3 0x1FE1 DUP4 CODECOPY DUP2 ADD PUSH1 0x40 DUP2 SWAP1 MSTORE PUSH3 0x85 SWAP2 PUSH3 0x214 JUMP JUMPDEST DUP2 DUP5 PUSH3 0x92 CALLER PUSH3 0xE2 JUMP JUMPDEST PUSH1 0x1 PUSH1 0x1 PUSH1 0xA0 SHL SUB AND PUSH1 0x80 MSTORE PUSH1 0x3 PUSH3 0xAC DUP3 DUP3 PUSH3 0x333 JUMP JUMPDEST POP POP PUSH1 0x4 DUP1 SLOAD PUSH1 0x1 PUSH1 0x1 PUSH1 0xA0 SHL SUB NOT AND PUSH1 0x1 PUSH1 0x1 PUSH1 0xA0 SHL SUB DUP6 AND OR SWAP1 SSTORE PUSH1 0x5 PUSH3 0xD7 DUP3 DUP3 PUSH3 0x333 JUMP JUMPDEST POP POP POP POP POP PUSH3 0x3FF JUMP JUMPDEST PUSH1 0x0 DUP1 SLOAD PUSH1 0x1 PUSH1 0x1 PUSH1 0xA0 SHL SUB DUP4 DUP2 AND PUSH1 0x1 PUSH1 0x1 PUSH1 0xA0 SHL SUB NOT DUP4 AND DUP2 OR DUP5 SSTORE PUSH1 0x40 MLOAD SWAP2 SWAP1 SWAP3 AND SWAP3 DUP4 SWAP2 PUSH32 0x8BE0079C531659141344CD1FD0A4F28419497F9722A3DAAFE3B4186F6B6457E0 SWAP2 SWAP1 LOG3 POP POP JUMP JUMPDEST DUP1 MLOAD PUSH1 0x1 PUSH1 0x1 PUSH1 0xA0 SHL SUB DUP2 AND DUP2 EQ PUSH3 0x14A JUMPI PUSH1 0x0 DUP1 REVERT JUMPDEST SWAP2 SWAP1 POP JUMP JUMPDEST PUSH4 0x4E487B71 PUSH1 0xE0 SHL PUSH1 0x0 MSTORE PUSH1 0x41 PUSH1 0x4 MSTORE PUSH1 0x24 PUSH1 0x0 REVERT JUMPDEST PUSH1 0x0 DUP3 PUSH1 0x1F DUP4 ADD SLT PUSH3 0x177 JUMPI PUSH1 0x0 DUP1 REVERT JUMPDEST DUP2 MLOAD PUSH1 0x1 PUSH1 0x1 PUSH1 0x40 SHL SUB DUP1 DUP3 GT ISZERO PUSH3 0x194 JUMPI PUSH3 0x194 PUSH3 0x14F JUMP JUMPDEST PUSH1 0x40 MLOAD PUSH1 0x1F DUP4 ADD PUSH1 0x1F NOT SWAP1 DUP2 AND PUSH1 0x3F ADD AND DUP2 ADD SWAP1 DUP3 DUP3 GT DUP2 DUP4 LT OR ISZERO PUSH3 0x1BF JUMPI PUSH3 0x1BF PUSH3 0x14F JUMP JUMPDEST DUP2 PUSH1 0x40 MSTORE DUP4 DUP2 MSTORE PUSH1 0x20 SWAP3 POP DUP7 DUP4 DUP6 DUP9 ADD ADD GT ISZERO PUSH3 0x1DC JUMPI PUSH1 0x0 DUP1 REVERT JUMPDEST PUSH1 0x0 SWAP2 POP JUMPDEST DUP4 DUP3 LT ISZERO PUSH3 0x200 JUMPI DUP6 DUP3 ADD DUP4 ADD MLOAD DUP2 DUP4 ADD DUP5 ADD MSTORE SWAP1 DUP3 ADD SWAP1 PUSH3 0x1E1 JUMP JUMPDEST PUSH1 0x0 SWAP4 DUP2 ADD SWAP1 SWAP3 ADD SWAP3 SWAP1 SWAP3 MSTORE SWAP5 SWAP4 POP POP POP POP JUMP JUMPDEST PUSH1 0x0 DUP1 PUSH1 0x0 DUP1 PUSH1 0x80 DUP6 DUP8 SUB SLT ISZERO PUSH3 0x22B JUMPI PUSH1 0x0 DUP1 REVERT JUMPDEST PUSH3 0x236 DUP6 PUSH3 0x132 JUMP JUMPDEST SWAP4 POP PUSH3 0x246 PUSH1 0x20 DUP7 ADD PUSH3 0x132 JUMP JUMPDEST PUSH1 0x40 DUP7 ADD MLOAD SWAP1 SWAP4 POP PUSH1 0x1 PUSH1 0x1 PUSH1 0x40 SHL SUB DUP1 DUP3 GT ISZERO PUSH3 0x264 JUMPI PUSH1 0x0 DUP1 REVERT JUMPDEST PUSH3 0x272 DUP9 DUP4 DUP10 ADD PUSH3 0x165 JUMP JUMPDEST SWAP4 POP PUSH1 0x60 DUP8 ADD MLOAD SWAP2 POP DUP1 DUP3 GT ISZERO PUSH3 0x289 JUMPI PUSH1 0x0 DUP1 REVERT JUMPDEST POP PUSH3 0x298 DUP8 DUP3 DUP9 ADD PUSH3 0x165 JUMP JUMPDEST SWAP2 POP POP SWAP3 SWAP6 SWAP2 SWAP5 POP SWAP3 POP JUMP JUMPDEST PUSH1 0x1 DUP2 DUP2 SHR SWAP1 DUP3 AND DUP1 PUSH3 0x2B9 JUMPI PUSH1 0x7F DUP3 AND SWAP2 POP JUMPDEST PUSH1 0x20 DUP3 LT DUP2 SUB PUSH3 0x2DA JUMPI PUSH4 0x4E487B71 PUSH1 0xE0 SHL PUSH1 0x0 MSTORE PUSH1 0x22 PUSH1 0x4 MSTORE PUSH1 0x24 PUSH1 0x0 REVERT JUMPDEST POP SWAP2 SWAP1 POP JUMP JUMPDEST PUSH1 0x1F DUP3 GT ISZERO PUSH3 0x32E JUMPI PUSH1 0x0 DUP2 DUP2 MSTORE PUSH1 0x20 DUP2 KECCAK256 PUSH1 0x1F DUP6 ADD PUSH1 0x5 SHR DUP2 ADD PUSH1 0x20 DUP7 LT ISZERO PUSH3 0x309 JUMPI POP DUP1 JUMPDEST PUSH1 0x1F DUP6 ADD PUSH1 0x5 SHR DUP3 ADD SWAP2 POP JUMPDEST DUP2 DUP2 LT ISZERO PUSH3 0x32A JUMPI DUP3 DUP2 SSTORE PUSH1 0x1 ADD PUSH3 0x315 JUMP JUMPDEST POP POP POP JUMPDEST POP POP POP JUMP JUMPDEST DUP2 MLOAD PUSH1 0x1 PUSH1 0x1 PUSH1 0x40 SHL SUB DUP2 GT ISZERO PUSH3 0x34F JUMPI PUSH3 0x34F PUSH3 0x14F JUMP JUMPDEST PUSH3 0x367 DUP2 PUSH3 0x360 DUP5 SLOAD PUSH3 0x2A4 JUMP JUMPDEST DUP5 PUSH3 0x2E0 JUMP JUMPDEST PUSH1 0x20 DUP1 PUSH1 0x1F DUP4 GT PUSH1 0x1 DUP2 EQ PUSH3 0x39F JUMPI PUSH1 0x0 DUP5 ISZERO PUSH3 0x386 JUMPI POP DUP6 DUP4 ADD MLOAD JUMPDEST PUSH1 0x0 NOT PUSH1 0x3 DUP7 SWAP1 SHL SHR NOT AND PUSH1 0x1 DUP6 SWAP1 SHL OR DUP6 SSTORE PUSH3 0x32A JUMP JUMPDEST PUSH1 0x0 DUP6 DUP2 MSTORE PUSH1 0x20 DUP2 KECCAK256 PUSH1 0x1F NOT DUP7 AND SWAP2 JUMPDEST DUP3 DUP2 LT ISZERO PUSH3 0x3D0 JUMPI DUP9 DUP7 ADD MLOAD DUP3 SSTORE SWAP5 DUP5 ADD SWAP5 PUSH1 0x1 SWAP1 SWAP2 ADD SWAP1 DUP5 ADD PUSH3 0x3AF JUMP JUMPDEST POP DUP6 DUP3 LT ISZERO PUSH3 0x3EF JUMPI DUP8 DUP6 ADD MLOAD PUSH1 0x0 NOT PUSH1 0x3 DUP9 SWAP1 SHL PUSH1 0xF8 AND SHR NOT AND DUP2 SSTORE JUMPDEST POP POP POP POP POP PUSH1 0x1 SWAP1 DUP2 SHL ADD SWAP1 SSTORE POP JUMP JUMPDEST PUSH1 0x80 MLOAD PUSH1 0xA0 MLOAD PUSH1 0xC0 MLOAD PUSH1 0xE0 MLOAD PUSH2 0x100 MLOAD PUSH2 0x120 MLOAD PUSH2 0x140 MLOAD PUSH2 0x1B48 PUSH3 0x499 PUSH1 0x0 CODECOPY PUSH1 0x0 DUP2 DUP2 PUSH2 0x279 ADD MSTORE PUSH2 0xBC6 ADD MSTORE PUSH1 0x0 DUP2 DUP2 PUSH2 0x2A0 ADD MSTORE PUSH2 0xB97 ADD MSTORE PUSH1 0x0 DUP2 DUP2 PUSH2 0x3C4 ADD MSTORE PUSH2 0xB68 ADD MSTORE PUSH1 0x0 DUP2 DUP2 PUSH2 0x376 ADD MSTORE PUSH2 0xB39 ADD MSTORE PUSH1 0x0 DUP2 DUP2 PUSH2 0x1C1 ADD MSTORE PUSH2 0xB0A ADD MSTORE PUSH1 0x0 DUP2 DUP2 PUSH2 0x39D ADD MSTORE PUSH2 0x697 ADD MSTORE PUSH1 0x0 DUP2 DUP2 PUSH2 0x17D ADD MSTORE DUP2 DUP2 PUSH2 0x7A2 ADD MSTORE DUP2 DUP2 PUSH2 0x8E0 ADD MSTORE PUSH2 0xA37 ADD MSTORE PUSH2 0x1B48 PUSH1 0x0 RETURN INVALID PUSH1 0x80 PUSH1 0x40 MSTORE CALLVALUE DUP1 ISZERO PUSH2 0x10 JUMPI PUSH1 0x0 DUP1 REVERT JUMPDEST POP PUSH1 0x4 CALLDATASIZE LT PUSH2 0x173 JUMPI PUSH1 0x0 CALLDATALOAD PUSH1 0xE0 SHR DUP1 PUSH4 0x8C6F12F0 GT PUSH2 0xDE JUMPI DUP1 PUSH4 0xCFE3E6A0 GT PUSH2 0x97 JUMPI DUP1 PUSH4 0xEE204ABB GT PUSH2 0x71 JUMPI DUP1 PUSH4 0xEE204ABB EQ PUSH2 0x40C JUMPI DUP1 PUSH4 0xEED05DCE EQ PUSH2 0x41F JUMPI DUP1 PUSH4 0xF22ABAB4 EQ PUSH2 0x432 JUMPI DUP1 PUSH4 0xF2FDE38B EQ PUSH2 0x43A JUMPI PUSH1 0x0 DUP1 REVERT JUMPDEST DUP1 PUSH4 0xCFE3E6A0 EQ PUSH2 0x3BF JUMPI DUP1 PUSH4 0xD753A63D EQ PUSH2 0x3E6 JUMPI DUP1 PUSH4 0xE7257D22 EQ PUSH2 0x3F9 JUMPI PUSH1 0x0 DUP1 REVERT JUMPDEST DUP1 PUSH4 0x8C6F12F0 EQ PUSH2 0x315 JUMPI DUP1 PUSH4 0x8DA5CB5B EQ PUSH2 0x335 JUMPI DUP1 PUSH4 0xB1A3A35F EQ PUSH2 0x346 JUMPI DUP1 PUSH4 0xB6EBE539 EQ PUSH2 0x34E JUMPI DUP1 PUSH4 0xC47162BE EQ PUSH2 0x371 JUMPI DUP1 PUSH4 0xCEB51C41 EQ PUSH2 0x398 JUMPI PUSH1 0x0 DUP1 REVERT JUMPDEST DUP1 PUSH4 0x6538A7D9 GT PUSH2 0x130 JUMPI DUP1 PUSH4 0x6538A7D9 EQ PUSH2 0x274 JUMPI DUP1 PUSH4 0x6636114D EQ PUSH2 0x29B JUMPI DUP1 PUSH4 0x66E305FD EQ PUSH2 0x2C2 JUMPI DUP1 PUSH4 0x715018A6 EQ PUSH2 0x2D5 JUMPI DUP1 PUSH4 0x817C8966 EQ PUSH2 0x2DD JUMPI DUP1 PUSH4 0x8298B030 EQ PUSH2 0x302 JUMPI PUSH1 0x0 DUP1 REVERT JUMPDEST DUP1 PUSH4 0x4F3BCEC EQ PUSH2 0x178 JUMPI DUP1 PUSH4 0xCDCC387 EQ PUSH2 0x1BC JUMPI DUP1 PUSH4 0xEE48948 EQ PUSH2 0x1F1 JUMPI DUP1 PUSH4 0x24830563 EQ PUSH2 0x206 JUMPI DUP1 PUSH4 0x500EACE2 EQ PUSH2 0x226 JUMPI DUP1 PUSH4 0x5E50864F EQ PUSH2 0x239 JUMPI JUMPDEST PUSH1 0x0 DUP1 REVERT JUMPDEST PUSH2 0x19F PUSH32 0x0 DUP2 JUMP JUMPDEST PUSH1 0x40 MLOAD PUSH1 0x1 PUSH1 0x1 PUSH1 0xA0 SHL SUB SWAP1 SWAP2 AND DUP2 MSTORE PUSH1 0x20 ADD JUMPDEST PUSH1 0x40 MLOAD DUP1 SWAP2 SUB SWAP1 RETURN JUMPDEST PUSH2 0x1E3 PUSH32 0x0 DUP2 JUMP JUMPDEST PUSH1 0x40 MLOAD SWAP1 DUP2 MSTORE PUSH1 0x20 ADD PUSH2 0x1B3 JUMP JUMPDEST PUSH2 0x204 PUSH2 0x1FF CALLDATASIZE PUSH1 0x4 PUSH2 0x135C JUMP JUMPDEST PUSH2 0x44D JUMP JUMPDEST STOP JUMPDEST PUSH2 0x219 PUSH2 0x214 CALLDATASIZE PUSH1 0x4 PUSH2 0x1395 JUMP JUMPDEST PUSH2 0x480 JUMP JUMPDEST PUSH1 0x40 MLOAD PUSH2 0x1B3 SWAP2 SWAP1 PUSH2 0x13FE JUMP JUMPDEST PUSH2 0x219 PUSH2 0x234 CALLDATASIZE PUSH1 0x4 PUSH2 0x1411 JUMP JUMPDEST PUSH2 0x528 JUMP JUMPDEST PUSH2 0x264 PUSH2 0x247 CALLDATASIZE PUSH1 0x4 PUSH2 0x1434 JUMP JUMPDEST PUSH1 0x1 PUSH1 0x1 PUSH1 0xA0 SHL SUB AND PUSH1 0x0 SWAP1 DUP2 MSTORE PUSH1 0x1 PUSH1 0x20 MSTORE PUSH1 0x40 SWAP1 KECCAK256 SLOAD ISZERO ISZERO SWAP1 JUMP JUMPDEST PUSH1 0x40 MLOAD SWAP1 ISZERO ISZERO DUP2 MSTORE PUSH1 0x20 ADD PUSH2 0x1B3 JUMP JUMPDEST PUSH2 0x1E3 PUSH32 0x0 DUP2 JUMP JUMPDEST PUSH2 0x1E3 PUSH32 0x0 DUP2 JUMP JUMPDEST PUSH2 0x264 PUSH2 0x2D0 CALLDATASIZE PUSH1 0x4 PUSH2 0x1434 JUMP JUMPDEST PUSH2 0x66F JUMP JUMPDEST PUSH2 0x204 PUSH2 0x70B JUMP JUMPDEST PUSH2 0x2F0 PUSH2 0x2EB CALLDATASIZE PUSH1 0x4 PUSH2 0x1434 JUMP JUMPDEST PUSH2 0x71F JUMP JUMPDEST PUSH1 0x40 MLOAD PUSH1 0xFF SWAP1 SWAP2 AND DUP2 MSTORE PUSH1 0x20 ADD PUSH2 0x1B3 JUMP JUMPDEST PUSH2 0x264 PUSH2 0x310 CALLDATASIZE PUSH1 0x4 PUSH2 0x1451 JUMP JUMPDEST PUSH2 0x795 JUMP JUMPDEST PUSH2 0x328 PUSH2 0x323 CALLDATASIZE PUSH1 0x4 PUSH2 0x1395 JUMP JUMPDEST PUSH2 0x871 JUMP JUMPDEST PUSH1 0x40 MLOAD PUSH2 0x1B3 SWAP2 SWAP1 PUSH2 0x148D JUMP JUMPDEST PUSH1 0x0 SLOAD PUSH1 0x1 PUSH1 0x1 PUSH1 0xA0 SHL SUB AND PUSH2 0x19F JUMP JUMPDEST PUSH2 0x219 PUSH2 0x99C JUMP JUMPDEST PUSH2 0x264 PUSH2 0x35C CALLDATASIZE PUSH1 0x4 PUSH2 0x1434 JUMP JUMPDEST PUSH1 0x2 PUSH1 0x20 MSTORE PUSH1 0x0 SWAP1 DUP2 MSTORE PUSH1 0x40 SWAP1 KECCAK256 SLOAD PUSH1 0xFF AND DUP2 JUMP JUMPDEST PUSH2 0x1E3 PUSH32 0x0 DUP2 JUMP JUMPDEST PUSH2 0x1E3 PUSH32 0x0 DUP2 JUMP JUMPDEST PUSH2 0x1E3 PUSH32 0x0 DUP2 JUMP JUMPDEST PUSH2 0x264 PUSH2 0x3F4 CALLDATASIZE PUSH1 0x4 PUSH2 0x1451 JUMP JUMPDEST PUSH2 0xA2A JUMP JUMPDEST PUSH2 0x2F0 PUSH2 0x407 CALLDATASIZE PUSH1 0x4 PUSH2 0x1395 JUMP JUMPDEST PUSH2 0xB06 JUMP JUMPDEST PUSH2 0x1E3 PUSH2 0x41A CALLDATASIZE PUSH1 0x4 PUSH2 0x1434 JUMP JUMPDEST PUSH2 0xBFB JUMP JUMPDEST PUSH2 0x2F0 PUSH2 0x42D CALLDATASIZE PUSH1 0x4 PUSH2 0x1395 JUMP JUMPDEST PUSH2 0xC6F JUMP JUMPDEST PUSH2 0x219 PUSH2 0xC91 JUMP JUMPDEST PUSH2 0x204 PUSH2 0x448 CALLDATASIZE PUSH1 0x4 PUSH2 0x1434 JUMP JUMPDEST PUSH2 0xC9E JUMP JUMPDEST PUSH2 0x455 PUSH2 0xD17 JUMP JUMPDEST PUSH1 0x1 PUSH1 0x1 PUSH1 0xA0 SHL SUB SWAP2 SWAP1 SWAP2 AND PUSH1 0x0 SWAP1 DUP2 MSTORE PUSH1 0x2 PUSH1 0x20 MSTORE PUSH1 0x40 SWAP1 KECCAK256 DUP1 SLOAD PUSH1 0xFF NOT AND SWAP2 ISZERO ISZERO SWAP2 SWAP1 SWAP2 OR SWAP1 SSTORE JUMP JUMPDEST PUSH1 0x60 DUP2 PUSH2 0x519 JUMPI PUSH1 0x3 DUP1 SLOAD PUSH2 0x494 SWAP1 PUSH2 0x1564 JUMP JUMPDEST DUP1 PUSH1 0x1F ADD PUSH1 0x20 DUP1 SWAP2 DIV MUL PUSH1 0x20 ADD PUSH1 0x40 MLOAD SWAP1 DUP2 ADD PUSH1 0x40 MSTORE DUP1 SWAP3 SWAP2 SWAP1 DUP2 DUP2 MSTORE PUSH1 0x20 ADD DUP3 DUP1 SLOAD PUSH2 0x4C0 SWAP1 PUSH2 0x1564 JUMP JUMPDEST DUP1 ISZERO PUSH2 0x50D JUMPI DUP1 PUSH1 0x1F LT PUSH2 0x4E2 JUMPI PUSH2 0x100 DUP1 DUP4 SLOAD DIV MUL DUP4 MSTORE SWAP2 PUSH1 0x20 ADD SWAP2 PUSH2 0x50D JUMP JUMPDEST DUP3 ADD SWAP2 SWAP1 PUSH1 0x0 MSTORE PUSH1 0x20 PUSH1 0x0 KECCAK256 SWAP1 JUMPDEST DUP2 SLOAD DUP2 MSTORE SWAP1 PUSH1 0x1 ADD SWAP1 PUSH1 0x20 ADD DUP1 DUP4 GT PUSH2 0x4F0 JUMPI DUP3 SWAP1 SUB PUSH1 0x1F AND DUP3 ADD SWAP2 JUMPDEST POP POP POP POP POP SWAP1 POP SWAP2 SWAP1 POP JUMP JUMPDEST PUSH2 0x522 DUP3 PUSH2 0xD71 JUMP JUMPDEST SWAP3 SWAP2 POP POP JUMP JUMPDEST PUSH1 0x60 DUP2 PUSH1 0xFF AND PUSH1 0x0 SUB PUSH2 0x55D JUMPI POP POP PUSH1 0x40 DUP1 MLOAD DUP1 DUP3 ADD SWAP1 SWAP2 MSTORE PUSH1 0xC DUP2 MSTORE PUSH12 0x5363726F6C6C792042616279 PUSH1 0xA0 SHL PUSH1 0x20 DUP3 ADD MSTORE SWAP1 JUMP JUMPDEST DUP2 PUSH1 0xFF AND PUSH1 0x1 SUB PUSH2 0x592 JUMPI POP POP PUSH1 0x40 DUP1 MLOAD DUP1 DUP3 ADD SWAP1 SWAP2 MSTORE PUSH1 0xE DUP2 MSTORE PUSH14 0x5363726F6C6C79204E6F76696365 PUSH1 0x90 SHL PUSH1 0x20 DUP3 ADD MSTORE SWAP1 JUMP JUMPDEST DUP2 PUSH1 0xFF AND PUSH1 0x2 SUB PUSH2 0x5C9 JUMPI POP POP PUSH1 0x40 DUP1 MLOAD DUP1 DUP3 ADD SWAP1 SWAP2 MSTORE PUSH1 0x10 DUP2 MSTORE PUSH16 0x29B1B937B6363C9022BC383637B932B9 PUSH1 0x81 SHL PUSH1 0x20 DUP3 ADD MSTORE SWAP1 JUMP JUMPDEST DUP2 PUSH1 0xFF AND PUSH1 0x3 SUB PUSH2 0x5FD JUMPI POP POP PUSH1 0x40 DUP1 MLOAD DUP1 DUP3 ADD SWAP1 SWAP2 MSTORE PUSH1 0xD DUP2 MSTORE PUSH13 0x26B0B9BA32B91026B0B83832B9 PUSH1 0x99 SHL PUSH1 0x20 DUP3 ADD MSTORE SWAP1 JUMP JUMPDEST DUP2 PUSH1 0xFF AND PUSH1 0x4 SUB PUSH2 0x631 JUMPI POP POP PUSH1 0x40 DUP1 MLOAD DUP1 DUP3 ADD SWAP1 SWAP2 MSTORE PUSH1 0xD DUP2 MSTORE PUSH13 0x436172746F204D61657374726F PUSH1 0x98 SHL PUSH1 0x20 DUP3 ADD MSTORE SWAP1 JUMP JUMPDEST POP POP PUSH1 0x40 DUP1 MLOAD DUP1 DUP3 ADD SWAP1 SWAP2 MSTORE PUSH1 0x1D DUP2 MSTORE PUSH32 0x4772616E6420436172746F67726170686572206F66205363726F6C6C79000000 PUSH1 0x20 DUP3 ADD MSTORE SWAP1 JUMP JUMPDEST SWAP2 SWAP1 POP JUMP JUMPDEST PUSH1 0x4 DUP1 SLOAD PUSH1 0x40 MLOAD PUSH4 0xEE204ABB PUSH1 0xE0 SHL DUP2 MSTORE PUSH1 0x1 PUSH1 0x1 PUSH1 0xA0 SHL SUB DUP5 DUP2 AND SWAP4 DUP3 ADD SWAP4 SWAP1 SWAP4 MSTORE PUSH1 0x0 SWAP3 PUSH32 0x0 SWAP3 AND SWAP1 PUSH4 0xEE204ABB SWAP1 PUSH1 0x24 ADD PUSH1 0x20 PUSH1 0x40 MLOAD DUP1 DUP4 SUB DUP2 DUP7 GAS STATICCALL ISZERO DUP1 ISZERO PUSH2 0x6DF JUMPI RETURNDATASIZE PUSH1 0x0 DUP1 RETURNDATACOPY RETURNDATASIZE PUSH1 0x0 REVERT JUMPDEST POP POP POP POP PUSH1 0x40 MLOAD RETURNDATASIZE PUSH1 0x1F NOT PUSH1 0x1F DUP3 ADD AND DUP3 ADD DUP1 PUSH1 0x40 MSTORE POP DUP2 ADD SWAP1 PUSH2 0x703 SWAP2 SWAP1 PUSH2 0x159E JUMP JUMPDEST LT ISZERO SWAP3 SWAP2 POP POP JUMP JUMPDEST PUSH2 0x713 PUSH2 0xD17 JUMP JUMPDEST PUSH2 0x71D PUSH1 0x0 PUSH2 0xE4C JUMP JUMPDEST JUMP JUMPDEST PUSH1 0x4 DUP1 SLOAD PUSH1 0x40 MLOAD PUSH4 0xEE204ABB PUSH1 0xE0 SHL DUP2 MSTORE PUSH1 0x1 PUSH1 0x1 PUSH1 0xA0 SHL SUB DUP5 DUP2 AND SWAP4 DUP3 ADD SWAP4 SWAP1 SWAP4 MSTORE PUSH1 0x0 SWAP3 PUSH2 0x522 SWAP3 AND SWAP1 PUSH4 0xEE204ABB SWAP1 PUSH1 0x24 ADD PUSH1 0x20 PUSH1 0x40 MLOAD DUP1 DUP4 SUB DUP2 DUP7 GAS STATICCALL ISZERO DUP1 ISZERO PUSH2 0x771 JUMPI RETURNDATASIZE PUSH1 0x0 DUP1 RETURNDATACOPY RETURNDATASIZE PUSH1 0x0 REVERT JUMPDEST POP POP POP POP PUSH1 0x40 MLOAD RETURNDATASIZE PUSH1 0x1F NOT PUSH1 0x1F DUP3 ADD AND DUP3 ADD DUP1 PUSH1 0x40 MSTORE POP DUP2 ADD SWAP1 PUSH2 0x407 SWAP2 SWAP1 PUSH2 0x159E JUMP JUMPDEST PUSH1 0x0 CALLER PUSH1 0x1 PUSH1 0x1 PUSH1 0xA0 SHL SUB PUSH32 0x0 AND EQ PUSH2 0x7DF JUMPI PUSH1 0x40 MLOAD PUSH3 0x82B429 PUSH1 0xE8 SHL DUP2 MSTORE PUSH1 0x4 ADD PUSH1 0x40 MLOAD DUP1 SWAP2 SUB SWAP1 REVERT JUMPDEST PUSH2 0x7E8 DUP3 PUSH2 0xE9C JUMP JUMPDEST PUSH2 0x7F4 JUMPI POP PUSH1 0x0 SWAP2 SWAP1 POP JUMP JUMPDEST PUSH1 0x1 DUP1 PUSH1 0x0 PUSH2 0x809 PUSH1 0xE0 DUP7 ADD PUSH1 0xC0 DUP8 ADD PUSH2 0x1434 JUMP JUMPDEST PUSH1 0x1 PUSH1 0x1 PUSH1 0xA0 SHL SUB AND PUSH1 0x1 PUSH1 0x1 PUSH1 0xA0 SHL SUB AND DUP2 MSTORE PUSH1 0x20 ADD SWAP1 DUP2 MSTORE PUSH1 0x20 ADD PUSH1 0x0 KECCAK256 PUSH1 0x0 DUP3 DUP3 SLOAD PUSH2 0x838 SWAP2 SWAP1 PUSH2 0x15CD JUMP JUMPDEST SWAP1 SWAP2 SSTORE POP POP PUSH1 0x40 MLOAD DUP3 CALLDATALOAD SWAP1 PUSH32 0x504E4727721DE18C6BF7F66448A6FF6DA00AA4B1F00B6034E71723AE7CE6373A SWAP1 PUSH1 0x0 SWAP1 LOG2 POP PUSH1 0x1 SWAP2 SWAP1 POP JUMP JUMPDEST PUSH1 0x40 DUP1 MLOAD PUSH2 0x140 DUP2 ADD DUP3 MSTORE PUSH1 0x0 DUP1 DUP3 MSTORE PUSH1 0x20 DUP3 ADD DUP2 SWAP1 MSTORE DUP2 DUP4 ADD DUP2 SWAP1 MSTORE PUSH1 0x60 DUP1 DUP4 ADD DUP3 SWAP1 MSTORE PUSH1 0x80 DUP4 ADD DUP3 SWAP1 MSTORE PUSH1 0xA0 DUP4 ADD DUP3 SWAP1 MSTORE PUSH1 0xC0 DUP4 ADD DUP3 SWAP1 MSTORE PUSH1 0xE0 DUP4 ADD DUP3 SWAP1 MSTORE PUSH2 0x100 DUP4 ADD DUP3 SWAP1 MSTORE PUSH2 0x120 DUP4 ADD MSTORE SWAP2 MLOAD PUSH4 0x8C6F12F PUSH1 0xE4 SHL DUP2 MSTORE PUSH1 0x4 DUP2 ADD DUP5 SWAP1 MSTORE SWAP1 SWAP2 SWAP1 PUSH1 0x1 PUSH1 0x1 PUSH1 0xA0 SHL SUB PUSH32 0x0 AND SWAP1 PUSH4 0x8C6F12F0 SWAP1 PUSH1 0x24 ADD PUSH1 0x0 PUSH1 0x40 MLOAD DUP1 DUP4 SUB DUP2 DUP7 GAS STATICCALL ISZERO DUP1 ISZERO PUSH2 0x927 JUMPI RETURNDATASIZE PUSH1 0x0 DUP1 RETURNDATACOPY RETURNDATASIZE PUSH1 0x0 REVERT JUMPDEST POP POP POP POP PUSH1 0x40 MLOAD RETURNDATASIZE PUSH1 0x0 DUP3 RETURNDATACOPY PUSH1 0x1F RETURNDATASIZE SWAP1 DUP2 ADD PUSH1 0x1F NOT AND DUP3 ADD PUSH1 0x40 MSTORE PUSH2 0x94F SWAP2 SWAP1 DUP2 ADD SWAP1 PUSH2 0x16DF JUMP JUMPDEST SWAP1 POP PUSH1 0x0 PUSH2 0x961 DUP3 PUSH2 0x120 ADD MLOAD PUSH2 0xEA7 JUMP JUMPDEST POP SWAP1 POP PUSH1 0x1 PUSH1 0x1 PUSH1 0xA0 SHL SUB DUP2 AND ADDRESS EQ PUSH2 0x995 JUMPI PUSH1 0x40 MLOAD PUSH4 0xB923D261 PUSH1 0xE0 SHL DUP2 MSTORE PUSH1 0x4 DUP2 ADD DUP6 SWAP1 MSTORE PUSH1 0x24 ADD JUMPDEST PUSH1 0x40 MLOAD DUP1 SWAP2 SUB SWAP1 REVERT JUMPDEST POP SWAP3 SWAP2 POP POP JUMP JUMPDEST PUSH1 0x3 DUP1 SLOAD PUSH2 0x9A9 SWAP1 PUSH2 0x1564 JUMP JUMPDEST DUP1 PUSH1 0x1F ADD PUSH1 0x20 DUP1 SWAP2 DIV MUL PUSH1 0x20 ADD PUSH1 0x40 MLOAD SWAP1 DUP2 ADD PUSH1 0x40 MSTORE DUP1 SWAP3 SWAP2 SWAP1 DUP2 DUP2 MSTORE PUSH1 0x20 ADD DUP3 DUP1 SLOAD PUSH2 0x9D5 SWAP1 PUSH2 0x1564 JUMP JUMPDEST DUP1 ISZERO PUSH2 0xA22 JUMPI DUP1 PUSH1 0x1F LT PUSH2 0x9F7 JUMPI PUSH2 0x100 DUP1 DUP4 SLOAD DIV MUL DUP4 MSTORE SWAP2 PUSH1 0x20 ADD SWAP2 PUSH2 0xA22 JUMP JUMPDEST DUP3 ADD SWAP2 SWAP1 PUSH1 0x0 MSTORE PUSH1 0x20 PUSH1 0x0 KECCAK256 SWAP1 JUMPDEST DUP2 SLOAD DUP2 MSTORE SWAP1 PUSH1 0x1 ADD SWAP1 PUSH1 0x20 ADD DUP1 DUP4 GT PUSH2 0xA05 JUMPI DUP3 SWAP1 SUB PUSH1 0x1F AND DUP3 ADD SWAP2 JUMPDEST POP POP POP POP POP DUP2 JUMP JUMPDEST PUSH1 0x0 CALLER PUSH1 0x1 PUSH1 0x1 PUSH1 0xA0 SHL SUB PUSH32 0x0 AND EQ PUSH2 0xA74 JUMPI PUSH1 0x40 MLOAD PUSH3 0x82B429 PUSH1 0xE8 SHL DUP2 MSTORE PUSH1 0x4 ADD PUSH1 0x40 MLOAD DUP1 SWAP2 SUB SWAP1 REVERT JUMPDEST PUSH2 0xA7D DUP3 PUSH2 0xEC8 JUMP JUMPDEST PUSH2 0xA89 JUMPI POP PUSH1 0x0 SWAP2 SWAP1 POP JUMP JUMPDEST PUSH1 0x1 DUP1 PUSH1 0x0 PUSH2 0xA9E PUSH1 0xE0 DUP7 ADD PUSH1 0xC0 DUP8 ADD PUSH2 0x1434 JUMP JUMPDEST PUSH1 0x1 PUSH1 0x1 PUSH1 0xA0 SHL SUB AND PUSH1 0x1 PUSH1 0x1 PUSH1 0xA0 SHL SUB AND DUP2 MSTORE PUSH1 0x20 ADD SWAP1 DUP2 MSTORE PUSH1 0x20 ADD PUSH1 0x0 KECCAK256 PUSH1 0x0 DUP3 DUP3 SLOAD PUSH2 0xACD SWAP2 SWAP1 PUSH2 0x17D6 JUMP JUMPDEST SWAP1 SWAP2 SSTORE POP POP PUSH1 0x40 MLOAD DUP3 CALLDATALOAD SWAP1 PUSH32 0xA0785EC0B9BF31A5475D33C716FB9F500F0EA0BB9E4BC10EC39D5DB763C1DA15 SWAP1 PUSH1 0x0 SWAP1 LOG2 POP PUSH1 0x1 SWAP2 SWAP1 POP JUMP JUMPDEST PUSH1 0x0 PUSH32 0x0 DUP3 GT PUSH2 0xB37 JUMPI POP PUSH1 0x0 SWAP2 SWAP1 POP JUMP JUMPDEST PUSH32 0x0 DUP3 GT PUSH2 0xB66 JUMPI POP PUSH1 0x1 SWAP2 SWAP1 POP JUMP JUMPDEST PUSH32 0x0 DUP3 GT PUSH2 0xB95 JUMPI POP PUSH1 0x2 SWAP2 SWAP1 POP JUMP JUMPDEST PUSH32 0x0 DUP3 GT PUSH2 0xBC4 JUMPI POP PUSH1 0x3 SWAP2 SWAP1 POP JUMP JUMPDEST PUSH32 0x0 DUP3 GT PUSH2 0xBF3 JUMPI POP PUSH1 0x4 SWAP2 SWAP1 POP JUMP JUMPDEST POP PUSH1 0x5 SWAP2 SWAP1 POP JUMP JUMPDEST PUSH1 0x4 DUP1 SLOAD PUSH1 0x40 MLOAD PUSH4 0xEE204ABB PUSH1 0xE0 SHL DUP2 MSTORE PUSH1 0x1 PUSH1 0x1 PUSH1 0xA0 SHL SUB DUP5 DUP2 AND SWAP4 DUP3 ADD SWAP4 SWAP1 SWAP4 MSTORE PUSH1 0x0 SWAP3 SWAP1 SWAP2 AND SWAP1 PUSH4 0xEE204ABB SWAP1 PUSH1 0x24 ADD PUSH1 0x20 PUSH1 0x40 MLOAD DUP1 DUP4 SUB DUP2 DUP7 GAS STATICCALL ISZERO DUP1 ISZERO PUSH2 0xC4B JUMPI RETURNDATASIZE PUSH1 0x0 DUP1 RETURNDATACOPY RETURNDATASIZE PUSH1 0x0 REVERT JUMPDEST POP POP POP POP PUSH1 0x40 MLOAD RETURNDATASIZE PUSH1 0x1F NOT PUSH1 0x1F DUP3 ADD AND DUP3 ADD DUP1 PUSH1 0x40 MSTORE POP DUP2 ADD SWAP1 PUSH2 0x522 SWAP2 SWAP1 PUSH2 0x159E JUMP JUMPDEST PUSH1 0x0 DUP1 PUSH2 0xC7B DUP4 PUSH2 0x871 JUMP JUMPDEST SWAP1 POP PUSH2 0xC8A DUP2 PUSH1 0xC0 ADD MLOAD PUSH2 0x71F JUMP JUMPDEST SWAP4 SWAP3 POP POP POP JUMP JUMPDEST PUSH1 0x5 DUP1 SLOAD PUSH2 0x9A9 SWAP1 PUSH2 0x1564 JUMP JUMPDEST PUSH2 0xCA6 PUSH2 0xD17 JUMP JUMPDEST PUSH1 0x1 PUSH1 0x1 PUSH1 0xA0 SHL SUB DUP2 AND PUSH2 0xD0B JUMPI PUSH1 0x40 MLOAD PUSH3 0x461BCD PUSH1 0xE5 SHL DUP2 MSTORE PUSH1 0x20 PUSH1 0x4 DUP3 ADD MSTORE PUSH1 0x26 PUSH1 0x24 DUP3 ADD MSTORE PUSH32 0x4F776E61626C653A206E6577206F776E657220697320746865207A65726F2061 PUSH1 0x44 DUP3 ADD MSTORE PUSH6 0x646472657373 PUSH1 0xD0 SHL PUSH1 0x64 DUP3 ADD MSTORE PUSH1 0x84 ADD PUSH2 0x98C JUMP JUMPDEST PUSH2 0xD14 DUP2 PUSH2 0xE4C JUMP JUMPDEST POP JUMP JUMPDEST PUSH1 0x0 SLOAD PUSH1 0x1 PUSH1 0x1 PUSH1 0xA0 SHL SUB AND CALLER EQ PUSH2 0x71D JUMPI PUSH1 0x40 MLOAD PUSH3 0x461BCD PUSH1 0xE5 SHL DUP2 MSTORE PUSH1 0x20 PUSH1 0x4 DUP3 ADD DUP2 SWAP1 MSTORE PUSH1 0x24 DUP3 ADD MSTORE PUSH32 0x4F776E61626C653A2063616C6C6572206973206E6F7420746865206F776E6572 PUSH1 0x44 DUP3 ADD MSTORE PUSH1 0x64 ADD PUSH2 0x98C JUMP JUMPDEST PUSH1 0x60 PUSH1 0x0 PUSH2 0xD7E DUP4 PUSH2 0xC6F JUMP JUMPDEST SWAP1 POP PUSH1 0x0 PUSH2 0xD8E DUP3 PUSH1 0xFF AND PUSH2 0xF02 JUMP JUMPDEST PUSH1 0x40 MLOAD PUSH1 0x20 ADD PUSH2 0xD9E SWAP2 SWAP1 PUSH2 0x17E9 JUMP JUMPDEST PUSH1 0x40 MLOAD PUSH1 0x20 DUP2 DUP4 SUB SUB DUP2 MSTORE SWAP1 PUSH1 0x40 MSTORE SWAP1 POP PUSH1 0x0 PUSH2 0xDBA DUP4 PUSH2 0x528 JUMP JUMPDEST SWAP1 POP PUSH1 0x0 PUSH1 0x5 PUSH2 0xDCC DUP6 PUSH1 0xFF AND PUSH2 0xF02 JUMP JUMPDEST PUSH1 0x40 MLOAD PUSH1 0x20 ADD PUSH2 0xDDD SWAP3 SWAP2 SWAP1 PUSH2 0x1822 JUMP JUMPDEST PUSH1 0x40 MLOAD PUSH1 0x20 DUP2 DUP4 SUB SUB DUP2 MSTORE SWAP1 PUSH1 0x40 MSTORE SWAP1 POP PUSH1 0x0 PUSH2 0xE1E DUP5 DUP5 DUP5 DUP9 PUSH1 0x40 MLOAD PUSH1 0x20 ADD PUSH2 0xE0A SWAP5 SWAP4 SWAP3 SWAP2 SWAP1 PUSH2 0x191C JUMP JUMPDEST PUSH1 0x40 MLOAD PUSH1 0x20 DUP2 DUP4 SUB SUB DUP2 MSTORE SWAP1 PUSH1 0x40 MSTORE PUSH2 0xF95 JUMP JUMPDEST SWAP1 POP DUP1 PUSH1 0x40 MLOAD PUSH1 0x20 ADD PUSH2 0xE31 SWAP2 SWAP1 PUSH2 0x19E6 JUMP JUMPDEST PUSH1 0x40 MLOAD PUSH1 0x20 DUP2 DUP4 SUB SUB DUP2 MSTORE SWAP1 PUSH1 0x40 MSTORE SWAP6 POP POP POP POP POP POP SWAP2 SWAP1 POP JUMP JUMPDEST PUSH1 0x0 DUP1 SLOAD PUSH1 0x1 PUSH1 0x1 PUSH1 0xA0 SHL SUB DUP4 DUP2 AND PUSH1 0x1 PUSH1 0x1 PUSH1 0xA0 SHL SUB NOT DUP4 AND DUP2 OR DUP5 SSTORE PUSH1 0x40 MLOAD SWAP2 SWAP1 SWAP3 AND SWAP3 DUP4 SWAP2 PUSH32 0x8BE0079C531659141344CD1FD0A4F28419497F9722A3DAAFE3B4186F6B6457E0 SWAP2 SWAP1 LOG3 POP POP JUMP JUMPDEST PUSH1 0x0 PUSH2 0x522 DUP3 PUSH2 0x10E8 JUMP JUMPDEST PUSH1 0x0 PUSH1 0x60 DUP3 DUP1 PUSH1 0x20 ADD SWAP1 MLOAD DUP2 ADD SWAP1 PUSH2 0xEBF SWAP2 SWAP1 PUSH2 0x1A2B JUMP JUMPDEST SWAP2 POP SWAP2 POP SWAP2 POP SWAP2 JUMP JUMPDEST PUSH1 0x0 PUSH2 0xEDD PUSH2 0x2D0 PUSH1 0xE0 DUP5 ADD PUSH1 0xC0 DUP6 ADD PUSH2 0x1434 JUMP JUMPDEST PUSH2 0xEF9 JUMPI PUSH1 0x40 MLOAD PUSH3 0x82B429 PUSH1 0xE8 SHL DUP2 MSTORE PUSH1 0x4 ADD PUSH1 0x40 MLOAD DUP1 SWAP2 SUB SWAP1 REVERT JUMPDEST PUSH2 0x522 DUP3 PUSH2 0x10F3 JUMP JUMPDEST PUSH1 0x60 PUSH1 0x0 PUSH2 0xF0F DUP4 PUSH2 0x1162 JUMP JUMPDEST PUSH1 0x1 ADD SWAP1 POP PUSH1 0x0 DUP2 PUSH8 0xFFFFFFFFFFFFFFFF DUP2 GT ISZERO PUSH2 0xF2F JUMPI PUSH2 0xF2F PUSH2 0x15E0 JUMP JUMPDEST PUSH1 0x40 MLOAD SWAP1 DUP1 DUP3 MSTORE DUP1 PUSH1 0x1F ADD PUSH1 0x1F NOT AND PUSH1 0x20 ADD DUP3 ADD PUSH1 0x40 MSTORE DUP1 ISZERO PUSH2 0xF59 JUMPI PUSH1 0x20 DUP3 ADD DUP2 DUP1 CALLDATASIZE DUP4 CALLDATACOPY ADD SWAP1 POP JUMPDEST POP SWAP1 POP DUP2 DUP2 ADD PUSH1 0x20 ADD JUMPDEST PUSH1 0x0 NOT ADD PUSH16 0x181899199A1A9B1B9C1CB0B131B232B3 PUSH1 0x81 SHL PUSH1 0xA DUP7 MOD BYTE DUP2 MSTORE8 PUSH1 0xA DUP6 DIV SWAP5 POP DUP5 PUSH2 0xF63 JUMPI POP SWAP4 SWAP3 POP POP POP JUMP JUMPDEST PUSH1 0x60 DUP2 MLOAD PUSH1 0x0 SUB PUSH2 0xFB4 JUMPI POP POP PUSH1 0x40 DUP1 MLOAD PUSH1 0x20 DUP2 ADD SWAP1 SWAP2 MSTORE PUSH1 0x0 DUP2 MSTORE SWAP1 JUMP JUMPDEST PUSH1 0x0 PUSH1 0x40 MLOAD DUP1 PUSH1 0x60 ADD PUSH1 0x40 MSTORE DUP1 PUSH1 0x40 DUP2 MSTORE PUSH1 0x20 ADD PUSH2 0x1AD3 PUSH1 0x40 SWAP2 CODECOPY SWAP1 POP PUSH1 0x0 PUSH1 0x3 DUP5 MLOAD PUSH1 0x2 PUSH2 0xFE3 SWAP2 SWAP1 PUSH2 0x17D6 JUMP JUMPDEST PUSH2 0xFED SWAP2 SWAP1 PUSH2 0x1A7C JUMP JUMPDEST PUSH2 0xFF8 SWAP1 PUSH1 0x4 PUSH2 0x1A9E JUMP JUMPDEST PUSH8 0xFFFFFFFFFFFFFFFF DUP2 GT ISZERO PUSH2 0x1010 JUMPI PUSH2 0x1010 PUSH2 0x15E0 JUMP JUMPDEST PUSH1 0x40 MLOAD SWAP1 DUP1 DUP3 MSTORE DUP1 PUSH1 0x1F ADD PUSH1 0x1F NOT AND PUSH1 0x20 ADD DUP3 ADD PUSH1 0x40 MSTORE DUP1 ISZERO PUSH2 0x103A JUMPI PUSH1 0x20 DUP3 ADD DUP2 DUP1 CALLDATASIZE DUP4 CALLDATACOPY ADD SWAP1 POP JUMPDEST POP SWAP1 POP PUSH1 0x1 DUP3 ADD PUSH1 0x20 DUP3 ADD DUP6 DUP7 MLOAD DUP8 ADD JUMPDEST DUP1 DUP3 LT ISZERO PUSH2 0x10A6 JUMPI PUSH1 0x3 DUP3 ADD SWAP2 POP DUP2 MLOAD PUSH1 0x3F DUP2 PUSH1 0x12 SHR AND DUP6 ADD MLOAD DUP5 MSTORE8 PUSH1 0x1 DUP5 ADD SWAP4 POP PUSH1 0x3F DUP2 PUSH1 0xC SHR AND DUP6 ADD MLOAD DUP5 MSTORE8 PUSH1 0x1 DUP5 ADD SWAP4 POP PUSH1 0x3F DUP2 PUSH1 0x6 SHR AND DUP6 ADD MLOAD DUP5 MSTORE8 PUSH1 0x1 DUP5 ADD SWAP4 POP PUSH1 0x3F DUP2 AND DUP6 ADD MLOAD DUP5 MSTORE8 POP PUSH1 0x1 DUP4 ADD SWAP3 POP PUSH2 0x104B JUMP JUMPDEST POP POP PUSH1 0x3 DUP7 MLOAD MOD PUSH1 0x1 DUP2 EQ PUSH2 0x10C2 JUMPI PUSH1 0x2 DUP2 EQ PUSH2 0x10D5 JUMPI PUSH2 0x10DD JUMP JUMPDEST PUSH1 0x3D PUSH1 0x1 DUP4 SUB MSTORE8 PUSH1 0x3D PUSH1 0x2 DUP4 SUB MSTORE8 PUSH2 0x10DD JUMP JUMPDEST PUSH1 0x3D PUSH1 0x1 DUP4 SUB MSTORE8 JUMPDEST POP SWAP2 SWAP6 SWAP5 POP POP POP POP POP JUMP JUMPDEST PUSH1 0x0 PUSH2 0x522 DUP3 PUSH2 0x123A JUMP JUMPDEST PUSH1 0x0 PUSH2 0x10FE DUP3 PUSH2 0x1245 JUMP JUMPDEST PUSH2 0x110A JUMPI POP PUSH1 0x0 SWAP2 SWAP1 POP JUMP JUMPDEST PUSH2 0x111B PUSH2 0x100 DUP4 ADD PUSH1 0xE0 DUP5 ADD PUSH2 0x1434 JUMP JUMPDEST PUSH1 0x1 PUSH1 0x1 PUSH1 0xA0 SHL SUB AND PUSH2 0x1134 PUSH1 0xE0 DUP5 ADD PUSH1 0xC0 DUP6 ADD PUSH2 0x1434 JUMP JUMPDEST PUSH1 0x1 PUSH1 0x1 PUSH1 0xA0 SHL SUB AND EQ PUSH2 0x115A JUMPI PUSH1 0x40 MLOAD PUSH3 0x82B429 PUSH1 0xE8 SHL DUP2 MSTORE PUSH1 0x4 ADD PUSH1 0x40 MLOAD DUP1 SWAP2 SUB SWAP1 REVERT JUMPDEST POP PUSH1 0x1 SWAP2 SWAP1 POP JUMP JUMPDEST PUSH1 0x0 DUP1 PUSH19 0x184F03E93FF9F4DAA797ED6E38ED64BF6A1F01 PUSH1 0x40 SHL DUP4 LT PUSH2 0x11A1 JUMPI PUSH19 0x184F03E93FF9F4DAA797ED6E38ED64BF6A1F01 PUSH1 0x40 SHL DUP4 DIV SWAP3 POP PUSH1 0x40 ADD JUMPDEST PUSH14 0x4EE2D6D415B85ACEF8100000000 DUP4 LT PUSH2 0x11CD JUMPI PUSH14 0x4EE2D6D415B85ACEF8100000000 DUP4 DIV SWAP3 POP PUSH1 0x20 ADD JUMPDEST PUSH7 0x2386F26FC10000 DUP4 LT PUSH2 0x11EB JUMPI PUSH7 0x2386F26FC10000 DUP4 DIV SWAP3 POP PUSH1 0x10 ADD JUMPDEST PUSH4 0x5F5E100 DUP4 LT PUSH2 0x1203 JUMPI PUSH4 0x5F5E100 DUP4 DIV SWAP3 POP PUSH1 0x8 ADD JUMPDEST PUSH2 0x2710 DUP4 LT PUSH2 0x1217 JUMPI PUSH2 0x2710 DUP4 DIV SWAP3 POP PUSH1 0x4 ADD JUMPDEST PUSH1 0x64 DUP4 LT PUSH2 0x1229 JUMPI PUSH1 0x64 DUP4 DIV SWAP3 POP PUSH1 0x2 ADD JUMPDEST PUSH1 0xA DUP4 LT PUSH2 0x522 JUMPI PUSH1 0x1 ADD SWAP3 SWAP2 POP POP JUMP JUMPDEST PUSH1 0x0 PUSH2 0x522 DUP3 PUSH2 0x128D JUMP JUMPDEST PUSH1 0x0 PUSH2 0x1250 DUP3 PUSH2 0x1298 JUMP JUMPDEST PUSH2 0x125C JUMPI POP PUSH1 0x0 SWAP2 SWAP1 POP JUMP JUMPDEST PUSH2 0x126F PUSH2 0x247 PUSH1 0xE0 DUP5 ADD PUSH1 0xC0 DUP6 ADD PUSH2 0x1434 JUMP JUMPDEST ISZERO PUSH2 0x115A JUMPI PUSH1 0x40 MLOAD PUSH4 0xC593119 PUSH1 0xE1 SHL DUP2 MSTORE PUSH1 0x4 ADD PUSH1 0x40 MLOAD DUP1 SWAP2 SUB SWAP1 REVERT JUMPDEST PUSH1 0x0 PUSH2 0x522 DUP3 PUSH2 0x12E9 JUMP JUMPDEST PUSH1 0x0 PUSH2 0x12A3 DUP3 PUSH2 0x12E9 JUMP JUMPDEST PUSH2 0x12AF JUMPI POP PUSH1 0x0 SWAP2 SWAP1 POP JUMP JUMPDEST PUSH1 0x0 PUSH2 0x12C1 PUSH1 0x80 DUP5 ADD PUSH1 0x60 DUP6 ADD PUSH2 0x1AB5 JUMP JUMPDEST PUSH8 0xFFFFFFFFFFFFFFFF AND EQ PUSH2 0x115A JUMPI PUSH1 0x40 MLOAD PUSH4 0x7BFD8653 PUSH1 0xE1 SHL DUP2 MSTORE PUSH1 0x4 ADD PUSH1 0x40 MLOAD DUP1 SWAP2 SUB SWAP1 REVERT JUMPDEST PUSH1 0x0 PUSH1 0x2 PUSH1 0x0 PUSH2 0x1300 PUSH2 0x100 DUP6 ADD PUSH1 0xE0 DUP7 ADD PUSH2 0x1434 JUMP JUMPDEST PUSH1 0x1 PUSH1 0x1 PUSH1 0xA0 SHL SUB AND DUP2 MSTORE PUSH1 0x20 DUP2 ADD SWAP2 SWAP1 SWAP2 MSTORE PUSH1 0x40 ADD PUSH1 0x0 KECCAK256 SLOAD PUSH1 0xFF AND PUSH2 0x115A JUMPI PUSH1 0x40 MLOAD PUSH3 0x82B429 PUSH1 0xE8 SHL DUP2 MSTORE PUSH1 0x4 ADD PUSH1 0x40 MLOAD DUP1 SWAP2 SUB SWAP1 REVERT JUMPDEST PUSH1 0x1 PUSH1 0x1 PUSH1 0xA0 SHL SUB DUP2 AND DUP2 EQ PUSH2 0xD14 JUMPI PUSH1 0x0 DUP1 REVERT JUMPDEST DUP1 ISZERO ISZERO DUP2 EQ PUSH2 0xD14 JUMPI PUSH1 0x0 DUP1 REVERT JUMPDEST PUSH1 0x0 DUP1 PUSH1 0x40 DUP4 DUP6 SUB SLT ISZERO PUSH2 0x136F JUMPI PUSH1 0x0 DUP1 REVERT JUMPDEST DUP3 CALLDATALOAD PUSH2 0x137A DUP2 PUSH2 0x1339 JUMP JUMPDEST SWAP2 POP PUSH1 0x20 DUP4 ADD CALLDATALOAD PUSH2 0x138A DUP2 PUSH2 0x134E JUMP JUMPDEST DUP1 SWAP2 POP POP SWAP3 POP SWAP3 SWAP1 POP JUMP JUMPDEST PUSH1 0x0 PUSH1 0x20 DUP3 DUP5 SUB SLT ISZERO PUSH2 0x13A7 JUMPI PUSH1 0x0 DUP1 REVERT JUMPDEST POP CALLDATALOAD SWAP2 SWAP1 POP JUMP JUMPDEST PUSH1 0x0 JUMPDEST DUP4 DUP2 LT ISZERO PUSH2 0x13C9 JUMPI DUP2 DUP2 ADD MLOAD DUP4 DUP3 ADD MSTORE PUSH1 0x20 ADD PUSH2 0x13B1 JUMP JUMPDEST POP POP PUSH1 0x0 SWAP2 ADD MSTORE JUMP JUMPDEST PUSH1 0x0 DUP2 MLOAD DUP1 DUP5 MSTORE PUSH2 0x13EA DUP2 PUSH1 0x20 DUP7 ADD PUSH1 0x20 DUP7 ADD PUSH2 0x13AE JUMP JUMPDEST PUSH1 0x1F ADD PUSH1 0x1F NOT AND SWAP3 SWAP1 SWAP3 ADD PUSH1 0x20 ADD SWAP3 SWAP2 POP POP JUMP JUMPDEST PUSH1 0x20 DUP2 MSTORE PUSH1 0x0 PUSH2 0xC8A PUSH1 0x20 DUP4 ADD DUP5 PUSH2 0x13D2 JUMP JUMPDEST PUSH1 0x0 PUSH1 0x20 DUP3 DUP5 SUB SLT ISZERO PUSH2 0x1423 JUMPI PUSH1 0x0 DUP1 REVERT JUMPDEST DUP2 CALLDATALOAD PUSH1 0xFF DUP2 AND DUP2 EQ PUSH2 0xC8A JUMPI PUSH1 0x0 DUP1 REVERT JUMPDEST PUSH1 0x0 PUSH1 0x20 DUP3 DUP5 SUB SLT ISZERO PUSH2 0x1446 JUMPI PUSH1 0x0 DUP1 REVERT JUMPDEST DUP2 CALLDATALOAD PUSH2 0xC8A DUP2 PUSH2 0x1339 JUMP JUMPDEST PUSH1 0x0 PUSH1 0x20 DUP3 DUP5 SUB SLT ISZERO PUSH2 0x1463 JUMPI PUSH1 0x0 DUP1 REVERT JUMPDEST DUP2 CALLDATALOAD PUSH8 0xFFFFFFFFFFFFFFFF DUP2 GT ISZERO PUSH2 0x147A JUMPI PUSH1 0x0 DUP1 REVERT JUMPDEST DUP3 ADD PUSH2 0x140 DUP2 DUP6 SUB SLT ISZERO PUSH2 0xC8A JUMPI PUSH1 0x0 DUP1 REVERT JUMPDEST PUSH1 0x20 DUP2 MSTORE DUP2 MLOAD PUSH1 0x20 DUP3 ADD MSTORE PUSH1 0x20 DUP3 ADD MLOAD PUSH1 0x40 DUP3 ADD MSTORE PUSH1 0x0 PUSH1 0x40 DUP4 ADD MLOAD PUSH2 0x14BF PUSH1 0x60 DUP5 ADD DUP3 PUSH8 0xFFFFFFFFFFFFFFFF AND SWAP1 MSTORE JUMP JUMPDEST POP PUSH1 0x60 DUP4 ADD MLOAD PUSH8 0xFFFFFFFFFFFFFFFF DUP2 AND PUSH1 0x80 DUP5 ADD MSTORE POP PUSH1 0x80 DUP4 ADD MLOAD PUSH8 0xFFFFFFFFFFFFFFFF DUP2 AND PUSH1 0xA0 DUP5 ADD MSTORE POP PUSH1 0xA0 DUP4 ADD MLOAD PUSH1 0xC0 DUP4 ADD MSTORE PUSH1 0xC0 DUP4 ADD MLOAD PUSH2 0x1510 PUSH1 0xE0 DUP5 ADD DUP3 PUSH1 0x1 PUSH1 0x1 PUSH1 0xA0 SHL SUB AND SWAP1 MSTORE JUMP JUMPDEST POP PUSH1 0xE0 DUP4 ADD MLOAD PUSH2 0x100 PUSH2 0x152D DUP2 DUP6 ADD DUP4 PUSH1 0x1 PUSH1 0x1 PUSH1 0xA0 SHL SUB AND SWAP1 MSTORE JUMP JUMPDEST DUP5 ADD MLOAD SWAP1 POP PUSH2 0x120 PUSH2 0x1542 DUP5 DUP3 ADD DUP4 ISZERO ISZERO SWAP1 MSTORE JUMP JUMPDEST DUP5 ADD MLOAD PUSH2 0x140 DUP5 DUP2 ADD MSTORE SWAP1 POP PUSH2 0x155C PUSH2 0x160 DUP5 ADD DUP3 PUSH2 0x13D2 JUMP JUMPDEST SWAP5 SWAP4 POP POP POP POP JUMP JUMPDEST PUSH1 0x1 DUP2 DUP2 SHR SWAP1 DUP3 AND DUP1 PUSH2 0x1578 JUMPI PUSH1 0x7F DUP3 AND SWAP2 POP JUMPDEST PUSH1 0x20 DUP3 LT DUP2 SUB PUSH2 0x1598 JUMPI PUSH4 0x4E487B71 PUSH1 0xE0 SHL PUSH1 0x0 MSTORE PUSH1 0x22 PUSH1 0x4 MSTORE PUSH1 0x24 PUSH1 0x0 REVERT JUMPDEST POP SWAP2 SWAP1 POP JUMP JUMPDEST PUSH1 0x0 PUSH1 0x20 DUP3 DUP5 SUB SLT ISZERO PUSH2 0x15B0 JUMPI PUSH1 0x0 DUP1 REVERT JUMPDEST POP MLOAD SWAP2 SWAP1 POP JUMP JUMPDEST PUSH4 0x4E487B71 PUSH1 0xE0 SHL PUSH1 0x0 MSTORE PUSH1 0x11 PUSH1 0x4 MSTORE PUSH1 0x24 PUSH1 0x0 REVERT JUMPDEST DUP2 DUP2 SUB DUP2 DUP2 GT ISZERO PUSH2 0x522 JUMPI PUSH2 0x522 PUSH2 0x15B7 JUMP JUMPDEST PUSH4 0x4E487B71 PUSH1 0xE0 SHL PUSH1 0x0 MSTORE PUSH1 0x41 PUSH1 0x4 MSTORE PUSH1 0x24 PUSH1 0x0 REVERT JUMPDEST PUSH1 0x40 MLOAD PUSH2 0x140 DUP2 ADD PUSH8 0xFFFFFFFFFFFFFFFF DUP2 GT DUP3 DUP3 LT OR ISZERO PUSH2 0x161A JUMPI PUSH2 0x161A PUSH2 0x15E0 JUMP JUMPDEST PUSH1 0x40 MSTORE SWAP1 JUMP JUMPDEST PUSH8 0xFFFFFFFFFFFFFFFF DUP2 AND DUP2 EQ PUSH2 0xD14 JUMPI PUSH1 0x0 DUP1 REVERT JUMPDEST DUP1 MLOAD PUSH2 0x66A DUP2 PUSH2 0x1620 JUMP JUMPDEST DUP1 MLOAD PUSH2 0x66A DUP2 PUSH2 0x1339 JUMP JUMPDEST DUP1 MLOAD PUSH2 0x66A DUP2 PUSH2 0x134E JUMP JUMPDEST PUSH1 0x0 DUP3 PUSH1 0x1F DUP4 ADD SLT PUSH2 0x1668 JUMPI PUSH1 0x0 DUP1 REVERT JUMPDEST DUP2 MLOAD PUSH8 0xFFFFFFFFFFFFFFFF DUP1 DUP3 GT ISZERO PUSH2 0x1683 JUMPI PUSH2 0x1683 PUSH2 0x15E0 JUMP JUMPDEST PUSH1 0x40 MLOAD PUSH1 0x1F DUP4 ADD PUSH1 0x1F NOT SWAP1 DUP2 AND PUSH1 0x3F ADD AND DUP2 ADD SWAP1 DUP3 DUP3 GT DUP2 DUP4 LT OR ISZERO PUSH2 0x16AB JUMPI PUSH2 0x16AB PUSH2 0x15E0 JUMP JUMPDEST DUP2 PUSH1 0x40 MSTORE DUP4 DUP2 MSTORE DUP7 PUSH1 0x20 DUP6 DUP9 ADD ADD GT ISZERO PUSH2 0x16C4 JUMPI PUSH1 0x0 DUP1 REVERT JUMPDEST PUSH2 0x16D5 DUP5 PUSH1 0x20 DUP4 ADD PUSH1 0x20 DUP10 ADD PUSH2 0x13AE JUMP JUMPDEST SWAP7 SWAP6 POP POP POP POP POP POP JUMP JUMPDEST PUSH1 0x0 PUSH1 0x20 DUP3 DUP5 SUB SLT ISZERO PUSH2 0x16F1 JUMPI PUSH1 0x0 DUP1 REVERT JUMPDEST DUP2 MLOAD PUSH8 0xFFFFFFFFFFFFFFFF DUP1 DUP3 GT ISZERO PUSH2 0x1709 JUMPI PUSH1 0x0 DUP1 REVERT JUMPDEST SWAP1 DUP4 ADD SWAP1 PUSH2 0x140 DUP3 DUP7 SUB SLT ISZERO PUSH2 0x171E JUMPI PUSH1 0x0 DUP1 REVERT JUMPDEST PUSH2 0x1726 PUSH2 0x15F6 JUMP JUMPDEST DUP3 MLOAD DUP2 MSTORE PUSH1 0x20 DUP4 ADD MLOAD PUSH1 0x20 DUP3 ADD MSTORE PUSH2 0x1740 PUSH1 0x40 DUP5 ADD PUSH2 0x1636 JUMP JUMPDEST PUSH1 0x40 DUP3 ADD MSTORE PUSH2 0x1751 PUSH1 0x60 DUP5 ADD PUSH2 0x1636 JUMP JUMPDEST PUSH1 0x60 DUP3 ADD MSTORE PUSH2 0x1762 PUSH1 0x80 DUP5 ADD PUSH2 0x1636 JUMP JUMPDEST PUSH1 0x80 DUP3 ADD MSTORE PUSH1 0xA0 DUP4 ADD MLOAD PUSH1 0xA0 DUP3 ADD MSTORE PUSH2 0x177D PUSH1 0xC0 DUP5 ADD PUSH2 0x1641 JUMP JUMPDEST PUSH1 0xC0 DUP3 ADD MSTORE PUSH2 0x178E PUSH1 0xE0 DUP5 ADD PUSH2 0x1641 JUMP JUMPDEST PUSH1 0xE0 DUP3 ADD MSTORE PUSH2 0x100 PUSH2 0x17A1 DUP2 DUP6 ADD PUSH2 0x164C JUMP JUMPDEST SWAP1 DUP3 ADD MSTORE PUSH2 0x120 DUP4 DUP2 ADD MLOAD DUP4 DUP2 GT ISZERO PUSH2 0x17B9 JUMPI PUSH1 0x0 DUP1 REVERT JUMPDEST PUSH2 0x17C5 DUP9 DUP3 DUP8 ADD PUSH2 0x1657 JUMP JUMPDEST SWAP2 DUP4 ADD SWAP2 SWAP1 SWAP2 MSTORE POP SWAP6 SWAP5 POP POP POP POP POP JUMP JUMPDEST DUP1 DUP3 ADD DUP1 DUP3 GT ISZERO PUSH2 0x522 JUMPI PUSH2 0x522 PUSH2 0x15B7 JUMP JUMPDEST PUSH1 0x40 DUP2 MSTORE PUSH1 0xF PUSH1 0x40 DUP3 ADD MSTORE PUSH15 0x5363726F6C6C79204C6576656C2023 PUSH1 0x88 SHL PUSH1 0x60 DUP3 ADD MSTORE PUSH1 0x80 PUSH1 0x20 DUP3 ADD MSTORE PUSH1 0x0 PUSH2 0xC8A PUSH1 0x80 DUP4 ADD DUP5 PUSH2 0x13D2 JUMP JUMPDEST PUSH1 0x80 DUP2 MSTORE PUSH1 0x0 DUP1 DUP5 SLOAD DUP2 PUSH1 0x1 DUP3 DUP2 SHR SWAP2 POP DUP1 DUP4 AND DUP1 PUSH2 0x1842 JUMPI PUSH1 0x7F DUP4 AND SWAP3 POP JUMPDEST PUSH1 0x20 DUP1 DUP5 LT DUP3 SUB PUSH2 0x1861 JUMPI PUSH4 0x4E487B71 PUSH1 0xE0 SHL DUP7 MSTORE PUSH1 0x22 PUSH1 0x4 MSTORE PUSH1 0x24 DUP7 REVERT JUMPDEST PUSH1 0x80 DUP9 ADD DUP5 SWAP1 MSTORE PUSH1 0xA0 DUP9 ADD DUP3 DUP1 ISZERO PUSH2 0x1880 JUMPI PUSH1 0x1 DUP2 EQ PUSH2 0x1896 JUMPI PUSH2 0x18C1 JUMP JUMPDEST PUSH1 0xFF NOT DUP8 AND DUP3 MSTORE DUP6 ISZERO ISZERO PUSH1 0x5 SHL DUP3 ADD SWAP8 POP PUSH2 0x18C1 JUMP JUMPDEST PUSH1 0x0 DUP13 DUP2 MSTORE PUSH1 0x20 SWAP1 KECCAK256 PUSH1 0x0 JUMPDEST DUP8 DUP2 LT ISZERO PUSH2 0x18BB JUMPI DUP2 SLOAD DUP5 DUP3 ADD MSTORE SWAP1 DUP7 ADD SWAP1 DUP5 ADD PUSH2 0x18A2 JUMP JUMPDEST DUP4 ADD SWAP9 POP POP JUMPDEST POP POP DUP8 DUP7 SUB SWAP1 DUP9 ADD MSTORE POP POP PUSH1 0x1 DUP4 MSTORE POP POP PUSH1 0x2F PUSH1 0xF8 SHL PUSH1 0x20 DUP3 ADD MSTORE PUSH1 0x40 DUP2 ADD SWAP1 POP DUP3 DUP2 SUB PUSH1 0x40 DUP5 ADD MSTORE PUSH2 0x18F4 DUP2 DUP6 PUSH2 0x13D2 JUMP JUMPDEST DUP4 DUP2 SUB PUSH1 0x60 DUP6 ADD MSTORE PUSH1 0x4 DUP2 MSTORE PUSH4 0x2E706E67 PUSH1 0xE0 SHL PUSH1 0x20 DUP3 ADD MSTORE SWAP1 POP PUSH1 0x40 DUP2 ADD SWAP6 SWAP5 POP POP POP POP POP JUMP JUMPDEST PUSH9 0x3D913730B6B2911D11 PUSH1 0xB9 SHL DUP2 MSTORE DUP5 MLOAD PUSH1 0x0 SWAP1 PUSH2 0x1941 DUP2 PUSH1 0x9 DUP6 ADD PUSH1 0x20 DUP11 ADD PUSH2 0x13AE JUMP JUMPDEST PUSH18 0x111610113232B9B1B934B83A34B7B7111D11 PUSH1 0x71 SHL PUSH1 0x9 SWAP2 DUP5 ADD SWAP2 DUP3 ADD MSTORE DUP6 MLOAD PUSH2 0x1973 DUP2 PUSH1 0x1B DUP5 ADD PUSH1 0x20 DUP11 ADD PUSH2 0x13AE JUMP JUMPDEST PUSH12 0x16101134B6B0B3B2911D1011 PUSH1 0xA1 SHL PUSH1 0x1B SWAP3 SWAP1 SWAP2 ADD SWAP2 DUP3 ADD MSTORE DUP5 MLOAD PUSH2 0x19A0 DUP2 PUSH1 0x27 DUP5 ADD PUSH1 0x20 DUP10 ADD PUSH2 0x13AE JUMP JUMPDEST PUSH12 0x1610113632BB32B6111D1011 PUSH1 0xA1 SHL PUSH1 0x27 SWAP3 SWAP1 SWAP2 ADD SWAP2 DUP3 ADD MSTORE PUSH1 0xF8 SWAP4 SWAP1 SWAP4 SHL PUSH1 0x1 PUSH1 0x1 PUSH1 0xF8 SHL SUB NOT AND PUSH1 0x33 DUP5 ADD MSTORE POP POP PUSH2 0x227D PUSH1 0xF0 SHL PUSH1 0x34 DUP3 ADD MSTORE PUSH1 0x36 ADD SWAP4 SWAP3 POP POP POP JUMP JUMPDEST PUSH32 0x646174613A6170706C69636174696F6E2F6A736F6E3B6261736536342C000000 DUP2 MSTORE PUSH1 0x0 DUP3 MLOAD PUSH2 0x1A1E DUP2 PUSH1 0x1D DUP6 ADD PUSH1 0x20 DUP8 ADD PUSH2 0x13AE JUMP JUMPDEST SWAP2 SWAP1 SWAP2 ADD PUSH1 0x1D ADD SWAP3 SWAP2 POP POP JUMP JUMPDEST PUSH1 0x0 DUP1 PUSH1 0x40 DUP4 DUP6 SUB SLT ISZERO PUSH2 0x1A3E JUMPI PUSH1 0x0 DUP1 REVERT JUMPDEST DUP3 MLOAD PUSH2 0x1A49 DUP2 PUSH2 0x1339 JUMP JUMPDEST PUSH1 0x20 DUP5 ADD MLOAD SWAP1 SWAP3 POP PUSH8 0xFFFFFFFFFFFFFFFF DUP2 GT ISZERO PUSH2 0x1A66 JUMPI PUSH1 0x0 DUP1 REVERT JUMPDEST PUSH2 0x1A72 DUP6 DUP3 DUP7 ADD PUSH2 0x1657 JUMP JUMPDEST SWAP2 POP POP SWAP3 POP SWAP3 SWAP1 POP JUMP JUMPDEST PUSH1 0x0 DUP3 PUSH2 0x1A99 JUMPI PUSH4 0x4E487B71 PUSH1 0xE0 SHL PUSH1 0x0 MSTORE PUSH1 0x12 PUSH1 0x4 MSTORE PUSH1 0x24 PUSH1 0x0 REVERT JUMPDEST POP DIV SWAP1 JUMP JUMPDEST DUP1 DUP3 MUL DUP2 ISZERO DUP3 DUP3 DIV DUP5 EQ OR PUSH2 0x522 JUMPI PUSH2 0x522 PUSH2 0x15B7 JUMP JUMPDEST PUSH1 0x0 PUSH1 0x20 DUP3 DUP5 SUB SLT ISZERO PUSH2 0x1AC7 JUMPI PUSH1 0x0 DUP1 REVERT JUMPDEST DUP2 CALLDATALOAD PUSH2 0xC8A DUP2 PUSH2 0x1620 JUMP INVALID COINBASE TIMESTAMP NUMBER PREVRANDAO GASLIMIT CHAINID SELFBALANCE BASEFEE 0x49 0x4A 0x4B 0x4C 0x4D 0x4E 0x4F POP MLOAD MSTORE MSTORE8 SLOAD SSTORE JUMP JUMPI PC MSIZE GAS PUSH2 0x6263 PUSH5 0x6566676869 PUSH11 0x6B6C6D6E6F707172737475 PUSH23 0x7778797A303132333435363738392B2FA2646970667358 0x22 SLT KECCAK256 TIMESTAMP EXTCODECOPY JUMPDEST 0xAD PUSH17 0x722303210D610CCAA123C16E2279337753 RETURN PUSH17 0x234000174828B55E64736F6C6343000813 STOP CALLER "},"methodIdentifiers":{"MINIMUM_POINTS_ELIGIBILITY()":"ceb51c41","MINIMUM_POINTS_LEVEL_0()":"0cdcc387","MINIMUM_POINTS_LEVEL_1()":"c47162be","MINIMUM_POINTS_LEVEL_2()":"cfe3e6a0","MINIMUM_POINTS_LEVEL_3()":"6636114d","MINIMUM_POINTS_LEVEL_4()":"6538a7d9","badgeTokenURI(bytes32)":"24830563","baseBadgeURI()":"f22abab4","defaultBadgeURI()":"b1a3a35f","determineBadgeLevel(uint256)":"e7257d22","getAndValidateBadge(bytes32)":"8c6f12f0","getCurrentLevel(bytes32)":"eed05dce","getLevel(address)":"817c8966","getLevelDescription(uint8)":"500eace2","getPoints(address)":"ee204abb","hasBadge(address)":"5e50864f","isAttester(address)":"b6ebe539","isEligible(address)":"66e305fd","issueBadge((bytes32,bytes32,uint64,uint64,uint64,bytes32,address,address,bool,bytes))":"d753a63d","owner()":"8da5cb5b","renounceOwnership()":"715018a6","resolver()":"04f3bcec","revokeBadge((bytes32,bytes32,uint64,uint64,uint64,bytes32,address,address,bool,bytes))":"8298b030","toggleAttester(address,bool)":"0ee48948","transferOwnership(address)":"f2fde38b"}}}}}