{
  "_format": "hh-sol-artifact-1",
  "contractName": "Profile",
  "sourceName": "src/profile/Profile.sol",
  "abi": [
    {
      "inputs": [
        {
          "internalType": "address",
          "name": "resolver_",
          "type": "address"
        }
      ],
      "stateMutability": "nonpayable",
      "type": "constructor"
    },
    {
      "inputs": [
        {
          "internalType": "bytes32",
          "name": "uid",
          "type": "bytes32"
        }
      ],
      "name": "AttestationOwnerMismatch",
      "type": "error"
    },
    {
      "inputs": [],
      "name": "BadgeCountReached",
      "type": "error"
    },
    {
      "inputs": [],
      "name": "LengthMismatch",
      "type": "error"
    },
    {
      "inputs": [
        {
          "internalType": "address",
          "name": "token",
          "type": "address"
        },
        {
          "internalType": "uint256",
          "name": "tokenId",
          "type": "uint256"
        }
      ],
      "name": "TokenNotOwnedByUser",
      "type": "error"
    },
    {
      "inputs": [],
      "name": "Unauthorized",
      "type": "error"
    },
    {
      "anonymous": false,
      "inputs": [
        {
          "indexed": false,
          "internalType": "uint8",
          "name": "version",
          "type": "uint8"
        }
      ],
      "name": "Initialized",
      "type": "event"
    },
    {
      "inputs": [
        {
          "internalType": "bytes32[]",
          "name": "_uids",
          "type": "bytes32[]"
        }
      ],
      "name": "attach",
      "outputs": [],
      "stateMutability": "nonpayable",
      "type": "function"
    },
    {
      "inputs": [
        {
          "internalType": "bytes32",
          "name": "_uid",
          "type": "bytes32"
        }
      ],
      "name": "autoAttach",
      "outputs": [],
      "stateMutability": "nonpayable",
      "type": "function"
    },
    {
      "inputs": [],
      "name": "avatar",
      "outputs": [
        {
          "internalType": "address",
          "name": "token",
          "type": "address"
        },
        {
          "internalType": "uint256",
          "name": "tokenId",
          "type": "uint256"
        }
      ],
      "stateMutability": "view",
      "type": "function"
    },
    {
      "inputs": [
        {
          "internalType": "address",
          "name": "token",
          "type": "address"
        },
        {
          "internalType": "uint256",
          "name": "tokenId",
          "type": "uint256"
        }
      ],
      "name": "changeAvatar",
      "outputs": [],
      "stateMutability": "nonpayable",
      "type": "function"
    },
    {
      "inputs": [
        {
          "internalType": "string",
          "name": "newUsername",
          "type": "string"
        }
      ],
      "name": "changeUsername",
      "outputs": [],
      "stateMutability": "nonpayable",
      "type": "function"
    },
    {
      "inputs": [
        {
          "internalType": "bytes32[]",
          "name": "_uids",
          "type": "bytes32[]"
        }
      ],
      "name": "detach",
      "outputs": [],
      "stateMutability": "nonpayable",
      "type": "function"
    },
    {
      "inputs": [
        {
          "internalType": "bytes32",
          "name": "uid",
          "type": "bytes32"
        }
      ],
      "name": "getAndValidateBadge",
      "outputs": [
        {
          "components": [
            {
              "internalType": "bytes32",
              "name": "uid",
              "type": "bytes32"
            },
            {
              "internalType": "bytes32",
              "name": "schema",
              "type": "bytes32"
            },
            {
              "internalType": "uint64",
              "name": "time",
              "type": "uint64"
            },
            {
              "internalType": "uint64",
              "name": "expirationTime",
              "type": "uint64"
            },
            {
              "internalType": "uint64",
              "name": "revocationTime",
              "type": "uint64"
            },
            {
              "internalType": "bytes32",
              "name": "refUID",
              "type": "bytes32"
            },
            {
              "internalType": "address",
              "name": "recipient",
              "type": "address"
            },
            {
              "internalType": "address",
              "name": "attester",
              "type": "address"
            },
            {
              "internalType": "bool",
              "name": "revocable",
              "type": "bool"
            },
            {
              "internalType": "bytes",
              "name": "data",
              "type": "bytes"
            }
          ],
          "internalType": "struct Attestation",
          "name": "",
          "type": "tuple"
        }
      ],
      "stateMutability": "view",
      "type": "function"
    },
    {
      "inputs": [],
      "name": "getAttachedBadges",
      "outputs": [
        {
          "internalType": "bytes32[]",
          "name": "",
          "type": "bytes32[]"
        }
      ],
      "stateMutability": "view",
      "type": "function"
    },
    {
      "inputs": [],
      "name": "getAvatar",
      "outputs": [
        {
          "internalType": "string",
          "name": "",
          "type": "string"
        }
      ],
      "stateMutability": "view",
      "type": "function"
    },
    {
      "inputs": [],
      "name": "getBadgeOrder",
      "outputs": [
        {
          "internalType": "uint256[]",
          "name": "",
          "type": "uint256[]"
        }
      ],
      "stateMutability": "view",
      "type": "function"
    },
    {
      "inputs": [],
      "name": "getValidBadges",
      "outputs": [
        {
          "internalType": "bytes32[]",
          "name": "",
          "type": "bytes32[]"
        }
      ],
      "stateMutability": "view",
      "type": "function"
    },
    {
      "inputs": [
        {
          "internalType": "address",
          "name": "owner_",
          "type": "address"
        },
        {
          "internalType": "string",
          "name": "username_",
          "type": "string"
        }
      ],
      "name": "initialize",
      "outputs": [],
      "stateMutability": "nonpayable",
      "type": "function"
    },
    {
      "inputs": [
        {
          "internalType": "bytes32",
          "name": "uid",
          "type": "bytes32"
        }
      ],
      "name": "isBadgeValid",
      "outputs": [
        {
          "internalType": "bool",
          "name": "",
          "type": "bool"
        }
      ],
      "stateMutability": "view",
      "type": "function"
    },
    {
      "inputs": [
        {
          "internalType": "bytes[]",
          "name": "data",
          "type": "bytes[]"
        }
      ],
      "name": "multicall",
      "outputs": [
        {
          "internalType": "bytes[]",
          "name": "results",
          "type": "bytes[]"
        }
      ],
      "stateMutability": "nonpayable",
      "type": "function"
    },
    {
      "inputs": [],
      "name": "owner",
      "outputs": [
        {
          "internalType": "address",
          "name": "",
          "type": "address"
        }
      ],
      "stateMutability": "view",
      "type": "function"
    },
    {
      "inputs": [],
      "name": "registry",
      "outputs": [
        {
          "internalType": "address",
          "name": "",
          "type": "address"
        }
      ],
      "stateMutability": "view",
      "type": "function"
    },
    {
      "inputs": [
        {
          "internalType": "uint256[]",
          "name": "_orders",
          "type": "uint256[]"
        }
      ],
      "name": "reorderBadges",
      "outputs": [],
      "stateMutability": "nonpayable",
      "type": "function"
    },
    {
      "inputs": [],
      "name": "resolver",
      "outputs": [
        {
          "internalType": "address",
          "name": "",
          "type": "address"
        }
      ],
      "stateMutability": "view",
      "type": "function"
    },
    {
      "inputs": [],
      "name": "username",
      "outputs": [
        {
          "internalType": "string",
          "name": "",
          "type": "string"
        }
      ],
      "stateMutability": "view",
      "type": "function"
    }
  ],
  "bytecode": "0x60a06040523480156200001157600080fd5b506040516200239538038062002395833981016040819052620000349162000113565b6001600160a01b0381166080526200004b62000052565b5062000145565b600054610100900460ff1615620000bf5760405162461bcd60e51b815260206004820152602760248201527f496e697469616c697a61626c653a20636f6e747261637420697320696e697469604482015266616c697a696e6760c81b606482015260840160405180910390fd5b60005460ff9081161462000111576000805460ff191660ff9081179091556040519081527f7f26b83ff96e1f2b6a682f133852f6798a09c465da95921460cefb38474024989060200160405180910390a15b565b6000602082840312156200012657600080fd5b81516001600160a01b03811681146200013e57600080fd5b9392505050565b6080516122266200016f6000396000818161012b015281816105bb015261067e01526122266000f3fe608060405234801561001057600080fd5b50600436106101215760003560e01c80638c6f12f0116100ad578063ac9650d811610071578063ac9650d814610292578063b63e0f29146102b2578063b8a433ff146102ba578063f399e22e146102c2578063fd4026df146102d557600080fd5b80638c6f12f0146102315780638da5cb5b1461025157806395aa4aac14610264578063a72e8f0d14610277578063aa8b20f61461028a57600080fd5b806361fac54d116100f457806361fac54d146101ca5780636515a128146101df57806377c846af146101f25780637b103999146102055780638a97ede61461021e57600080fd5b806304f3bcec146101265780634084d4fd1461016a5780635aef7de61461017f5780635ea34ae7146101b5575b600080fd5b61014d7f000000000000000000000000000000000000000000000000000000000000000081565b6040516001600160a01b0390911681526020015b60405180910390f35b61017d6101783660046118c0565b6102f8565b005b600354600454610196916001600160a01b03169082565b604080516001600160a01b039093168352602083019190915201610161565b6101bd610366565b6040516101619190611955565b6101d26103be565b60405161016191906119e9565b61017d6101ed3660046118c0565b61044c565b61017d610200366004611a74565b6104ab565b60005461014d906201000090046001600160a01b031681565b61017d61022c366004611aa8565b6105b0565b61024461023f366004611aa8565b61060f565b6040516101619190611ac1565b60015461014d906001600160a01b031681565b61017d6102723660046118c0565b610734565b61017d610285366004611ba2565b6107f6565b6101d2610902565b6102a56102a0366004611bce565b610ab9565b6040516101619190611c42565b6101bd610bab565b6101bd610bc2565b61017d6102d0366004611ca4565b610d3d565b6102e86102e3366004611aa8565b610edd565b6040519015158152602001610161565b6001546001600160a01b03163314610322576040516282b42960e81b815260040160405180910390fd5b60005b81518110156103625761035082828151811061034357610343611cf3565b6020026020010151610f57565b8061035a81611d1f565b915050610325565b5050565b606060058054806020026020016040519081016040528092919081815260200182805480156103b457602002820191906000526020600020905b8154815260200190600101908083116103a0575b5050505050905090565b600280546103cb90611d38565b80601f01602080910402602001604051908101604052809291908181526020018280546103f790611d38565b80156104445780601f1061041957610100808354040283529160200191610444565b820191906000526020600020905b81548152906001019060200180831161042757829003601f168201915b505050505081565b6001546001600160a01b03163314610476576040516282b42960e81b815260040160405180910390fd5b60055481511461049c576040516001621398b960e31b0319815260040160405180910390fd5b6104a581611197565b60075550565b6001546001600160a01b031633146104d5576040516282b42960e81b815260040160405180910390fd5b60005460405162a2e28560e41b8152620100009091046001600160a01b0316908190630a2e28509061050c90600290600401611d72565b600060405180830381600087803b15801561052657600080fd5b505af115801561053a573d6000803e3d6000fd5b5050604051630daa504d60e21b81526001600160a01b03841692506336a94134915061056a9085906004016119e9565b600060405180830381600087803b15801561058457600080fd5b505af1158015610598573d6000803e3d6000fd5b5050505081600290816105ab9190611e4b565b505050565b336001600160a01b037f000000000000000000000000000000000000000000000000000000000000000016146105f8576040516282b42960e81b815260040160405180910390fd5b6005546030111561060c5761060c81611301565b50565b604080516101408101825260008082526020820181905281830181905260608083018290526080830182905260a0830182905260c0830182905260e08301829052610100830182905261012083015291516308c6f12f60e41b8152600481018490529091906001600160a01b037f00000000000000000000000000000000000000000000000000000000000000001690638c6f12f090602401600060405180830381865afa1580156106c5573d6000803e3d6000fd5b505050506040513d6000823e601f3d908101601f191682016040526106ed9190810190611f8c565b60015460c08201519192506001600160a01b0391821691161461072e578051604051636e76886560e01b815260048101919091526024015b60405180910390fd5b92915050565b6001546001600160a01b0316331461075e576040516282b42960e81b815260040160405180910390fd5b805160055460009161076f91612082565b90506030811115610793576040516363d1c40f60e01b815260040160405180910390fd5b60005b82518110156105ab576107c18382815181106107b4576107b4611cf3565b602002602001015161060f565b506107e48382815181106107d7576107d7611cf3565b6020026020010151611301565b806107ee81611d1f565b915050610796565b6001546001600160a01b03163314610820576040516282b42960e81b815260040160405180910390fd5b6001546040516331a9108f60e11b8152600481018390526001600160a01b0391821691841690636352211e90602401602060405180830381865afa15801561086c573d6000803e3d6000fd5b505050506040513d601f19601f820116820180604052508101906108909190612095565b6001600160a01b0316146108c9576040516369b28be760e11b81526001600160a01b038316600482015260248101829052604401610725565b604080518082019091526001600160a01b039092168083526020909201819052600380546001600160a01b031916909217909155600455565b604080518082019091526003546001600160a01b0316808252600454602083015260609190158015906109b45750600154815160208301516040516331a9108f60e11b815260048101919091526001600160a01b039283169290911690636352211e90602401602060405180830381865afa158015610985573d6000803e3d6000fd5b505050506040513d601f19601f820116820180604052508101906109a99190612095565b6001600160a01b0316145b15610a38578051602082015160405163c87b56dd60e01b81526001600160a01b039092169163c87b56dd916109ef9160040190815260200190565b600060405180830381865afa925050508015610a2d57506040513d6000823e601f3d908101601f19168201604052610a2a91908101906120b2565b60015b15610a385792915050565b600060029054906101000a90046001600160a01b03166001600160a01b031663efc2c1476040518163ffffffff1660e01b8152600401600060405180830381865afa158015610a8b573d6000803e3d6000fd5b505050506040513d6000823e601f3d908101601f19168201604052610ab391908101906120b2565b91505090565b604080516000815260208101909152606090826001600160401b03811115610ae357610ae361182e565b604051908082528060200260200182016040528015610b1657816020015b6060815260200190600190039081610b015790505b50915060005b83811015610ba357610b7330868684818110610b3a57610b3a611cf3565b9050602002810190610b4c919061210d565b85604051602001610b5f9392919061215a565b604051602081830303815290604052611459565b838281518110610b8557610b85611cf3565b60200260200101819052508080610b9b90611d1f565b915050610b1c565b505092915050565b600754600554606091610bbd91611485565b905090565b606060006005805480602002602001604051908101604052809291908181526020018280548015610c1257602002820191906000526020600020905b815481526020019060010190808311610bfe575b5050505050905060008060005b8351811015610c7857610c4a848281518110610c3d57610c3d611cf3565b6020026020010151610edd565b15610c665781610c5981611d1f565b925050806001901b831792505b80610c7081611d1f565b915050610c1f565b506000816001600160401b03811115610c9357610c9361182e565b604051908082528060200260200182016040528015610cbc578160200160208202803683370190505b5090506000915060005b8451811015610d34578084901c600116600103610d2257848181518110610cef57610cef611cf3565b6020026020010151828480610d0390611d1f565b955081518110610d1557610d15611cf3565b6020026020010181815250505b80610d2c81611d1f565b915050610cc6565b50949350505050565b600054610100900460ff1615808015610d5d5750600054600160ff909116105b80610d775750303b158015610d77575060005460ff166001145b610dda5760405162461bcd60e51b815260206004820152602e60248201527f496e697469616c697a61626c653a20636f6e747261637420697320616c72656160448201526d191e481a5b9a5d1a585b1a5e995960921b6064820152608401610725565b6000805460ff191660011790558015610dfd576000805461ff0019166101001790555b6000805462010000600160b01b031916336201000002179055600180546001600160a01b0319166001600160a01b0385161790556002610e3d8382611e4b565b50604051630daa504d60e21b815233906336a9413490610e619085906004016119e9565b600060405180830381600087803b158015610e7b57600080fd5b505af1158015610e8f573d6000803e3d6000fd5b5050505080156105ab576000805461ff0019169055604051600181527f7f26b83ff96e1f2b6a682f133852f6798a09c465da95921460cefb38474024989060200160405180910390a1505050565b6040516308c6f12f60e41b8152600481018290526000903090638c6f12f090602401600060405180830381865afa925050508015610f3d57506040513d6000823e601f3d908101601f19168201604052610f3a9190810190611f8c565b60015b610f4957506000919050565b50600192915050565b919050565b60008181526006602052604081205490819003610f72575050565b600554600754600090610f859083611485565b90506000610f946001856120fa565b90506000610fa36001856120fa565b90506000838381518110610fb957610fb9611cf3565b6020026020010151905082821461105a57600060058381548110610fdf57610fdf611cf3565b90600052602060002001549050806005858154811061100057611000611cf3565b906000526020600020018190555084838151811061102057611020611cf3565b602002602001015185858151811061103a5761103a611cf3565b602090810291909101810191909152600091825260069052604090208690555b600580548061106b5761106b612181565b6001900381819060005260206000200160009055905560066000888152602001908152602001600020600090556000826001600160401b038111156110b2576110b261182e565b6040519080825280602002602001820160405280156110db578160200160208202803683370190505b50905060005b83811015611180578581815181106110fb576110fb611cf3565b602002602001015182828151811061111557611115611cf3565b6020026020010181815250508282828151811061113457611134611cf3565b6020026020010151111561116e57600182828151811061115657611156611cf3565b6020026020010181815161116a91906120fa565b9052505b8061117881611d1f565b9150506110e1565b5061118a81611197565b6007555050505050505050565b80516000908082036111ac5750600092915050565b6000816001600160401b038111156111c6576111c661182e565b6040519080825280602002602001820160405280156111ef578160200160208202803683370190505b50905060018160008151811061120757611207611cf3565b602090810291909101015260015b82811015611261578082600183038151811061123357611233611cf3565b60200260200101510282828151811061124e5761124e611cf3565b6020908102919091010152600101611215565b5060005b828110156112f9576000600182015b848110156112c55786838151811061128e5761128e611cf3565b60200260200101518782815181106112a8576112a8611cf3565b602002602001015110156112bd576001820191505b600101611274565b508083600184870303815181106112de576112de611cf3565b60200260200101510285019450508080600101915050611265565b505050919050565b600081815260066020526040902054156113185750565b60058054600181810183557f036b6384b5eca791c62761152d0c79bb0604c104a5fb6f4eb0703f3154bb3db090910183905590546000838152600660205260408120829055600754919290916113779161137290856120fa565b611485565b90506000826001600160401b038111156113935761139361182e565b6040519080825280602002602001820160405280156113bc578160200160208202803683370190505b50905060005b6113cd6001856120fa565b81101561141d578281815181106113e6576113e6611cf3565b602002602001015182828151811061140057611400611cf3565b60209081029190910101528061141581611d1f565b9150506113c2565b50828161142b6001836120fa565b8151811061143b5761143b611cf3565b60200260200101818152505061145081611197565b60075550505050565b606061147e83836040518060600160405280602781526020016121ca6027913961170b565b9392505050565b6060816001600160401b0381111561149f5761149f61182e565b6040519080825280602002602001820160405280156114c8578160200160208202803683370190505b509050811561072e576000826001600160401b038111156114eb576114eb61182e565b604051908082528060200260200182016040528015611514578160200160208202803683370190505b5090506000836001600160401b038111156115315761153161182e565b60405190808252806020026020018201604052801561155a578160200160208202803683370190505b50905060018260008151811061157257611572611cf3565b60200260200101818152508160008151811061159057611590611cf3565b602090810291909101015260015b8481101561160c57808360018303815181106115bc576115bc611cf3565b6020026020010151028382815181106115d7576115d7611cf3565b602002602001018181525050806001018282815181106115f9576115f9611cf3565b602090810291909101015260010161159e565b5060005b84811015611702576000836001838803038151811061163157611631611cf3565b6020026020010151878161164757611647612197565b04905082818151811061165c5761165c611cf3565b602002602001015185838151811061167657611676611cf3565b6020908102919091010152805b8287038160010110156116d2578381600101815181106116a5576116a5611cf3565b60200260200101518482815181106116bf576116bf611cf3565b6020908102919091010152600101611683565b5083600183880303815181106116ea576116ea611cf3565b60209081029190910101510290950394600101611610565b50505092915050565b6060600080856001600160a01b03168560405161172891906121ad565b600060405180830381855af49150503d8060008114611763576040519150601f19603f3d011682016040523d82523d6000602084013e611768565b606091505b509150915061177986838387611783565b9695505050505050565b606083156117f25782516000036117eb576001600160a01b0385163b6117eb5760405162461bcd60e51b815260206004820152601d60248201527f416464726573733a2063616c6c20746f206e6f6e2d636f6e74726163740000006044820152606401610725565b50816117fc565b6117fc8383611804565b949350505050565b8151156118145781518083602001fd5b8060405162461bcd60e51b815260040161072591906119e9565b634e487b7160e01b600052604160045260246000fd5b60405161014081016001600160401b03811182821017156118675761186761182e565b60405290565b604051601f8201601f191681016001600160401b03811182821017156118955761189561182e565b604052919050565b60006001600160401b038211156118b6576118b661182e565b5060051b60200190565b600060208083850312156118d357600080fd5b82356001600160401b038111156118e957600080fd5b8301601f810185136118fa57600080fd5b803561190d6119088261189d565b61186d565b81815260059190911b8201830190838101908783111561192c57600080fd5b928401925b8284101561194a57833582529284019290840190611931565b979650505050505050565b6020808252825182820181905260009190848201906040850190845b8181101561198d57835183529284019291840191600101611971565b50909695505050505050565b60005b838110156119b457818101518382015260200161199c565b50506000910152565b600081518084526119d5816020860160208601611999565b601f01601f19169290920160200192915050565b60208152600061147e60208301846119bd565b60006001600160401b03821115611a1557611a1561182e565b50601f01601f191660200190565b600082601f830112611a3457600080fd5b8135611a42611908826119fc565b818152846020838601011115611a5757600080fd5b816020850160208301376000918101602001919091529392505050565b600060208284031215611a8657600080fd5b81356001600160401b03811115611a9c57600080fd5b6117fc84828501611a23565b600060208284031215611aba57600080fd5b5035919050565b60208152815160208201526020820151604082015260006040830151611af260608401826001600160401b03169052565b5060608301516001600160401b03811660808401525060808301516001600160401b03811660a08401525060a083015160c083015260c0830151611b4160e08401826001600160a01b03169052565b5060e0830151610100611b5e818501836001600160a01b03169052565b8401519050610120611b738482018315159052565b8401516101408481015290506117fc6101608401826119bd565b6001600160a01b038116811461060c57600080fd5b60008060408385031215611bb557600080fd5b8235611bc081611b8d565b946020939093013593505050565b60008060208385031215611be157600080fd5b82356001600160401b0380821115611bf857600080fd5b818501915085601f830112611c0c57600080fd5b813581811115611c1b57600080fd5b8660208260051b8501011115611c3057600080fd5b60209290920196919550909350505050565b6000602080830181845280855180835260408601915060408160051b870101925083870160005b82811015611c9757603f19888603018452611c858583516119bd565b94509285019290850190600101611c69565b5092979650505050505050565b60008060408385031215611cb757600080fd5b8235611cc281611b8d565b915060208301356001600160401b03811115611cdd57600080fd5b611ce985828601611a23565b9150509250929050565b634e487b7160e01b600052603260045260246000fd5b634e487b7160e01b600052601160045260246000fd5b600060018201611d3157611d31611d09565b5060010190565b600181811c90821680611d4c57607f821691505b602082108103611d6c57634e487b7160e01b600052602260045260246000fd5b50919050565b6000602080835260008454611d8681611d38565b80848701526040600180841660008114611da75760018114611dc157611def565b60ff1985168984015283151560051b890183019550611def565b896000528660002060005b85811015611de75781548b8201860152908301908801611dcc565b8a0184019650505b509398975050505050505050565b601f8211156105ab57600081815260208120601f850160051c81016020861015611e245750805b601f850160051c820191505b81811015611e4357828155600101611e30565b505050505050565b81516001600160401b03811115611e6457611e6461182e565b611e7881611e728454611d38565b84611dfd565b602080601f831160018114611ead5760008415611e955750858301515b600019600386901b1c1916600185901b178555611e43565b600085815260208120601f198616915b82811015611edc57888601518255948401946001909101908401611ebd565b5085821015611efa5787850151600019600388901b60f8161c191681555b5050505050600190811b01905550565b80516001600160401b0381168114610f5257600080fd5b8051610f5281611b8d565b80518015158114610f5257600080fd5b6000611f4a611908846119fc565b9050828152838383011115611f5e57600080fd5b61147e836020830184611999565b600082601f830112611f7d57600080fd5b61147e83835160208501611f3c565b600060208284031215611f9e57600080fd5b81516001600160401b0380821115611fb557600080fd5b908301906101408286031215611fca57600080fd5b611fd2611844565b8251815260208301516020820152611fec60408401611f0a565b6040820152611ffd60608401611f0a565b606082015261200e60808401611f0a565b608082015260a083015160a082015261202960c08401611f21565b60c082015261203a60e08401611f21565b60e082015261010061204d818501611f2c565b90820152610120838101518381111561206557600080fd5b61207188828701611f6c565b918301919091525095945050505050565b8082018082111561072e5761072e611d09565b6000602082840312156120a757600080fd5b815161147e81611b8d565b6000602082840312156120c457600080fd5b81516001600160401b038111156120da57600080fd5b8201601f810184136120eb57600080fd5b6117fc84825160208401611f3c565b8181038181111561072e5761072e611d09565b6000808335601e1984360301811261212457600080fd5b8301803591506001600160401b0382111561213e57600080fd5b60200191503681900382131561215357600080fd5b9250929050565b828482376000838201600081528351612177818360208801611999565b0195945050505050565b634e487b7160e01b600052603160045260246000fd5b634e487b7160e01b600052601260045260246000fd5b600082516121bf818460208701611999565b919091019291505056fe416464726573733a206c6f772d6c6576656c2064656c65676174652063616c6c206661696c6564a26469706673582212206ef5b42086a6cace4c433913cea169bab0f5a340d50e1f830e3a14592ae8027a64736f6c63430008130033",
  "linkReferences": {},
  "deployedLinkReferences": {}
}