{
  "_format": "hh-sol-artifact-1",
  "contractName": "EIP712Proxy",
  "sourceName": "@ethereum-attestation-service/eas-contracts/contracts/eip712/proxy/EIP712Proxy.sol",
  "abi": [
    {
      "inputs": [
        {
          "internalType": "contract IEAS",
          "name": "eas",
          "type": "address"
        },
        {
          "internalType": "string",
          "name": "name",
          "type": "string"
        }
      ],
      "stateMutability": "nonpayable",
      "type": "constructor"
    },
    {
      "inputs": [],
      "name": "AccessDenied",
      "type": "error"
    },
    {
      "inputs": [],
      "name": "DeadlineExpired",
      "type": "error"
    },
    {
      "inputs": [],
      "name": "InvalidEAS",
      "type": "error"
    },
    {
      "inputs": [],
      "name": "InvalidLength",
      "type": "error"
    },
    {
      "inputs": [],
      "name": "InvalidShortString",
      "type": "error"
    },
    {
      "inputs": [],
      "name": "InvalidSignature",
      "type": "error"
    },
    {
      "inputs": [],
      "name": "NotFound",
      "type": "error"
    },
    {
      "inputs": [
        {
          "internalType": "string",
          "name": "str",
          "type": "string"
        }
      ],
      "name": "StringTooLong",
      "type": "error"
    },
    {
      "inputs": [],
      "name": "UsedSignature",
      "type": "error"
    },
    {
      "anonymous": false,
      "inputs": [],
      "name": "EIP712DomainChanged",
      "type": "event"
    },
    {
      "inputs": [
        {
          "components": [
            {
              "internalType": "bytes32",
              "name": "schema",
              "type": "bytes32"
            },
            {
              "components": [
                {
                  "internalType": "address",
                  "name": "recipient",
                  "type": "address"
                },
                {
                  "internalType": "uint64",
                  "name": "expirationTime",
                  "type": "uint64"
                },
                {
                  "internalType": "bool",
                  "name": "revocable",
                  "type": "bool"
                },
                {
                  "internalType": "bytes32",
                  "name": "refUID",
                  "type": "bytes32"
                },
                {
                  "internalType": "bytes",
                  "name": "data",
                  "type": "bytes"
                },
                {
                  "internalType": "uint256",
                  "name": "value",
                  "type": "uint256"
                }
              ],
              "internalType": "struct AttestationRequestData",
              "name": "data",
              "type": "tuple"
            },
            {
              "components": [
                {
                  "internalType": "uint8",
                  "name": "v",
                  "type": "uint8"
                },
                {
                  "internalType": "bytes32",
                  "name": "r",
                  "type": "bytes32"
                },
                {
                  "internalType": "bytes32",
                  "name": "s",
                  "type": "bytes32"
                }
              ],
              "internalType": "struct Signature",
              "name": "signature",
              "type": "tuple"
            },
            {
              "internalType": "address",
              "name": "attester",
              "type": "address"
            },
            {
              "internalType": "uint64",
              "name": "deadline",
              "type": "uint64"
            }
          ],
          "internalType": "struct DelegatedProxyAttestationRequest",
          "name": "delegatedRequest",
          "type": "tuple"
        }
      ],
      "name": "attestByDelegation",
      "outputs": [
        {
          "internalType": "bytes32",
          "name": "",
          "type": "bytes32"
        }
      ],
      "stateMutability": "payable",
      "type": "function"
    },
    {
      "inputs": [],
      "name": "eip712Domain",
      "outputs": [
        {
          "internalType": "bytes1",
          "name": "fields",
          "type": "bytes1"
        },
        {
          "internalType": "string",
          "name": "name",
          "type": "string"
        },
        {
          "internalType": "string",
          "name": "version",
          "type": "string"
        },
        {
          "internalType": "uint256",
          "name": "chainId",
          "type": "uint256"
        },
        {
          "internalType": "address",
          "name": "verifyingContract",
          "type": "address"
        },
        {
          "internalType": "bytes32",
          "name": "salt",
          "type": "bytes32"
        },
        {
          "internalType": "uint256[]",
          "name": "extensions",
          "type": "uint256[]"
        }
      ],
      "stateMutability": "view",
      "type": "function"
    },
    {
      "inputs": [],
      "name": "getAttestTypeHash",
      "outputs": [
        {
          "internalType": "bytes32",
          "name": "",
          "type": "bytes32"
        }
      ],
      "stateMutability": "pure",
      "type": "function"
    },
    {
      "inputs": [
        {
          "internalType": "bytes32",
          "name": "uid",
          "type": "bytes32"
        }
      ],
      "name": "getAttester",
      "outputs": [
        {
          "internalType": "address",
          "name": "",
          "type": "address"
        }
      ],
      "stateMutability": "view",
      "type": "function"
    },
    {
      "inputs": [],
      "name": "getDomainSeparator",
      "outputs": [
        {
          "internalType": "bytes32",
          "name": "",
          "type": "bytes32"
        }
      ],
      "stateMutability": "view",
      "type": "function"
    },
    {
      "inputs": [],
      "name": "getEAS",
      "outputs": [
        {
          "internalType": "contract IEAS",
          "name": "",
          "type": "address"
        }
      ],
      "stateMutability": "view",
      "type": "function"
    },
    {
      "inputs": [],
      "name": "getName",
      "outputs": [
        {
          "internalType": "string",
          "name": "",
          "type": "string"
        }
      ],
      "stateMutability": "view",
      "type": "function"
    },
    {
      "inputs": [],
      "name": "getRevokeTypeHash",
      "outputs": [
        {
          "internalType": "bytes32",
          "name": "",
          "type": "bytes32"
        }
      ],
      "stateMutability": "pure",
      "type": "function"
    },
    {
      "inputs": [
        {
          "components": [
            {
              "internalType": "bytes32",
              "name": "schema",
              "type": "bytes32"
            },
            {
              "components": [
                {
                  "internalType": "address",
                  "name": "recipient",
                  "type": "address"
                },
                {
                  "internalType": "uint64",
                  "name": "expirationTime",
                  "type": "uint64"
                },
                {
                  "internalType": "bool",
                  "name": "revocable",
                  "type": "bool"
                },
                {
                  "internalType": "bytes32",
                  "name": "refUID",
                  "type": "bytes32"
                },
                {
                  "internalType": "bytes",
                  "name": "data",
                  "type": "bytes"
                },
                {
                  "internalType": "uint256",
                  "name": "value",
                  "type": "uint256"
                }
              ],
              "internalType": "struct AttestationRequestData[]",
              "name": "data",
              "type": "tuple[]"
            },
            {
              "components": [
                {
                  "internalType": "uint8",
                  "name": "v",
                  "type": "uint8"
                },
                {
                  "internalType": "bytes32",
                  "name": "r",
                  "type": "bytes32"
                },
                {
                  "internalType": "bytes32",
                  "name": "s",
                  "type": "bytes32"
                }
              ],
              "internalType": "struct Signature[]",
              "name": "signatures",
              "type": "tuple[]"
            },
            {
              "internalType": "address",
              "name": "attester",
              "type": "address"
            },
            {
              "internalType": "uint64",
              "name": "deadline",
              "type": "uint64"
            }
          ],
          "internalType": "struct MultiDelegatedProxyAttestationRequest[]",
          "name": "multiDelegatedRequests",
          "type": "tuple[]"
        }
      ],
      "name": "multiAttestByDelegation",
      "outputs": [
        {
          "internalType": "bytes32[]",
          "name": "",
          "type": "bytes32[]"
        }
      ],
      "stateMutability": "payable",
      "type": "function"
    },
    {
      "inputs": [
        {
          "components": [
            {
              "internalType": "bytes32",
              "name": "schema",
              "type": "bytes32"
            },
            {
              "components": [
                {
                  "internalType": "bytes32",
                  "name": "uid",
                  "type": "bytes32"
                },
                {
                  "internalType": "uint256",
                  "name": "value",
                  "type": "uint256"
                }
              ],
              "internalType": "struct RevocationRequestData[]",
              "name": "data",
              "type": "tuple[]"
            },
            {
              "components": [
                {
                  "internalType": "uint8",
                  "name": "v",
                  "type": "uint8"
                },
                {
                  "internalType": "bytes32",
                  "name": "r",
                  "type": "bytes32"
                },
                {
                  "internalType": "bytes32",
                  "name": "s",
                  "type": "bytes32"
                }
              ],
              "internalType": "struct Signature[]",
              "name": "signatures",
              "type": "tuple[]"
            },
            {
              "internalType": "address",
              "name": "revoker",
              "type": "address"
            },
            {
              "internalType": "uint64",
              "name": "deadline",
              "type": "uint64"
            }
          ],
          "internalType": "struct MultiDelegatedProxyRevocationRequest[]",
          "name": "multiDelegatedRequests",
          "type": "tuple[]"
        }
      ],
      "name": "multiRevokeByDelegation",
      "outputs": [],
      "stateMutability": "payable",
      "type": "function"
    },
    {
      "inputs": [
        {
          "components": [
            {
              "internalType": "bytes32",
              "name": "schema",
              "type": "bytes32"
            },
            {
              "components": [
                {
                  "internalType": "bytes32",
                  "name": "uid",
                  "type": "bytes32"
                },
                {
                  "internalType": "uint256",
                  "name": "value",
                  "type": "uint256"
                }
              ],
              "internalType": "struct RevocationRequestData",
              "name": "data",
              "type": "tuple"
            },
            {
              "components": [
                {
                  "internalType": "uint8",
                  "name": "v",
                  "type": "uint8"
                },
                {
                  "internalType": "bytes32",
                  "name": "r",
                  "type": "bytes32"
                },
                {
                  "internalType": "bytes32",
                  "name": "s",
                  "type": "bytes32"
                }
              ],
              "internalType": "struct Signature",
              "name": "signature",
              "type": "tuple"
            },
            {
              "internalType": "address",
              "name": "revoker",
              "type": "address"
            },
            {
              "internalType": "uint64",
              "name": "deadline",
              "type": "uint64"
            }
          ],
          "internalType": "struct DelegatedProxyRevocationRequest",
          "name": "delegatedRequest",
          "type": "tuple"
        }
      ],
      "name": "revokeByDelegation",
      "outputs": [],
      "stateMutability": "payable",
      "type": "function"
    },
    {
      "inputs": [],
      "name": "version",
      "outputs": [
        {
          "internalType": "string",
          "name": "",
          "type": "string"
        }
      ],
      "stateMutability": "view",
      "type": "function"
    }
  ],
  "bytecode": "0x6101e06040523480156200001257600080fd5b50604051620027fd380380620027fd83398101604081905262000035916200022c565b6040805180820190915260058152640312e332e360dc1b60208201526001608052600360a052600060c0819052829190620000729083906200016b565b61018052620000838160016200016b565b6101a052815160208084019190912061014052815190820120610160524661010052620001146101405161016051604080517f8b73c3c69bb8fe3d512ecc4cf759cc79239f7b179b0ffacaa9a75d522b39400f60208201529081019290925260608201524660808201523060a082015260009060c00160405160208183030381529060405280519060200120905090565b60e052505030610120526001600160a01b03821662000146576040516341bc07ff60e11b815260040160405180910390fd5b6001600160a01b0382166101c052600262000162828262000396565b505050620004bc565b60006020835110156200018b576200018383620001a4565b90506200019e565b8162000198848262000396565b5060ff90505b92915050565b600080829050601f81511115620001db578260405163305a27a960e01b8152600401620001d2919062000462565b60405180910390fd5b8051620001e88262000497565b179392505050565b634e487b7160e01b600052604160045260246000fd5b60005b838110156200022357818101518382015260200162000209565b50506000910152565b600080604083850312156200024057600080fd5b82516001600160a01b03811681146200025857600080fd5b60208401519092506001600160401b03808211156200027657600080fd5b818501915085601f8301126200028b57600080fd5b815181811115620002a057620002a0620001f0565b604051601f8201601f19908116603f01168101908382118183101715620002cb57620002cb620001f0565b81604052828152886020848701011115620002e557600080fd5b620002f883602083016020880162000206565b80955050505050509250929050565b600181811c908216806200031c57607f821691505b6020821081036200033d57634e487b7160e01b600052602260045260246000fd5b50919050565b601f8211156200039157600081815260208120601f850160051c810160208610156200036c5750805b601f850160051c820191505b818110156200038d5782815560010162000378565b5050505b505050565b81516001600160401b03811115620003b257620003b2620001f0565b620003ca81620003c3845462000307565b8462000343565b602080601f831160018114620004025760008415620003e95750858301515b600019600386901b1c1916600185901b1785556200038d565b600085815260208120601f198616915b82811015620004335788860151825594840194600190910190840162000412565b5085821015620004525787850151600019600388901b60f8161c191681555b5050505050600190811b01905550565b60208152600082518060208401526200048381604085016020870162000206565b601f01601f19169190910160400192915050565b805160208083015191908110156200033d5760001960209190910360031b1b16919050565b60805160a05160c05160e05161010051610120516101405161016051610180516101a0516101c05161229e6200055f600039600081816101aa01528181610449015281816105610152818161099f0152610b3b0152600061073e015260006107140152600061115b015260006111330152600061108e015260006110b8015260006110e2015260006106bc015260006106930152600061066a015261229e6000f3fe6080604052600436106100a75760003560e01c806365c40b9c1161006457806365c40b9c1461019b57806384b0196e146101ce57806395411525146101f6578063a6d4dbc714610216578063b83010d314610229578063ed24911d1461025c57600080fd5b80630eabf660146100ac57806310d736d5146100c157806312b11a171461011457806317d7de7c146101515780633c0427151461017357806354fd4d5014610186575b600080fd5b6100bf6100ba366004611660565b610271565b005b3480156100cd57600080fd5b506100f76100dc3660046116a1565b6000908152600360205260409020546001600160a01b031690565b6040516001600160a01b0390911681526020015b60405180910390f35b34801561012057600080fd5b507fea02ffba7dcb45f6fc649714d23f315eef12e3b27f9a7735d8d8bf41eb2b1af15b60405190815260200161010b565b34801561015d57600080fd5b506101666104b8565b60405161010b919061170a565b610143610181366004611724565b61054a565b34801561019257600080fd5b50610166610663565b3480156101a757600080fd5b507f00000000000000000000000000000000000000000000000000000000000000006100f7565b3480156101da57600080fd5b506101e3610706565b60405161010b979695949392919061175e565b610209610204366004611660565b61078e565b60405161010b91906117f4565b6100bf610224366004611838565b610b22565b34801561023557600080fd5b507f78a69a78c1a55cdff5cbf949580b410778cd9e4d1ecbe6f06a7fa8dc2441b57d610143565b34801561026857600080fd5b50610143610bfd565b806000816001600160401b0381111561028c5761028c611851565b6040519080825280602002602001820160405280156102d257816020015b6040805180820190915260008152606060208201528152602001906001900390816102aa5790505b50905060005b828110156104315760008585838181106102f4576102f4611867565b9050602002810190610306919061187d565b61030f90611a9a565b602081015180519192509080158061032c57508260400151518114155b1561034a5760405163251f56a160e21b815260040160405180910390fd5b60005b818110156103e657600083828151811061036957610369611867565b602002602001015190506103dd6040518060a0016040528087600001518152602001838152602001876040015185815181106103a7576103a7611867565b6020026020010151815260200187606001516001600160a01b0316815260200187608001516001600160401b0316815250610c0c565b5060010161034d565b506040518060400160405280846000015181526020018381525085858151811061041257610412611867565b602002602001018190525050505061042a8160010190565b90506102d8565b50604051634cb7e9e560e01b81526001600160a01b037f00000000000000000000000000000000000000000000000000000000000000001690634cb7e9e5903490610480908590600401611b94565b6000604051808303818588803b15801561049957600080fd5b505af11580156104ad573d6000803e3d6000fd5b505050505050505050565b6060600280546104c790611c45565b80601f01602080910402602001604051908101604052809291908181526020018280546104f390611c45565b80156105405780601f1061051557610100808354040283529160200191610540565b820191906000526020600020905b81548152906001019060200180831161052357829003601f168201915b5050505050905090565b600061055d61055883611d7d565b610dbf565b60007f00000000000000000000000000000000000000000000000000000000000000006001600160a01b031663f17325e7346040518060400160405280876000013581526020018780602001906105b49190611df5565b6105bd90611e0b565b8152506040518363ffffffff1660e01b81526004016105dc9190611e7b565b60206040518083038185885af11580156105fa573d6000803e3d6000fd5b50505050506040513d601f19601f8201168201806040525081019061061f9190611ea8565b905061063160c0840160a08501611ec1565b600082815260036020526040902080546001600160a01b0319166001600160a01b039290921691909117905592915050565b606061068e7f0000000000000000000000000000000000000000000000000000000000000000610f44565b6106b77f0000000000000000000000000000000000000000000000000000000000000000610f44565b6106e07f0000000000000000000000000000000000000000000000000000000000000000610f44565b6040516020016106f293929190611edc565b604051602081830303815290604052905090565b6000606080828080836107397f000000000000000000000000000000000000000000000000000000000000000083610fd6565b6107647f00000000000000000000000000000000000000000000000000000000000000006001610fd6565b60408051600080825260208201909252600f60f81b9b939a50919850469750309650945092509050565b6060816000816001600160401b038111156107ab576107ab611851565b6040519080825280602002602001820160405280156107f157816020015b6040805180820190915260008152606060208201528152602001906001900390816107c95790505b50905060005b8281101561099a573686868381811061081257610812611867565b9050602002810190610824919061187d565b90503660006108366020840184611f36565b90925090508080158061085757506108516040850185611f7f565b90508114155b156108755760405163251f56a160e21b815260040160405180910390fd5b60005b81811015610948576109406040518060a00160405280876000013581526020018686858181106108aa576108aa611867565b90506020028101906108bc9190611df5565b6108c590611e0b565b81526020016108d76040890189611f7f565b858181106108e7576108e7611867565b9050606002018036038101906108fd9190611fc7565b81526020016109126080890160608a01611ec1565b6001600160a01b0316815260200161093060a0890160808a01611fe3565b6001600160401b03169052610dbf565b600101610878565b506040805180820190915284358152602081016109658486611ffe565b81525086868151811061097a5761097a611867565b6020026020010181905250505050506109938160010190565b90506107f7565b5060007f00000000000000000000000000000000000000000000000000000000000000006001600160a01b03166344adc90e34846040518363ffffffff1660e01b81526004016109ea9190612071565b60006040518083038185885af1158015610a08573d6000803e3d6000fd5b50505050506040513d6000823e601f3d908101601f19168201604052610a319190810190612128565b90506000805b84811015610b145736888883818110610a5257610a52611867565b9050602002810190610a64919061187d565b9050366000610a766020840184611f36565b90925090508060005b81811015610afe57610a976080860160608701611ec1565b600360008a8a81518110610aad57610aad611867565b6020026020010151815260200190815260200160002060006101000a8154816001600160a01b0302191690836001600160a01b03160217905550866001019650610af78160010190565b9050610a7f565b5050505050610b0d8160010190565b9050610a37565b509093505050505b92915050565b610b39610b34368390038301836121b8565b610c0c565b7f00000000000000000000000000000000000000000000000000000000000000006001600160a01b031663469262673460405180604001604052808560000135815260200185602001803603810190610b929190612224565b90526040516001600160e01b031960e085901b16815281516004820152602091820151805160248301529091015160448201526064016000604051808303818588803b158015610be157600080fd5b505af1158015610bf5573d6000803e3d6000fd5b505050505050565b6000610c07611081565b905090565b60808101516001600160401b031615801590610c3d5750426001600160401b031681608001516001600160401b0316105b15610c5b57604051631ab7da6b60e01b815260040160405180910390fd5b6020808201518051600090815260039092526040909120546001600160a01b031680610c9a5760405163c5723b5160e01b815260040160405180910390fd5b6001600160a01b0381163314610cc357604051634ca8886760e01b815260040160405180910390fd5b6040830151610cd1816111ac565b606080850151855185516020808801516080808b0151604080517f78a69a78c1a55cdff5cbf949580b410778cd9e4d1ecbe6f06a7fa8dc2441b57d958101959095526001600160a01b0390971696840196909652958201939093529384015260a08301526001600160401b031660c0820152600090610d699060e0015b6040516020818303038152906040528051906020012061126b565b905084606001516001600160a01b0316610d9182846000015185602001518660400151611298565b6001600160a01b031614610db857604051638baa579f60e01b815260040160405180910390fd5b5050505050565b60808101516001600160401b031615801590610df05750426001600160401b031681608001516001600160401b0316105b15610e0e57604051631ab7da6b60e01b815260040160405180910390fd5b60208101516040820151610e21816111ac565b6000610eef7fea02ffba7dcb45f6fc649714d23f315eef12e3b27f9a7735d8d8bf41eb2b1af160001b8560600151866000015186600001518760200151886040015189606001518a60800151805190602001208b60a001518d60800151604051602001610d4e9a99989796959493929190998a526001600160a01b0398891660208b015260408a01979097529490961660608801526001600160401b03928316608088015290151560a087015260c086015260e0850193909352610100840152166101208201526101400190565b905083606001516001600160a01b0316610f1782846000015185602001518660400151611298565b6001600160a01b031614610f3e57604051638baa579f60e01b815260040160405180910390fd5b50505050565b60606000610f51836112c0565b60010190506000816001600160401b03811115610f7057610f70611851565b6040519080825280601f01601f191660200182016040528015610f9a576020820181803683370190505b5090508181016020015b600019016f181899199a1a9b1b9c1cb0b131b232b360811b600a86061a8153600a8504945084610fa457509392505050565b606060ff8314610ff057610fe983611398565b9050610b1c565b818054610ffc90611c45565b80601f016020809104026020016040519081016040528092919081815260200182805461102890611c45565b80156110755780601f1061104a57610100808354040283529160200191611075565b820191906000526020600020905b81548152906001019060200180831161105857829003601f168201915b50505050509050610b1c565b6000306001600160a01b037f0000000000000000000000000000000000000000000000000000000000000000161480156110da57507f000000000000000000000000000000000000000000000000000000000000000046145b1561110457507f000000000000000000000000000000000000000000000000000000000000000090565b610c07604080517f8b73c3c69bb8fe3d512ecc4cf759cc79239f7b179b0ffacaa9a75d522b39400f60208201527f0000000000000000000000000000000000000000000000000000000000000000918101919091527f000000000000000000000000000000000000000000000000000000000000000060608201524660808201523060a082015260009060c00160405160208183030381529060405280519060200120905090565b8051602080830151604080850151905160f89490941b6001600160f81b031916928401929092526021830152604182015260009060610160405160208183030381529060405290506004816040516112049190612240565b9081526040519081900360200190205460ff16156112355760405163333a6a0960e21b815260040160405180910390fd5b60016004826040516112479190612240565b908152604051908190036020019020805491151560ff199092169190911790555050565b6000610b1c611278611081565b8360405161190160f01b8152600281019290925260228201526042902090565b60008060006112a9878787876113d7565b915091506112b68161149b565b5095945050505050565b60008072184f03e93ff9f4daa797ed6e38ed64bf6a1f0160401b83106112ff5772184f03e93ff9f4daa797ed6e38ed64bf6a1f0160401b830492506040015b6d04ee2d6d415b85acef8100000000831061132b576d04ee2d6d415b85acef8100000000830492506020015b662386f26fc10000831061134957662386f26fc10000830492506010015b6305f5e1008310611361576305f5e100830492506008015b612710831061137557612710830492506004015b60648310611387576064830492506002015b600a8310610b1c5760010192915050565b606060006113a5836115ed565b604080516020808252818301909252919250600091906020820181803683375050509182525060208101929092525090565b6000807f7fffffffffffffffffffffffffffffff5d576e7357a4501ddfe92f46681b20a083111561140e5750600090506003611492565b6040805160008082526020820180845289905260ff881692820192909252606081018690526080810185905260019060a0016020604051602081039080840390855afa158015611462573d6000803e3d6000fd5b5050604051601f1901519150506001600160a01b03811661148b57600060019250925050611492565b9150600090505b94509492505050565b60008160048111156114af576114af612252565b036114b75750565b60018160048111156114cb576114cb612252565b0361151d5760405162461bcd60e51b815260206004820152601860248201527f45434453413a20696e76616c6964207369676e6174757265000000000000000060448201526064015b60405180910390fd5b600281600481111561153157611531612252565b0361157e5760405162461bcd60e51b815260206004820152601f60248201527f45434453413a20696e76616c6964207369676e6174757265206c656e677468006044820152606401611514565b600381600481111561159257611592612252565b036115ea5760405162461bcd60e51b815260206004820152602260248201527f45434453413a20696e76616c6964207369676e6174757265202773272076616c604482015261756560f01b6064820152608401611514565b50565b600060ff8216601f811115610b1c57604051632cd44ac360e21b815260040160405180910390fd5b60008083601f84011261162757600080fd5b5081356001600160401b0381111561163e57600080fd5b6020830191508360208260051b850101111561165957600080fd5b9250929050565b6000806020838503121561167357600080fd5b82356001600160401b0381111561168957600080fd5b61169585828601611615565b90969095509350505050565b6000602082840312156116b357600080fd5b5035919050565b60005b838110156116d55781810151838201526020016116bd565b50506000910152565b600081518084526116f68160208601602086016116ba565b601f01601f19169290920160200192915050565b60208152600061171d60208301846116de565b9392505050565b60006020828403121561173657600080fd5b81356001600160401b0381111561174c57600080fd5b820160e0818503121561171d57600080fd5b60ff60f81b881681526000602060e08184015261177e60e084018a6116de565b8381036040850152611790818a6116de565b606085018990526001600160a01b038816608086015260a0850187905284810360c0860152855180825283870192509083019060005b818110156117e2578351835292840192918401916001016117c6565b50909c9b505050505050505050505050565b6020808252825182820181905260009190848201906040850190845b8181101561182c57835183529284019291840191600101611810565b50909695505050505050565b6000610100828403121561184b57600080fd5b50919050565b634e487b7160e01b600052604160045260246000fd5b634e487b7160e01b600052603260045260246000fd5b60008235609e1983360301811261189357600080fd5b9190910192915050565b60405160a081016001600160401b03811182821017156118bf576118bf611851565b60405290565b60405160c081016001600160401b03811182821017156118bf576118bf611851565b604051601f8201601f191681016001600160401b038111828210171561190f5761190f611851565b604052919050565b60006001600160401b0382111561193057611930611851565b5060051b60200190565b60006040828403121561194c57600080fd5b604051604081018181106001600160401b038211171561196e5761196e611851565b604052823581526020928301359281019290925250919050565b60006060828403121561199a57600080fd5b604051606081018181106001600160401b03821117156119bc576119bc611851565b604052905080823560ff811681146119d357600080fd5b8082525060208301356020820152604083013560408201525092915050565b600082601f830112611a0357600080fd5b81356020611a18611a1383611917565b6118e7565b82815260609283028501820192828201919087851115611a3757600080fd5b8387015b85811015611a5a57611a4d8982611988565b8452928401928101611a3b565b5090979650505050505050565b80356001600160a01b0381168114611a7e57600080fd5b919050565b80356001600160401b0381168114611a7e57600080fd5b600060a08236031215611aac57600080fd5b611ab461189d565b823581526020808401356001600160401b0380821115611ad357600080fd5b9085019036601f830112611ae657600080fd5b8135611af4611a1382611917565b81815260069190911b83018401908481019036831115611b1357600080fd5b938501935b82851015611b3c57611b2a368661193a565b82528582019150604085019450611b18565b80868801525050506040860135925080831115611b5857600080fd5b5050611b66368286016119f2565b604083015250611b7860608401611a67565b6060820152611b8960808401611a83565b608082015292915050565b60006020808301818452808551808352604092508286019150828160051b8701018488016000805b84811015611c3657898403603f19018652825180518552880151888501889052805188860181905290890190839060608701905b80831015611c2157611c0d82855180518252602090810151910152565b928b019260019290920191908a0190611bf0565b50978a01979550505091870191600101611bbc565b50919998505050505050505050565b600181811c90821680611c5957607f821691505b60208210810361184b57634e487b7160e01b600052602260045260246000fd5b600082601f830112611c8a57600080fd5b81356001600160401b03811115611ca357611ca3611851565b611cb6601f8201601f19166020016118e7565b818152846020838601011115611ccb57600080fd5b816020850160208301376000918101602001919091529392505050565b600060c08284031215611cfa57600080fd5b611d026118c5565b9050611d0d82611a67565b8152611d1b60208301611a83565b602082015260408201358015158114611d3357600080fd5b60408201526060828101359082015260808201356001600160401b03811115611d5b57600080fd5b611d6784828501611c79565b60808301525060a082013560a082015292915050565b600060e08236031215611d8f57600080fd5b611d9761189d565b8235815260208301356001600160401b03811115611db457600080fd5b611dc036828601611ce8565b602083015250611dd33660408501611988565b6040820152611de460a08401611a67565b6060820152611b8960c08401611a83565b6000823560be1983360301811261189357600080fd5b6000610b1c3683611ce8565b60018060a01b0381511682526001600160401b036020820151166020830152604081015115156040830152606081015160608301526000608082015160c06080850152611e6760c08501826116de565b60a093840151949093019390935250919050565b602081528151602082015260006020830151604080840152611ea06060840182611e17565b949350505050565b600060208284031215611eba57600080fd5b5051919050565b600060208284031215611ed357600080fd5b61171d82611a67565b60008451611eee8184602089016116ba565b8083019050601760f91b8082528551611f0e816001850160208a016116ba565b60019201918201528351611f298160028401602088016116ba565b0160020195945050505050565b6000808335601e19843603018112611f4d57600080fd5b8301803591506001600160401b03821115611f6757600080fd5b6020019150600581901b360382131561165957600080fd5b6000808335601e19843603018112611f9657600080fd5b8301803591506001600160401b03821115611fb057600080fd5b602001915060608102360382131561165957600080fd5b600060608284031215611fd957600080fd5b61171d8383611988565b600060208284031215611ff557600080fd5b61171d82611a83565b600061200c611a1384611917565b80848252602080830192508560051b85013681111561202a57600080fd5b855b818110156120655780356001600160401b0381111561204b5760008081fd5b61205736828a01611ce8565b86525093820193820161202c565b50919695505050505050565b602080825282518282018190526000919060409081850190600581811b8701840188860187805b8581101561211857603f198b85030187528251805185528901518985018990528051898601819052908a0190606081881b870181019190870190855b8181101561210257605f198985030183526120f0848651611e17565b948e01949350918d01916001016120d4565b505050978a019794505091880191600101612098565b50919a9950505050505050505050565b6000602080838503121561213b57600080fd5b82516001600160401b0381111561215157600080fd5b8301601f8101851361216257600080fd5b8051612170611a1382611917565b81815260059190911b8201830190838101908783111561218f57600080fd5b928401925b828410156121ad57835182529284019290840190612194565b979650505050505050565b600061010082840312156121cb57600080fd5b6121d361189d565b823581526121e4846020850161193a565b60208201526121f68460608501611988565b604082015261220760c08401611a67565b606082015261221860e08401611a83565b60808201529392505050565b60006040828403121561223657600080fd5b61171d838361193a565b600082516118938184602087016116ba565b634e487b7160e01b600052602160045260246000fdfea26469706673582212201ecc8c471364c5776af970334d7a731b9eccb34241d14506299a97b6d104aa3264736f6c63430008130033",
  "linkReferences": {},
  "deployedLinkReferences": {}
}