{
  "_format": "hh-sol-artifact-1",
  "contractName": "EthereumYearBadge",
  "sourceName": "src/badge/examples/EthereumYearBadge.sol",
  "abi": [
    {
      "inputs": [
        {
          "internalType": "address",
          "name": "resolver_",
          "type": "address"
        },
        {
          "internalType": "string",
          "name": "baseTokenURI_",
          "type": "string"
        }
      ],
      "stateMutability": "nonpayable",
      "type": "constructor"
    },
    {
      "inputs": [
        {
          "internalType": "bytes32",
          "name": "uid",
          "type": "bytes32"
        }
      ],
      "name": "AttestationBadgeMismatch",
      "type": "error"
    },
    {
      "inputs": [],
      "name": "ExpirationDisabled",
      "type": "error"
    },
    {
      "inputs": [],
      "name": "MissingPayload",
      "type": "error"
    },
    {
      "inputs": [],
      "name": "RevocationDisabled",
      "type": "error"
    },
    {
      "inputs": [],
      "name": "SingletonBadge",
      "type": "error"
    },
    {
      "inputs": [],
      "name": "Unauthorized",
      "type": "error"
    },
    {
      "anonymous": false,
      "inputs": [
        {
          "indexed": true,
          "internalType": "bytes32",
          "name": "uid",
          "type": "bytes32"
        }
      ],
      "name": "IssueBadge",
      "type": "event"
    },
    {
      "anonymous": false,
      "inputs": [
        {
          "indexed": true,
          "internalType": "address",
          "name": "previousOwner",
          "type": "address"
        },
        {
          "indexed": true,
          "internalType": "address",
          "name": "newOwner",
          "type": "address"
        }
      ],
      "name": "OwnershipTransferred",
      "type": "event"
    },
    {
      "anonymous": false,
      "inputs": [
        {
          "indexed": true,
          "internalType": "bytes32",
          "name": "uid",
          "type": "bytes32"
        }
      ],
      "name": "RevokeBadge",
      "type": "event"
    },
    {
      "inputs": [
        {
          "internalType": "bytes32",
          "name": "uid",
          "type": "bytes32"
        }
      ],
      "name": "badgeTokenURI",
      "outputs": [
        {
          "internalType": "string",
          "name": "",
          "type": "string"
        }
      ],
      "stateMutability": "view",
      "type": "function"
    },
    {
      "inputs": [],
      "name": "baseTokenURI",
      "outputs": [
        {
          "internalType": "string",
          "name": "",
          "type": "string"
        }
      ],
      "stateMutability": "view",
      "type": "function"
    },
    {
      "inputs": [
        {
          "internalType": "bytes32",
          "name": "uid",
          "type": "bytes32"
        }
      ],
      "name": "getAndValidateBadge",
      "outputs": [
        {
          "components": [
            {
              "internalType": "bytes32",
              "name": "uid",
              "type": "bytes32"
            },
            {
              "internalType": "bytes32",
              "name": "schema",
              "type": "bytes32"
            },
            {
              "internalType": "uint64",
              "name": "time",
              "type": "uint64"
            },
            {
              "internalType": "uint64",
              "name": "expirationTime",
              "type": "uint64"
            },
            {
              "internalType": "uint64",
              "name": "revocationTime",
              "type": "uint64"
            },
            {
              "internalType": "bytes32",
              "name": "refUID",
              "type": "bytes32"
            },
            {
              "internalType": "address",
              "name": "recipient",
              "type": "address"
            },
            {
              "internalType": "address",
              "name": "attester",
              "type": "address"
            },
            {
              "internalType": "bool",
              "name": "revocable",
              "type": "bool"
            },
            {
              "internalType": "bytes",
              "name": "data",
              "type": "bytes"
            }
          ],
          "internalType": "struct Attestation",
          "name": "",
          "type": "tuple"
        }
      ],
      "stateMutability": "view",
      "type": "function"
    },
    {
      "inputs": [
        {
          "components": [
            {
              "internalType": "bytes32",
              "name": "uid",
              "type": "bytes32"
            },
            {
              "internalType": "bytes32",
              "name": "schema",
              "type": "bytes32"
            },
            {
              "internalType": "uint64",
              "name": "time",
              "type": "uint64"
            },
            {
              "internalType": "uint64",
              "name": "expirationTime",
              "type": "uint64"
            },
            {
              "internalType": "uint64",
              "name": "revocationTime",
              "type": "uint64"
            },
            {
              "internalType": "bytes32",
              "name": "refUID",
              "type": "bytes32"
            },
            {
              "internalType": "address",
              "name": "recipient",
              "type": "address"
            },
            {
              "internalType": "address",
              "name": "attester",
              "type": "address"
            },
            {
              "internalType": "bool",
              "name": "revocable",
              "type": "bool"
            },
            {
              "internalType": "bytes",
              "name": "data",
              "type": "bytes"
            }
          ],
          "internalType": "struct Attestation",
          "name": "badge",
          "type": "tuple"
        }
      ],
      "name": "getPayload",
      "outputs": [
        {
          "internalType": "bytes",
          "name": "",
          "type": "bytes"
        }
      ],
      "stateMutability": "pure",
      "type": "function"
    },
    {
      "inputs": [],
      "name": "getSchema",
      "outputs": [
        {
          "internalType": "string",
          "name": "",
          "type": "string"
        }
      ],
      "stateMutability": "pure",
      "type": "function"
    },
    {
      "inputs": [
        {
          "internalType": "address",
          "name": "user",
          "type": "address"
        }
      ],
      "name": "hasBadge",
      "outputs": [
        {
          "internalType": "bool",
          "name": "",
          "type": "bool"
        }
      ],
      "stateMutability": "view",
      "type": "function"
    },
    {
      "inputs": [
        {
          "internalType": "address",
          "name": "",
          "type": "address"
        }
      ],
      "name": "isAttester",
      "outputs": [
        {
          "internalType": "bool",
          "name": "",
          "type": "bool"
        }
      ],
      "stateMutability": "view",
      "type": "function"
    },
    {
      "inputs": [
        {
          "components": [
            {
              "internalType": "bytes32",
              "name": "uid",
              "type": "bytes32"
            },
            {
              "internalType": "bytes32",
              "name": "schema",
              "type": "bytes32"
            },
            {
              "internalType": "uint64",
              "name": "time",
              "type": "uint64"
            },
            {
              "internalType": "uint64",
              "name": "expirationTime",
              "type": "uint64"
            },
            {
              "internalType": "uint64",
              "name": "revocationTime",
              "type": "uint64"
            },
            {
              "internalType": "bytes32",
              "name": "refUID",
              "type": "bytes32"
            },
            {
              "internalType": "address",
              "name": "recipient",
              "type": "address"
            },
            {
              "internalType": "address",
              "name": "attester",
              "type": "address"
            },
            {
              "internalType": "bool",
              "name": "revocable",
              "type": "bool"
            },
            {
              "internalType": "bytes",
              "name": "data",
              "type": "bytes"
            }
          ],
          "internalType": "struct Attestation",
          "name": "attestation",
          "type": "tuple"
        }
      ],
      "name": "issueBadge",
      "outputs": [
        {
          "internalType": "bool",
          "name": "",
          "type": "bool"
        }
      ],
      "stateMutability": "nonpayable",
      "type": "function"
    },
    {
      "inputs": [],
      "name": "owner",
      "outputs": [
        {
          "internalType": "address",
          "name": "",
          "type": "address"
        }
      ],
      "stateMutability": "view",
      "type": "function"
    },
    {
      "inputs": [],
      "name": "renounceOwnership",
      "outputs": [],
      "stateMutability": "nonpayable",
      "type": "function"
    },
    {
      "inputs": [],
      "name": "resolver",
      "outputs": [
        {
          "internalType": "address",
          "name": "",
          "type": "address"
        }
      ],
      "stateMutability": "view",
      "type": "function"
    },
    {
      "inputs": [
        {
          "components": [
            {
              "internalType": "bytes32",
              "name": "uid",
              "type": "bytes32"
            },
            {
              "internalType": "bytes32",
              "name": "schema",
              "type": "bytes32"
            },
            {
              "internalType": "uint64",
              "name": "time",
              "type": "uint64"
            },
            {
              "internalType": "uint64",
              "name": "expirationTime",
              "type": "uint64"
            },
            {
              "internalType": "uint64",
              "name": "revocationTime",
              "type": "uint64"
            },
            {
              "internalType": "bytes32",
              "name": "refUID",
              "type": "bytes32"
            },
            {
              "internalType": "address",
              "name": "recipient",
              "type": "address"
            },
            {
              "internalType": "address",
              "name": "attester",
              "type": "address"
            },
            {
              "internalType": "bool",
              "name": "revocable",
              "type": "bool"
            },
            {
              "internalType": "bytes",
              "name": "data",
              "type": "bytes"
            }
          ],
          "internalType": "struct Attestation",
          "name": "attestation",
          "type": "tuple"
        }
      ],
      "name": "revokeBadge",
      "outputs": [
        {
          "internalType": "bool",
          "name": "",
          "type": "bool"
        }
      ],
      "stateMutability": "nonpayable",
      "type": "function"
    },
    {
      "inputs": [
        {
          "internalType": "address",
          "name": "attester",
          "type": "address"
        },
        {
          "internalType": "bool",
          "name": "enable",
          "type": "bool"
        }
      ],
      "name": "toggleAttester",
      "outputs": [],
      "stateMutability": "nonpayable",
      "type": "function"
    },
    {
      "inputs": [
        {
          "internalType": "address",
          "name": "newOwner",
          "type": "address"
        }
      ],
      "name": "transferOwnership",
      "outputs": [],
      "stateMutability": "nonpayable",
      "type": "function"
    },
    {
      "inputs": [
        {
          "internalType": "string",
          "name": "baseTokenURI_",
          "type": "string"
        }
      ],
      "name": "updateBaseTokenURI",
      "outputs": [],
      "stateMutability": "nonpayable",
      "type": "function"
    }
  ],
  "bytecode": "0x60a06040523480156200001157600080fd5b506040516200178e3803806200178e8339810160408190526200003491620000c9565b81620000403362000063565b6001600160a01b031660805260036200005a82826200024e565b5050506200031a565b600080546001600160a01b038381166001600160a01b0319831681178455604051919092169283917f8be0079c531659141344cd1fd0a4f28419497f9722a3daafe3b4186f6b6457e09190a35050565b634e487b7160e01b600052604160045260246000fd5b60008060408385031215620000dd57600080fd5b82516001600160a01b0381168114620000f557600080fd5b602084810151919350906001600160401b03808211156200011557600080fd5b818601915086601f8301126200012a57600080fd5b8151818111156200013f576200013f620000b3565b604051601f8201601f19908116603f011681019083821181831017156200016a576200016a620000b3565b8160405282815289868487010111156200018357600080fd5b600093505b82841015620001a7578484018601518185018701529285019262000188565b60008684830101528096505050505050509250929050565b600181811c90821680620001d457607f821691505b602082108103620001f557634e487b7160e01b600052602260045260246000fd5b50919050565b601f8211156200024957600081815260208120601f850160051c81016020861015620002245750805b601f850160051c820191505b81811015620002455782815560010162000230565b5050505b505050565b81516001600160401b038111156200026a576200026a620000b3565b62000282816200027b8454620001bf565b84620001fb565b602080601f831160018114620002ba5760008415620002a15750858301515b600019600386901b1c1916600185901b17855562000245565b600085815260208120601f198616915b82811015620002eb57888601518255948401946001909101908401620002ca565b50858210156200030a5787850151600019600388901b60f8161c191681555b5050505050600190811b01905550565b6080516114446200034a6000396000818160ff01528181610363015281816104a101526105f801526114446000f3fe608060405234801561001057600080fd5b50600436106100f55760003560e01c80638298b03011610097578063d547cfb711610066578063d547cfb714610258578063d753a63d14610260578063f15b3bad14610273578063f2fde38b1461028657600080fd5b80638298b030146101f15780638c6f12f0146102045780638da5cb5b14610224578063b6ebe5391461023557600080fd5b80635e50864f116100d35780635e50864f14610173578063655391c9146101ae5780636b122fe0146101c1578063715018a6146101e957600080fd5b806304f3bcec146100fa5780630ee489481461013e5780632483056314610153575b600080fd5b6101217f000000000000000000000000000000000000000000000000000000000000000081565b6040516001600160a01b0390911681526020015b60405180910390f35b61015161014c366004610ba9565b610299565b005b610166610161366004610be2565b6102cc565b6040516101359190610c4b565b61019e610181366004610c65565b6001600160a01b0316600090815260016020526040902054151590565b6040519015158152602001610135565b6101516101bc366004610d56565b61032a565b60408051808201909152600c81526b3ab4b73a191a9b103cb2b0b960a11b6020820152610166565b610151610342565b61019e6101ff366004610d9e565b610356565b610217610212366004610be2565b610432565b6040516101359190610dd9565b6000546001600160a01b0316610121565b61019e610243366004610c65565b60026020526000908152604090205460ff1681565b61016661055d565b61019e61026e366004610d9e565b6105eb565b610166610281366004610fb4565b6106c7565b610151610294366004610c65565b6106e1565b6102a161075a565b6001600160a01b03919091166000908152600260205260409020805460ff1916911515919091179055565b606060006102d983610432565b905060006102e6826106c7565b905060006102f3826107b4565b90506003610300826107d0565b604051602001610311929190611022565b6040516020818303038152906040529350505050919050565b61033261075a565b600361033e8282611108565b5050565b61034a61075a565b6103546000610862565b565b6000336001600160a01b037f000000000000000000000000000000000000000000000000000000000000000016146103a0576040516282b42960e81b815260040160405180910390fd5b6103a9826108b2565b6103b557506000919050565b60018060006103ca60e0860160c08701610c65565b6001600160a01b03166001600160a01b0316815260200190815260200160002060008282546103f991906111dd565b90915550506040518235907f504e4727721de18c6bf7f66448a6ff6da00aa4b1f00b6034e71723ae7ce6373a90600090a2506001919050565b604080516101408101825260008082526020820181905281830181905260608083018290526080830182905260a0830182905260c0830182905260e08301829052610100830182905261012083015291516308c6f12f60e41b8152600481018490529091906001600160a01b037f00000000000000000000000000000000000000000000000000000000000000001690638c6f12f090602401600060405180830381865afa1580156104e8573d6000803e3d6000fd5b505050506040513d6000823e601f3d908101601f191682016040526105109190810190611256565b905060006105228261012001516108bd565b5090506001600160a01b03811630146105565760405163b923d26160e01b8152600481018590526024015b60405180910390fd5b5092915050565b6003805461056a90610fe8565b80601f016020809104026020016040519081016040528092919081815260200182805461059690610fe8565b80156105e35780601f106105b8576101008083540402835291602001916105e3565b820191906000526020600020905b8154815290600101906020018083116105c657829003601f168201915b505050505081565b6000336001600160a01b037f00000000000000000000000000000000000000000000000000000000000000001614610635576040516282b42960e81b815260040160405180910390fd5b61063e826108de565b61064a57506000919050565b600180600061065f60e0860160c08701610c65565b6001600160a01b03166001600160a01b03168152602001908152602001600020600082825461068e919061134c565b90915550506040518235907fa0785ec0b9bf31a5475d33c716fb9f500f0ea0bb9e4bc10ec39d5db763c1da1590600090a2506001919050565b606060006106d98361012001516108bd565b949350505050565b6106e961075a565b6001600160a01b03811661074e5760405162461bcd60e51b815260206004820152602660248201527f4f776e61626c653a206e6577206f776e657220697320746865207a65726f206160448201526564647265737360d01b606482015260840161054d565b61075781610862565b50565b6000546001600160a01b031633146103545760405162461bcd60e51b815260206004820181905260248201527f4f776e61626c653a2063616c6c6572206973206e6f7420746865206f776e6572604482015260640161054d565b6000818060200190518101906107ca919061135f565b92915050565b606060006107dd836108e9565b60010190506000816001600160401b038111156107fc576107fc610c82565b6040519080825280601f01601f191660200182016040528015610826576020820181803683370190505b5090508181016020015b600019016f181899199a1a9b1b9c1cb0b131b232b360811b600a86061a8153600a850494508461083057509392505050565b600080546001600160a01b038381166001600160a01b0319831681178455604051919092169283917f8be0079c531659141344cd1fd0a4f28419497f9722a3daafe3b4186f6b6457e09190a35050565b60006107ca826109c1565b60006060828060200190518101906108d59190611378565b91509150915091565b60006107ca826109cc565b60008072184f03e93ff9f4daa797ed6e38ed64bf6a1f0160401b83106109285772184f03e93ff9f4daa797ed6e38ed64bf6a1f0160401b830492506040015b6d04ee2d6d415b85acef81000000008310610954576d04ee2d6d415b85acef8100000000830492506020015b662386f26fc10000831061097257662386f26fc10000830492506010015b6305f5e100831061098a576305f5e100830492506008015b612710831061099e57612710830492506004015b606483106109b0576064830492506002015b600a83106107ca5760010192915050565b60006107ca82610a1c565b60006109d782610a27565b6109e357506000919050565b6109f661018160e0840160c08501610c65565b15610a1457604051630c59311960e11b815260040160405180910390fd5b506001919050565b60006107ca82610a6e565b6000610a3282610a79565b610a3e57506000919050565b610a50610120830161010084016113c8565b15610a14576040516313ff31ad60e11b815260040160405180910390fd5b60006107ca82610ac9565b6000610a8482610b19565b610a9057506000919050565b6000610aa260808401606085016113e5565b6001600160401b031614610a1457604051637bfd865360e11b815260040160405180910390fd5b600060026000610ae0610100850160e08601610c65565b6001600160a01b0316815260208101919091526040016000205460ff16610a14576040516282b42960e81b815260040160405180910390fd5b6000610b2482610ac9565b610b3057506000919050565b6000610b3e61028184611402565b90508051600003610b6257604051636de4b34760e01b815260040160405180910390fd5b50600192915050565b6001600160a01b038116811461075757600080fd5b8035610b8b81610b6b565b919050565b801515811461075757600080fd5b8035610b8b81610b90565b60008060408385031215610bbc57600080fd5b8235610bc781610b6b565b91506020830135610bd781610b90565b809150509250929050565b600060208284031215610bf457600080fd5b5035919050565b60005b83811015610c16578181015183820152602001610bfe565b50506000910152565b60008151808452610c37816020860160208601610bfb565b601f01601f19169290920160200192915050565b602081526000610c5e6020830184610c1f565b9392505050565b600060208284031215610c7757600080fd5b8135610c5e81610b6b565b634e487b7160e01b600052604160045260246000fd5b60405161014081016001600160401b0381118282101715610cbb57610cbb610c82565b60405290565b604051601f8201601f191681016001600160401b0381118282101715610ce957610ce9610c82565b604052919050565b60006001600160401b03821115610d0a57610d0a610c82565b50601f01601f191660200190565b6000610d2b610d2684610cf1565b610cc1565b9050828152838383011115610d3f57600080fd5b828260208301376000602084830101529392505050565b600060208284031215610d6857600080fd5b81356001600160401b03811115610d7e57600080fd5b8201601f81018413610d8f57600080fd5b6106d984823560208401610d18565b600060208284031215610db057600080fd5b81356001600160401b03811115610dc657600080fd5b82016101408185031215610c5e57600080fd5b60208152815160208201526020820151604082015260006040830151610e0a60608401826001600160401b03169052565b5060608301516001600160401b03811660808401525060808301516001600160401b03811660a08401525060a083015160c083015260c0830151610e5960e08401826001600160a01b03169052565b5060e0830151610100610e76818501836001600160a01b03169052565b8401519050610120610e8b8482018315159052565b8401516101408481015290506106d9610160840182610c1f565b6001600160401b038116811461075757600080fd5b8035610b8b81610ea5565b600082601f830112610ed657600080fd5b610c5e83833560208501610d18565b60006101408284031215610ef857600080fd5b610f00610c98565b90508135815260208201356020820152610f1c60408301610eba565b6040820152610f2d60608301610eba565b6060820152610f3e60808301610eba565b608082015260a082013560a0820152610f5960c08301610b80565b60c0820152610f6a60e08301610b80565b60e0820152610100610f7d818401610b9e565b90820152610120828101356001600160401b03811115610f9c57600080fd5b610fa885828601610ec5565b82840152505092915050565b600060208284031215610fc657600080fd5b81356001600160401b03811115610fdc57600080fd5b6106d984828501610ee5565b600181811c90821680610ffc57607f821691505b60208210810361101c57634e487b7160e01b600052602260045260246000fd5b50919050565b600080845461103081610fe8565b60018281168015611048576001811461105d5761108c565b60ff198416875282151583028701945061108c565b8860005260208060002060005b858110156110835781548a82015290840190820161106a565b50505082870194505b5050505083516110a0818360208801610bfb565b64173539b7b760d91b9101908152600501949350505050565b601f82111561110357600081815260208120601f850160051c810160208610156110e05750805b601f850160051c820191505b818110156110ff578281556001016110ec565b5050505b505050565b81516001600160401b0381111561112157611121610c82565b6111358161112f8454610fe8565b846110b9565b602080601f83116001811461116a57600084156111525750858301515b600019600386901b1c1916600185901b1785556110ff565b600085815260208120601f198616915b828110156111995788860151825594840194600190910190840161117a565b50858210156111b75787850151600019600388901b60f8161c191681555b5050505050600190811b01905550565b634e487b7160e01b600052601160045260246000fd5b818103818111156107ca576107ca6111c7565b8051610b8b81610ea5565b8051610b8b81610b6b565b8051610b8b81610b90565b600082601f83011261122257600080fd5b8151611230610d2682610cf1565b81815284602083860101111561124557600080fd5b6106d9826020830160208701610bfb565b60006020828403121561126857600080fd5b81516001600160401b038082111561127f57600080fd5b90830190610140828603121561129457600080fd5b61129c610c98565b82518152602083015160208201526112b6604084016111f0565b60408201526112c7606084016111f0565b60608201526112d8608084016111f0565b608082015260a083015160a08201526112f360c084016111fb565b60c082015261130460e084016111fb565b60e0820152610100611317818501611206565b90820152610120838101518381111561132f57600080fd5b61133b88828701611211565b918301919091525095945050505050565b808201808211156107ca576107ca6111c7565b60006020828403121561137157600080fd5b5051919050565b6000806040838503121561138b57600080fd5b825161139681610b6b565b60208401519092506001600160401b038111156113b257600080fd5b6113be85828601611211565b9150509250929050565b6000602082840312156113da57600080fd5b8135610c5e81610b90565b6000602082840312156113f757600080fd5b8135610c5e81610ea5565b60006107ca3683610ee556fea264697066735822122004f069f14c397e63d762ce34c7d1df09ac485baded678739f2b0e77c19625fa764736f6c63430008130033",
  "linkReferences": {},
  "deployedLinkReferences": {}
}