{
  "_format": "hh-sol-artifact-1",
  "contractName": "ProfileRegistry",
  "sourceName": "src/profile/ProfileRegistry.sol",
  "abi": [
    {
      "inputs": [],
      "stateMutability": "nonpayable",
      "type": "constructor"
    },
    {
      "inputs": [],
      "name": "CallerIsNotUserProfile",
      "type": "error"
    },
    {
      "inputs": [],
      "name": "DuplicatedUsername",
      "type": "error"
    },
    {
      "inputs": [],
      "name": "ExpiredSignature",
      "type": "error"
    },
    {
      "inputs": [],
      "name": "ImplementationNotContract",
      "type": "error"
    },
    {
      "inputs": [],
      "name": "InvalidReferrer",
      "type": "error"
    },
    {
      "inputs": [],
      "name": "InvalidSignature",
      "type": "error"
    },
    {
      "inputs": [],
      "name": "InvalidUsername",
      "type": "error"
    },
    {
      "inputs": [],
      "name": "MsgValueMismatchWithMintFee",
      "type": "error"
    },
    {
      "inputs": [],
      "name": "ProfileAlreadyMinted",
      "type": "error"
    },
    {
      "anonymous": false,
      "inputs": [],
      "name": "EIP712DomainChanged",
      "type": "event"
    },
    {
      "anonymous": false,
      "inputs": [
        {
          "indexed": false,
          "internalType": "uint8",
          "name": "version",
          "type": "uint8"
        }
      ],
      "name": "Initialized",
      "type": "event"
    },
    {
      "anonymous": false,
      "inputs": [
        {
          "indexed": true,
          "internalType": "address",
          "name": "account",
          "type": "address"
        },
        {
          "indexed": true,
          "internalType": "address",
          "name": "profile",
          "type": "address"
        },
        {
          "indexed": true,
          "internalType": "address",
          "name": "referrer",
          "type": "address"
        }
      ],
      "name": "MintProfile",
      "type": "event"
    },
    {
      "anonymous": false,
      "inputs": [
        {
          "indexed": true,
          "internalType": "address",
          "name": "previousOwner",
          "type": "address"
        },
        {
          "indexed": true,
          "internalType": "address",
          "name": "newOwner",
          "type": "address"
        }
      ],
      "name": "OwnershipTransferred",
      "type": "event"
    },
    {
      "anonymous": false,
      "inputs": [
        {
          "indexed": true,
          "internalType": "address",
          "name": "profile",
          "type": "address"
        },
        {
          "indexed": false,
          "internalType": "string",
          "name": "username",
          "type": "string"
        }
      ],
      "name": "RegisterUsername",
      "type": "event"
    },
    {
      "anonymous": false,
      "inputs": [
        {
          "indexed": true,
          "internalType": "address",
          "name": "profile",
          "type": "address"
        },
        {
          "indexed": false,
          "internalType": "string",
          "name": "username",
          "type": "string"
        }
      ],
      "name": "UnregisterUsername",
      "type": "event"
    },
    {
      "anonymous": false,
      "inputs": [
        {
          "indexed": false,
          "internalType": "string",
          "name": "oldAvatar",
          "type": "string"
        },
        {
          "indexed": false,
          "internalType": "string",
          "name": "newAvatar",
          "type": "string"
        }
      ],
      "name": "UpdateDefaultProfileAvatar",
      "type": "event"
    },
    {
      "anonymous": false,
      "inputs": [
        {
          "indexed": true,
          "internalType": "address",
          "name": "oldImplementation",
          "type": "address"
        },
        {
          "indexed": true,
          "internalType": "address",
          "name": "newImplementation",
          "type": "address"
        }
      ],
      "name": "UpdateProfileImplementation",
      "type": "event"
    },
    {
      "anonymous": false,
      "inputs": [
        {
          "indexed": true,
          "internalType": "address",
          "name": "oldSigner",
          "type": "address"
        },
        {
          "indexed": true,
          "internalType": "address",
          "name": "newSigner",
          "type": "address"
        }
      ],
      "name": "UpdateSigner",
      "type": "event"
    },
    {
      "anonymous": false,
      "inputs": [
        {
          "indexed": true,
          "internalType": "address",
          "name": "oldTreasury",
          "type": "address"
        },
        {
          "indexed": true,
          "internalType": "address",
          "name": "newTreasury",
          "type": "address"
        }
      ],
      "name": "UpdateTreasury",
      "type": "event"
    },
    {
      "inputs": [],
      "name": "MINT_FEE",
      "outputs": [
        {
          "internalType": "uint256",
          "name": "",
          "type": "uint256"
        }
      ],
      "stateMutability": "view",
      "type": "function"
    },
    {
      "inputs": [
        {
          "internalType": "bytes32[]",
          "name": "hashes",
          "type": "bytes32[]"
        }
      ],
      "name": "blacklistUsername",
      "outputs": [],
      "stateMutability": "nonpayable",
      "type": "function"
    },
    {
      "inputs": [],
      "name": "cloneableProxyHash",
      "outputs": [
        {
          "internalType": "bytes32",
          "name": "",
          "type": "bytes32"
        }
      ],
      "stateMutability": "view",
      "type": "function"
    },
    {
      "inputs": [],
      "name": "eip712Domain",
      "outputs": [
        {
          "internalType": "bytes1",
          "name": "fields",
          "type": "bytes1"
        },
        {
          "internalType": "string",
          "name": "name",
          "type": "string"
        },
        {
          "internalType": "string",
          "name": "version",
          "type": "string"
        },
        {
          "internalType": "uint256",
          "name": "chainId",
          "type": "uint256"
        },
        {
          "internalType": "address",
          "name": "verifyingContract",
          "type": "address"
        },
        {
          "internalType": "bytes32",
          "name": "salt",
          "type": "bytes32"
        },
        {
          "internalType": "uint256[]",
          "name": "extensions",
          "type": "uint256[]"
        }
      ],
      "stateMutability": "view",
      "type": "function"
    },
    {
      "inputs": [],
      "name": "getDefaultProfileAvatar",
      "outputs": [
        {
          "internalType": "string",
          "name": "",
          "type": "string"
        }
      ],
      "stateMutability": "view",
      "type": "function"
    },
    {
      "inputs": [
        {
          "internalType": "address",
          "name": "account",
          "type": "address"
        }
      ],
      "name": "getProfile",
      "outputs": [
        {
          "internalType": "address",
          "name": "",
          "type": "address"
        }
      ],
      "stateMutability": "view",
      "type": "function"
    },
    {
      "inputs": [],
      "name": "implementation",
      "outputs": [
        {
          "internalType": "address",
          "name": "",
          "type": "address"
        }
      ],
      "stateMutability": "view",
      "type": "function"
    },
    {
      "inputs": [
        {
          "internalType": "address",
          "name": "treasury_",
          "type": "address"
        },
        {
          "internalType": "address",
          "name": "signer_",
          "type": "address"
        },
        {
          "internalType": "address",
          "name": "profileImpl_",
          "type": "address"
        }
      ],
      "name": "initialize",
      "outputs": [],
      "stateMutability": "nonpayable",
      "type": "function"
    },
    {
      "inputs": [
        {
          "internalType": "address",
          "name": "",
          "type": "address"
        }
      ],
      "name": "isProfileMinted",
      "outputs": [
        {
          "internalType": "bool",
          "name": "",
          "type": "bool"
        }
      ],
      "stateMutability": "view",
      "type": "function"
    },
    {
      "inputs": [
        {
          "internalType": "string",
          "name": "username",
          "type": "string"
        }
      ],
      "name": "isUsernameUsed",
      "outputs": [
        {
          "internalType": "bool",
          "name": "",
          "type": "bool"
        }
      ],
      "stateMutability": "view",
      "type": "function"
    },
    {
      "inputs": [
        {
          "internalType": "string",
          "name": "username",
          "type": "string"
        },
        {
          "internalType": "bytes",
          "name": "referral",
          "type": "bytes"
        }
      ],
      "name": "mint",
      "outputs": [
        {
          "internalType": "address",
          "name": "",
          "type": "address"
        }
      ],
      "stateMutability": "payable",
      "type": "function"
    },
    {
      "inputs": [],
      "name": "owner",
      "outputs": [
        {
          "internalType": "address",
          "name": "",
          "type": "address"
        }
      ],
      "stateMutability": "view",
      "type": "function"
    },
    {
      "inputs": [
        {
          "internalType": "address",
          "name": "",
          "type": "address"
        }
      ],
      "name": "referrerData",
      "outputs": [
        {
          "internalType": "uint128",
          "name": "referred",
          "type": "uint128"
        },
        {
          "internalType": "uint128",
          "name": "earned",
          "type": "uint128"
        }
      ],
      "stateMutability": "view",
      "type": "function"
    },
    {
      "inputs": [
        {
          "internalType": "string",
          "name": "username",
          "type": "string"
        }
      ],
      "name": "registerUsername",
      "outputs": [],
      "stateMutability": "nonpayable",
      "type": "function"
    },
    {
      "inputs": [],
      "name": "renounceOwnership",
      "outputs": [],
      "stateMutability": "nonpayable",
      "type": "function"
    },
    {
      "inputs": [],
      "name": "signer",
      "outputs": [
        {
          "internalType": "address",
          "name": "",
          "type": "address"
        }
      ],
      "stateMutability": "view",
      "type": "function"
    },
    {
      "inputs": [
        {
          "internalType": "address",
          "name": "newOwner",
          "type": "address"
        }
      ],
      "name": "transferOwnership",
      "outputs": [],
      "stateMutability": "nonpayable",
      "type": "function"
    },
    {
      "inputs": [],
      "name": "treasury",
      "outputs": [
        {
          "internalType": "address",
          "name": "",
          "type": "address"
        }
      ],
      "stateMutability": "view",
      "type": "function"
    },
    {
      "inputs": [
        {
          "internalType": "string",
          "name": "username",
          "type": "string"
        }
      ],
      "name": "unregisterUsername",
      "outputs": [],
      "stateMutability": "nonpayable",
      "type": "function"
    },
    {
      "inputs": [
        {
          "internalType": "string",
          "name": "newAvatar",
          "type": "string"
        }
      ],
      "name": "updateDefaultProfileAvatar",
      "outputs": [],
      "stateMutability": "nonpayable",
      "type": "function"
    },
    {
      "inputs": [
        {
          "internalType": "address",
          "name": "newImplementation",
          "type": "address"
        }
      ],
      "name": "updateProfileImplementation",
      "outputs": [],
      "stateMutability": "nonpayable",
      "type": "function"
    },
    {
      "inputs": [
        {
          "internalType": "address",
          "name": "newSigner",
          "type": "address"
        }
      ],
      "name": "updateSigner",
      "outputs": [],
      "stateMutability": "nonpayable",
      "type": "function"
    },
    {
      "inputs": [
        {
          "internalType": "address",
          "name": "newTreasury",
          "type": "address"
        }
      ],
      "name": "updateTreasury",
      "outputs": [],
      "stateMutability": "nonpayable",
      "type": "function"
    }
  ],
  "bytecode": "0x608060405234801561001057600080fd5b5061001961001e565b6100dd565b600054610100900460ff161561008a5760405162461bcd60e51b815260206004820152602760248201527f496e697469616c697a61626c653a20636f6e747261637420697320696e697469604482015266616c697a696e6760c81b606482015260840160405180910390fd5b60005460ff908116146100db576000805460ff191660ff9081179091556040519081527f7f26b83ff96e1f2b6a682f133852f6798a09c465da95921460cefb38474024989060200160405180910390a15b565b61289d80620000ed6000396000f3fe6080604052600436106200015b5760003560e01c806384b0196e11620000c5578063d2f1c8b51162000078578063d2f1c8b51462000427578063d7bf81a3146200044c578063dd99ee6c1462000469578063efc2c147146200049d578063f177db9314620004c4578063f2fde38b14620004e957600080fd5b806384b0196e1462000303578063883ed24a14620003305780638da5cb5b146200039657806397881f8d14620003b6578063a7ecd37e14620003dd578063c0c53b8b146200040257600080fd5b806337320618116200011e5780633732061814620002355780634737576e146200026b5780635c60da1b146200028257806361d027b314620002a4578063715018a614620002c65780637f51bb1f14620002de57600080fd5b80630a2e285014620001605780630f53a4701462000187578063238ac93314620001c95780632b0af9a814620001eb57806336a941341462000210575b600080fd5b3480156200016d57600080fd5b50620001856200017f36600462001b61565b6200050e565b005b3480156200019457600080fd5b50620001ac620001a636600462001bcd565b620005a8565b6040516001600160a01b0390911681526020015b60405180910390f35b348015620001d657600080fd5b50609a54620001ac906001600160a01b031681565b348015620001f857600080fd5b50620001856200020a36600462001bed565b62000619565b3480156200021d57600080fd5b50620001856200022f36600462001b61565b62000692565b3480156200024257600080fd5b506200025a6200025436600462001ce3565b62000766565b6040519015158152602001620001c0565b620001ac6200027c36600462001d29565b6200079d565b3480156200028f57600080fd5b50609b54620001ac906001600160a01b031681565b348015620002b157600080fd5b50609954620001ac906001600160a01b031681565b348015620002d357600080fd5b506200018562000a74565b348015620002eb57600080fd5b5062000185620002fd36600462001bcd565b62000a8c565b3480156200031057600080fd5b506200031b62000aa4565b604051620001c0979695949392919062001e02565b3480156200033d57600080fd5b50620003756200034f36600462001bcd565b609f602052600090815260409020546001600160801b0380821691600160801b90041682565b604080516001600160801b03938416815292909116602083015201620001c0565b348015620003a357600080fd5b506033546001600160a01b0316620001ac565b348015620003c357600080fd5b50620003ce62000b4d565b604051908152602001620001c0565b348015620003ea57600080fd5b5062000185620003fc36600462001bcd565b62000b7c565b3480156200040f57600080fd5b50620001856200042136600462001e9e565b62000b91565b3480156200043457600080fd5b50620001856200044636600462001bcd565b62000d25565b3480156200045957600080fd5b50620003ce66038d7ea4c6800081565b3480156200047657600080fd5b506200025a6200048836600462001bcd565b609c6020526000908152604090205460ff1681565b348015620004aa57600080fd5b50620004b562000d3a565b604051620001c0919062001ef0565b348015620004d157600080fd5b5062000185620004e336600462001b61565b62000dd4565b348015620004f657600080fd5b50620001856200050836600462001bcd565b62000ec6565b336000908152609c602052604090205460ff166200053f57604051637d817b4b60e11b815260040160405180910390fd5b80516020808301919091206000818152609d9092526040909120805460ff19169055336001600160a01b03167fa02b8d523e474e188fb07eb99f8c34c8c31f3acc535b5db6c330e7bde2659050836040516200059c919062001ef0565b60405180910390a25050565b604080516001600160a01b0383166020820152600091829101604051602081830303815290604052805190602001209050620006128160405180602001620005f09062001a9b565b6020820181038252601f19601f82011660405250805190602001203062000f42565b9392505050565b6200062362000f6c565b60005b81518110156200068e576001609d60008484815181106200064b576200064b62001f05565b6020026020010151815260200190815260200160002060006101000a81548160ff0219169083151502179055508080620006859062001f31565b91505062000626565b5050565b336000908152609c602052604090205460ff16620006c357604051637d817b4b60e11b815260040160405180910390fd5b620006ce8162000fc8565b80516020808301919091206000818152609d90925260409091205460ff16156200070b576040516301a6ec1560e41b815260040160405180910390fd5b6000818152609d60205260409020805460ff191660011790556200072c3390565b6001600160a01b03167f5cd548d1979fb1856be55015fe33756789e141a110f9fe7cb89bb3f59d8c20e8836040516200059c919062001ef0565b60008083836040516200077b92919062001f4d565b60408051918290039091206000908152609d602052205460ff16949350505050565b60995481516000916001600160a01b031690829066038d7ea4c6800090156200091c576000606086806020019051810190620007da919062001f5d565b9196509250905042821015620008035760405163df4cc36d60e01b815260040160405180910390fd5b609c60006200081287620005a8565b6001600160a01b0316815260208101919091526040016000205460ff166200084d57604051630c22084560e31b815260040160405180910390fd5b604080517f09356219c516c24d858ed8a09fca128665d626fe2627c79ed8d8943c069a49926020808301919091526001600160a01b0388168284015233606083015260808083018690528351808403909101815260a090920190925280519101206000620008bb82620011a3565b90506000620008cb8285620011d9565b609a549091506001600160a01b03808316911614620008fd57604051638baa579f60e01b815260040160405180910390fd5b62000911600266038d7ea4c6800062001ffe565b955087965050505050505b8034146200093d5760405163d93675ed60e01b815260040160405180910390fd5b62000949838262001201565b609c60006200095833620005a8565b6001600160a01b0316815260208101919091526040016000205460ff16156200099457604051636a752df960e01b815260040160405180910390fd5b6001600160a01b0382161562000a5b576001600160a01b0382166000908152609f60209081526040918290208251808401909352546001600160801b03808216808552600160801b90920416918301919091526001908290620009f990839062002021565b6001600160801b031690525060208101805183919062000a1b90839062002021565b6001600160801b039081169091526001600160a01b0385166000908152609f60209081526040909120845191909401518216600160801b02911617909155505b62000a693388888562001325565b979650505050505050565b62000a7e62000f6c565b62000a8a60006200145f565b565b62000a9662000f6c565b62000aa181620014b1565b50565b6000606080600080600060606065546000801b14801562000ac55750606654155b62000b0f5760405162461bcd60e51b81526020600482015260156024820152741152540dcc4c8e88155b9a5b9a5d1a585b1a5e9959605a1b60448201526064015b60405180910390fd5b62000b1962001503565b62000b2362001514565b60408051600080825260208201909252600f60f81b9b939a50919850469750309650945092509050565b60405162000b5e6020820162001a9b565b6020820181038252601f19601f820116604052508051906020012081565b62000b8662000f6c565b62000aa18162001525565b600054610100900460ff161580801562000bb25750600054600160ff909116105b8062000bce5750303b15801562000bce575060005460ff166001145b62000c335760405162461bcd60e51b815260206004820152602e60248201527f496e697469616c697a61626c653a20636f6e747261637420697320616c72656160448201526d191e481a5b9a5d1a585b1a5e995960921b606482015260840162000b06565b6000805460ff19166001179055801562000c57576000805461ff0019166101001790555b62000c6162001577565b62000c6b620015a1565b62000cb76040518060400160405280600f81526020016e50726f66696c65526567697374727960881b815250604051806040016040528060018152602001603160f81b815250620015d5565b62000cc284620014b1565b62000ccd8362001525565b62000cd8826200160b565b801562000d1f576000805461ff0019169055604051600181527f7f26b83ff96e1f2b6a682f133852f6798a09c465da95921460cefb38474024989060200160405180910390a15b50505050565b62000d2f62000f6c565b62000aa1816200160b565b6060609e805462000d4b906200204b565b80601f016020809104026020016040519081016040528092919081815260200182805462000d79906200204b565b801562000dca5780601f1062000d9e5761010080835404028352916020019162000dca565b820191906000526020600020905b81548152906001019060200180831162000dac57829003601f168201915b5050505050905090565b62000dde62000f6c565b6000609e805462000def906200204b565b80601f016020809104026020016040519081016040528092919081815260200182805462000e1d906200204b565b801562000e6e5780601f1062000e425761010080835404028352916020019162000e6e565b820191906000526020600020905b81548152906001019060200180831162000e5057829003601f168201915b5050505050905081609e908162000e869190620020d9565b507f45b7a14538004f828b84c10de2df26b32c5ac9b929da43ded89c3de77b221c5b818360405162000eba929190620021a6565b60405180910390a15050565b62000ed062000f6c565b6001600160a01b03811662000f375760405162461bcd60e51b815260206004820152602660248201527f4f776e61626c653a206e6577206f776e657220697320746865207a65726f206160448201526564647265737360d01b606482015260840162000b06565b62000aa1816200145f565b6000604051836040820152846020820152828152600b8101905060ff815360559020949350505050565b6033546001600160a01b0316331462000a8a5760405162461bcd60e51b815260206004820181905260248201527f4f776e61626c653a2063616c6c6572206973206e6f7420746865206f776e6572604482015260640162000b06565b80518190600481108062000fdc5750600f81115b1562000ffb57604051630a1de65160e31b815260040160405180910390fd5b60005b8181101562000d1f578281815181106200101c576200101c62001f05565b01602001516001600160f81b031916606160f81b118015906200106957508251603d60f91b9084908390811062001057576200105762001f05565b01602001516001600160f81b03191611155b80620010d2575082818151811062001085576200108562001f05565b01602001516001600160f81b031916604160f81b11801590620010d257508251602d60f91b90849083908110620010c057620010c062001f05565b01602001516001600160f81b03191611155b806200113b5750828181518110620010ee57620010ee62001f05565b01602001516001600160f81b031916600360fc1b118015906200113b57508251603960f81b9084908390811062001129576200112962001f05565b01602001516001600160f81b03191611155b806200117057508251605f60f81b908490839081106200115f576200115f62001f05565b01602001516001600160f81b031916145b6200118e57604051630a1de65160e31b815260040160405180910390fd5b806200119a8162001f31565b91505062000ffe565b6000620011d3620011b362001686565b8360405161190160f01b8152600281019290925260228201526042902090565b92915050565b6000806000620011ea858562001697565b91509150620011f981620016e0565b509392505050565b80471015620012535760405162461bcd60e51b815260206004820152601d60248201527f416464726573733a20696e73756666696369656e742062616c616e6365000000604482015260640162000b06565b6000826001600160a01b03168260405160006040518083038185875af1925050503d8060008114620012a2576040519150601f19603f3d011682016040523d82523d6000602084013e620012a7565b606091505b5050905080620013205760405162461bcd60e51b815260206004820152603a60248201527f416464726573733a20756e61626c6520746f2073656e642076616c75652c207260448201527f6563697069656e74206d61792068617665207265766572746564000000000000606482015260840162000b06565b505050565b604080516001600160a01b0386166020820152600091829101604051602081830303815290604052805190602001209050600081604051620013679062001a9b565b8190604051809103906000f590508015801562001388573d6000803e3d6000fd5b506001600160a01b0381166000818152609c602052604090819020805460ff19166001179055516379ccf11760e11b81529192509063f399e22e90620013d7908a908a908a90600401620021d8565b600060405180830381600087803b158015620013f257600080fd5b505af115801562001407573d6000803e3d6000fd5b50505050836001600160a01b0316816001600160a01b0316886001600160a01b03167fd50c77055d52c0f7dd33d7f6b6271c5d81077a69afa0bbc0808e782f855a4ce760405160405180910390a49695505050505050565b603380546001600160a01b038381166001600160a01b0319831681179093556040519116919082907f8be0079c531659141344cd1fd0a4f28419497f9722a3daafe3b4186f6b6457e090600090a35050565b609980546001600160a01b038381166001600160a01b0319831681179093556040519116919082907fd101a15f9e9364a1c0a7c4cc8eb4cd9220094e83353915b0c74e09f72ec73edb90600090a35050565b60606067805462000d4b906200204b565b60606068805462000d4b906200204b565b609a80546001600160a01b038381166001600160a01b0319831681179093556040519116919082907f72959271bae82854684905271432777342373a732ba892607d189cbf5049086f90600090a35050565b600054610100900460ff1662000a8a5760405162461bcd60e51b815260040162000b069062002218565b600054610100900460ff16620015cb5760405162461bcd60e51b815260040162000b069062002218565b62000a8a6200183d565b600054610100900460ff16620015ff5760405162461bcd60e51b815260040162000b069062002218565b6200068e828262001872565b6001600160a01b0381163b6200163457604051630f994e6160e41b815260040160405180910390fd5b609b80546001600160a01b038381166001600160a01b0319831681179093556040519116919082907f1a96d3e54d44d5f39f855101f288938329860c82ad3b786d13268a6c3cb2767090600090a35050565b600062001692620018c8565b905090565b6000808251604103620016d15760208301516040840151606085015160001a620016c48782858562001940565b94509450505050620016d9565b506000905060025b9250929050565b6000816004811115620016f757620016f762002263565b03620017005750565b600181600481111562001717576200171762002263565b03620017665760405162461bcd60e51b815260206004820152601860248201527f45434453413a20696e76616c6964207369676e61747572650000000000000000604482015260640162000b06565b60028160048111156200177d576200177d62002263565b03620017cc5760405162461bcd60e51b815260206004820152601f60248201527f45434453413a20696e76616c6964207369676e6174757265206c656e67746800604482015260640162000b06565b6003816004811115620017e357620017e362002263565b0362000aa15760405162461bcd60e51b815260206004820152602260248201527f45434453413a20696e76616c6964207369676e6174757265202773272076616c604482015261756560f01b606482015260840162000b06565b600054610100900460ff16620018675760405162461bcd60e51b815260040162000b069062002218565b62000a8a336200145f565b600054610100900460ff166200189c5760405162461bcd60e51b815260040162000b069062002218565b6067620018aa8382620020d9565b506068620018b98282620020d9565b50506000606581905560665550565b60007f8b73c3c69bb8fe3d512ecc4cf759cc79239f7b179b0ffacaa9a75d522b39400f620018f562001a09565b620018ff62001a66565b60408051602081019490945283019190915260608201524660808201523060a082015260c00160405160208183030381529060405280519060200120905090565b6000807f7fffffffffffffffffffffffffffffff5d576e7357a4501ddfe92f46681b20a083111562001979575060009050600362001a00565b6040805160008082526020820180845289905260ff881692820192909252606081018690526080810185905260019060a0016020604051602081039080840390855afa158015620019ce573d6000803e3d6000fd5b5050604051601f1901519150506001600160a01b038116620019f95760006001925092505062001a00565b9150600090505b94509492505050565b60008062001a1662001503565b80519091501562001a2e578051602090910120919050565b606554801562001a3e5792915050565b7fc5d2460186f7233c927e7db2dcc703c0e500b653ca82273b7bfad8045d85a4709250505090565b60008062001a7362001514565b80519091501562001a8b578051602090910120919050565b606654801562001a3e5792915050565b6105ee806200227a83390190565b634e487b7160e01b600052604160045260246000fd5b604051601f8201601f1916810167ffffffffffffffff8111828210171562001aeb5762001aeb62001aa9565b604052919050565b600067ffffffffffffffff82111562001b105762001b1062001aa9565b50601f01601f191660200190565b600062001b3562001b2f8462001af3565b62001abf565b905082815283838301111562001b4a57600080fd5b828260208301376000602084830101529392505050565b60006020828403121562001b7457600080fd5b813567ffffffffffffffff81111562001b8c57600080fd5b8201601f8101841362001b9e57600080fd5b62001baf8482356020840162001b1e565b949350505050565b6001600160a01b038116811462000aa157600080fd5b60006020828403121562001be057600080fd5b8135620006128162001bb7565b6000602080838503121562001c0157600080fd5b823567ffffffffffffffff8082111562001c1a57600080fd5b818501915085601f83011262001c2f57600080fd5b81358181111562001c445762001c4462001aa9565b8060051b915062001c5784830162001abf565b818152918301840191848101908884111562001c7257600080fd5b938501935b8385101562001c925784358252938501939085019062001c77565b98975050505050505050565b60008083601f84011262001cb157600080fd5b50813567ffffffffffffffff81111562001cca57600080fd5b602083019150836020828501011115620016d957600080fd5b6000806020838503121562001cf757600080fd5b823567ffffffffffffffff81111562001d0f57600080fd5b62001d1d8582860162001c9e565b90969095509350505050565b60008060006040848603121562001d3f57600080fd5b833567ffffffffffffffff8082111562001d5857600080fd5b62001d668783880162001c9e565b9095509350602086013591508082111562001d8057600080fd5b508401601f8101861362001d9357600080fd5b62001da48682356020840162001b1e565b9150509250925092565b60005b8381101562001dcb57818101518382015260200162001db1565b50506000910152565b6000815180845262001dee81602086016020860162001dae565b601f01601f19169290920160200192915050565b60ff60f81b881681526000602060e08184015262001e2460e084018a62001dd4565b838103604085015262001e38818a62001dd4565b606085018990526001600160a01b038816608086015260a0850187905284810360c0860152855180825283870192509083019060005b8181101562001e8c5783518352928401929184019160010162001e6e565b50909c9b505050505050505050505050565b60008060006060848603121562001eb457600080fd5b833562001ec18162001bb7565b9250602084013562001ed38162001bb7565b9150604084013562001ee58162001bb7565b809150509250925092565b60208152600062000612602083018462001dd4565b634e487b7160e01b600052603260045260246000fd5b634e487b7160e01b600052601160045260246000fd5b60006001820162001f465762001f4662001f1b565b5060010190565b8183823760009101908152919050565b60008060006060848603121562001f7357600080fd5b835162001f808162001bb7565b60208501516040860151919450925067ffffffffffffffff81111562001fa557600080fd5b8401601f8101861362001fb757600080fd5b805162001fc862001b2f8262001af3565b81815287602083850101111562001fde57600080fd5b62001ff182602083016020860162001dae565b8093505050509250925092565b6000826200201c57634e487b7160e01b600052601260045260246000fd5b500490565b6001600160801b0381811683821601908082111562002044576200204462001f1b565b5092915050565b600181811c908216806200206057607f821691505b6020821081036200208157634e487b7160e01b600052602260045260246000fd5b50919050565b601f8211156200132057600081815260208120601f850160051c81016020861015620020b05750805b601f850160051c820191505b81811015620020d157828155600101620020bc565b505050505050565b815167ffffffffffffffff811115620020f657620020f662001aa9565b6200210e816200210784546200204b565b8462002087565b602080601f8311600181146200214657600084156200212d5750858301515b600019600386901b1c1916600185901b178555620020d1565b600085815260208120601f198616915b82811015620021775788860151825594840194600190910190840162002156565b5085821015620021965787850151600019600388901b60f8161c191681555b5050505050600190811b01905550565b604081526000620021bb604083018562001dd4565b8281036020840152620021cf818562001dd4565b95945050505050565b6001600160a01b03841681526040602082018190528101829052818360608301376000818301606090810191909152601f909201601f1916010192915050565b6020808252602b908201527f496e697469616c697a61626c653a20636f6e7472616374206973206e6f74206960408201526a6e697469616c697a696e6760a81b606082015260800190565b634e487b7160e01b600052602160045260246000fdfe608060405234801561001057600080fd5b5033604051806020016040528060008152506100348282600061003b60201b60201c565b505061046c565b610044836100fc565b6040516001600160a01b038416907f1cf3b03a6cf19fa2baba4df148e9dcabedea7f8a5c07840e207e5c089be95d3e90600090a26000825111806100855750805b156100f7576100f5836001600160a01b0316635c60da1b6040518163ffffffff1660e01b8152600401602060405180830381865afa1580156100cb573d6000803e3d6000fd5b505050506040513d601f19601f820116820180604052508101906100ef91906103d0565b83610280565b505b505050565b6001600160a01b0381163b6101665760405162461bcd60e51b815260206004820152602560248201527f455243313936373a206e657720626561636f6e206973206e6f74206120636f6e6044820152641d1c9858dd60da1b60648201526084015b60405180910390fd5b6101da816001600160a01b0316635c60da1b6040518163ffffffff1660e01b8152600401602060405180830381865afa1580156101a7573d6000803e3d6000fd5b505050506040513d601f19601f820116820180604052508101906101cb91906103d0565b6001600160a01b03163b151590565b61023f5760405162461bcd60e51b815260206004820152603060248201527f455243313936373a20626561636f6e20696d706c656d656e746174696f6e206960448201526f1cc81b9bdd08184818dbdb9d1c9858dd60821b606482015260840161015d565b7fa3f0ad74e5423aebfd80d3ef4346578335a9a72aeaee59ff6cb3582b35133d5080546001600160a01b0319166001600160a01b0392909216919091179055565b60606102a583836040518060600160405280602781526020016105c7602791396102ac565b9392505050565b6060600080856001600160a01b0316856040516102c9919061041d565b600060405180830381855af49150503d8060008114610304576040519150601f19603f3d011682016040523d82523d6000602084013e610309565b606091505b50909250905061031b86838387610325565b9695505050505050565b6060831561039457825160000361038d576001600160a01b0385163b61038d5760405162461bcd60e51b815260206004820152601d60248201527f416464726573733a2063616c6c20746f206e6f6e2d636f6e7472616374000000604482015260640161015d565b508161039e565b61039e83836103a6565b949350505050565b8151156103b65781518083602001fd5b8060405162461bcd60e51b815260040161015d9190610439565b6000602082840312156103e257600080fd5b81516001600160a01b03811681146102a557600080fd5b60005b838110156104145781810151838201526020016103fc565b50506000910152565b6000825161042f8184602087016103f9565b9190910192915050565b60208152600082518060208401526104588160408501602087016103f9565b601f01601f19169190910160400192915050565b61014c8061047b6000396000f3fe60806040523661001357610011610017565b005b6100115b610027610022610029565b6100c2565b565b600061005c7fa3f0ad74e5423aebfd80d3ef4346578335a9a72aeaee59ff6cb3582b35133d50546001600160a01b031690565b6001600160a01b0316635c60da1b6040518163ffffffff1660e01b8152600401602060405180830381865afa158015610099573d6000803e3d6000fd5b505050506040513d601f19601f820116820180604052508101906100bd91906100e6565b905090565b3660008037600080366000845af43d6000803e8080156100e1573d6000f35b3d6000fd5b6000602082840312156100f857600080fd5b81516001600160a01b038116811461010f57600080fd5b939250505056fea2646970667358221220e5d0440dc9cf8086fb0401f67d9f28d82782ce9c06015db25dddcaa15e3812c364736f6c63430008130033416464726573733a206c6f772d6c6576656c2064656c65676174652063616c6c206661696c6564a26469706673582212209d12beda781f17717b2eedbe2844ce6f9bc57b536e3a93bce8709aecb0b47e8464736f6c63430008130033",
  "linkReferences": {},
  "deployedLinkReferences": {}
}