{
  "_format": "hh-sol-artifact-1",
  "contractName": "ScrollBadgeLevels",
  "sourceName": "src/badge/examples/ScrollBadgeLevels.sol",
  "abi": [
    {
      "inputs": [
        {
          "internalType": "address",
          "name": "resolver_",
          "type": "address"
        },
        {
          "internalType": "string",
          "name": "_defaultBadgeURI",
          "type": "string"
        }
      ],
      "stateMutability": "nonpayable",
      "type": "constructor"
    },
    {
      "inputs": [
        {
          "internalType": "bytes32",
          "name": "uid",
          "type": "bytes32"
        }
      ],
      "name": "AttestationBadgeMismatch",
      "type": "error"
    },
    {
      "inputs": [],
      "name": "MissingPayload",
      "type": "error"
    },
    {
      "inputs": [],
      "name": "Unauthorized",
      "type": "error"
    },
    {
      "anonymous": false,
      "inputs": [
        {
          "indexed": true,
          "internalType": "bytes32",
          "name": "uid",
          "type": "bytes32"
        }
      ],
      "name": "IssueBadge",
      "type": "event"
    },
    {
      "anonymous": false,
      "inputs": [
        {
          "indexed": true,
          "internalType": "address",
          "name": "previousOwner",
          "type": "address"
        },
        {
          "indexed": true,
          "internalType": "address",
          "name": "newOwner",
          "type": "address"
        }
      ],
      "name": "OwnershipTransferred",
      "type": "event"
    },
    {
      "anonymous": false,
      "inputs": [
        {
          "indexed": true,
          "internalType": "bytes32",
          "name": "uid",
          "type": "bytes32"
        }
      ],
      "name": "RevokeBadge",
      "type": "event"
    },
    {
      "inputs": [
        {
          "internalType": "bytes32",
          "name": "uid",
          "type": "bytes32"
        }
      ],
      "name": "badgeTokenURI",
      "outputs": [
        {
          "internalType": "string",
          "name": "",
          "type": "string"
        }
      ],
      "stateMutability": "view",
      "type": "function"
    },
    {
      "inputs": [],
      "name": "defaultBadgeURI",
      "outputs": [
        {
          "internalType": "string",
          "name": "",
          "type": "string"
        }
      ],
      "stateMutability": "view",
      "type": "function"
    },
    {
      "inputs": [
        {
          "internalType": "bytes32",
          "name": "uid",
          "type": "bytes32"
        }
      ],
      "name": "getAndValidateBadge",
      "outputs": [
        {
          "components": [
            {
              "internalType": "bytes32",
              "name": "uid",
              "type": "bytes32"
            },
            {
              "internalType": "bytes32",
              "name": "schema",
              "type": "bytes32"
            },
            {
              "internalType": "uint64",
              "name": "time",
              "type": "uint64"
            },
            {
              "internalType": "uint64",
              "name": "expirationTime",
              "type": "uint64"
            },
            {
              "internalType": "uint64",
              "name": "revocationTime",
              "type": "uint64"
            },
            {
              "internalType": "bytes32",
              "name": "refUID",
              "type": "bytes32"
            },
            {
              "internalType": "address",
              "name": "recipient",
              "type": "address"
            },
            {
              "internalType": "address",
              "name": "attester",
              "type": "address"
            },
            {
              "internalType": "bool",
              "name": "revocable",
              "type": "bool"
            },
            {
              "internalType": "bytes",
              "name": "data",
              "type": "bytes"
            }
          ],
          "internalType": "struct Attestation",
          "name": "",
          "type": "tuple"
        }
      ],
      "stateMutability": "view",
      "type": "function"
    },
    {
      "inputs": [
        {
          "internalType": "bytes32",
          "name": "uid",
          "type": "bytes32"
        }
      ],
      "name": "getCurrentLevel",
      "outputs": [
        {
          "internalType": "uint8",
          "name": "",
          "type": "uint8"
        }
      ],
      "stateMutability": "view",
      "type": "function"
    },
    {
      "inputs": [
        {
          "components": [
            {
              "internalType": "bytes32",
              "name": "uid",
              "type": "bytes32"
            },
            {
              "internalType": "bytes32",
              "name": "schema",
              "type": "bytes32"
            },
            {
              "internalType": "uint64",
              "name": "time",
              "type": "uint64"
            },
            {
              "internalType": "uint64",
              "name": "expirationTime",
              "type": "uint64"
            },
            {
              "internalType": "uint64",
              "name": "revocationTime",
              "type": "uint64"
            },
            {
              "internalType": "bytes32",
              "name": "refUID",
              "type": "bytes32"
            },
            {
              "internalType": "address",
              "name": "recipient",
              "type": "address"
            },
            {
              "internalType": "address",
              "name": "attester",
              "type": "address"
            },
            {
              "internalType": "bool",
              "name": "revocable",
              "type": "bool"
            },
            {
              "internalType": "bytes",
              "name": "data",
              "type": "bytes"
            }
          ],
          "internalType": "struct Attestation",
          "name": "badge",
          "type": "tuple"
        }
      ],
      "name": "getPayload",
      "outputs": [
        {
          "internalType": "bytes",
          "name": "",
          "type": "bytes"
        }
      ],
      "stateMutability": "pure",
      "type": "function"
    },
    {
      "inputs": [],
      "name": "getSchema",
      "outputs": [
        {
          "internalType": "string",
          "name": "",
          "type": "string"
        }
      ],
      "stateMutability": "pure",
      "type": "function"
    },
    {
      "inputs": [
        {
          "internalType": "address",
          "name": "user",
          "type": "address"
        }
      ],
      "name": "hasBadge",
      "outputs": [
        {
          "internalType": "bool",
          "name": "",
          "type": "bool"
        }
      ],
      "stateMutability": "view",
      "type": "function"
    },
    {
      "inputs": [
        {
          "internalType": "address",
          "name": "",
          "type": "address"
        }
      ],
      "name": "isAttester",
      "outputs": [
        {
          "internalType": "bool",
          "name": "",
          "type": "bool"
        }
      ],
      "stateMutability": "view",
      "type": "function"
    },
    {
      "inputs": [
        {
          "components": [
            {
              "internalType": "bytes32",
              "name": "uid",
              "type": "bytes32"
            },
            {
              "internalType": "bytes32",
              "name": "schema",
              "type": "bytes32"
            },
            {
              "internalType": "uint64",
              "name": "time",
              "type": "uint64"
            },
            {
              "internalType": "uint64",
              "name": "expirationTime",
              "type": "uint64"
            },
            {
              "internalType": "uint64",
              "name": "revocationTime",
              "type": "uint64"
            },
            {
              "internalType": "bytes32",
              "name": "refUID",
              "type": "bytes32"
            },
            {
              "internalType": "address",
              "name": "recipient",
              "type": "address"
            },
            {
              "internalType": "address",
              "name": "attester",
              "type": "address"
            },
            {
              "internalType": "bool",
              "name": "revocable",
              "type": "bool"
            },
            {
              "internalType": "bytes",
              "name": "data",
              "type": "bytes"
            }
          ],
          "internalType": "struct Attestation",
          "name": "attestation",
          "type": "tuple"
        }
      ],
      "name": "issueBadge",
      "outputs": [
        {
          "internalType": "bool",
          "name": "",
          "type": "bool"
        }
      ],
      "stateMutability": "nonpayable",
      "type": "function"
    },
    {
      "inputs": [],
      "name": "owner",
      "outputs": [
        {
          "internalType": "address",
          "name": "",
          "type": "address"
        }
      ],
      "stateMutability": "view",
      "type": "function"
    },
    {
      "inputs": [],
      "name": "renounceOwnership",
      "outputs": [],
      "stateMutability": "nonpayable",
      "type": "function"
    },
    {
      "inputs": [],
      "name": "resolver",
      "outputs": [
        {
          "internalType": "address",
          "name": "",
          "type": "address"
        }
      ],
      "stateMutability": "view",
      "type": "function"
    },
    {
      "inputs": [
        {
          "components": [
            {
              "internalType": "bytes32",
              "name": "uid",
              "type": "bytes32"
            },
            {
              "internalType": "bytes32",
              "name": "schema",
              "type": "bytes32"
            },
            {
              "internalType": "uint64",
              "name": "time",
              "type": "uint64"
            },
            {
              "internalType": "uint64",
              "name": "expirationTime",
              "type": "uint64"
            },
            {
              "internalType": "uint64",
              "name": "revocationTime",
              "type": "uint64"
            },
            {
              "internalType": "bytes32",
              "name": "refUID",
              "type": "bytes32"
            },
            {
              "internalType": "address",
              "name": "recipient",
              "type": "address"
            },
            {
              "internalType": "address",
              "name": "attester",
              "type": "address"
            },
            {
              "internalType": "bool",
              "name": "revocable",
              "type": "bool"
            },
            {
              "internalType": "bytes",
              "name": "data",
              "type": "bytes"
            }
          ],
          "internalType": "struct Attestation",
          "name": "attestation",
          "type": "tuple"
        }
      ],
      "name": "revokeBadge",
      "outputs": [
        {
          "internalType": "bool",
          "name": "",
          "type": "bool"
        }
      ],
      "stateMutability": "nonpayable",
      "type": "function"
    },
    {
      "inputs": [
        {
          "internalType": "address",
          "name": "attester",
          "type": "address"
        },
        {
          "internalType": "bool",
          "name": "enable",
          "type": "bool"
        }
      ],
      "name": "toggleAttester",
      "outputs": [],
      "stateMutability": "nonpayable",
      "type": "function"
    },
    {
      "inputs": [
        {
          "internalType": "address",
          "name": "newOwner",
          "type": "address"
        }
      ],
      "name": "transferOwnership",
      "outputs": [],
      "stateMutability": "nonpayable",
      "type": "function"
    }
  ],
  "bytecode": "0x60a06040523480156200001157600080fd5b506040516200189b3803806200189b8339810160408190526200003491620000cb565b8082620000413362000065565b6001600160a01b031660805260036200005b828262000250565b505050506200031c565b600080546001600160a01b038381166001600160a01b0319831681178455604051919092169283917f8be0079c531659141344cd1fd0a4f28419497f9722a3daafe3b4186f6b6457e09190a35050565b634e487b7160e01b600052604160045260246000fd5b60008060408385031215620000df57600080fd5b82516001600160a01b0381168114620000f757600080fd5b602084810151919350906001600160401b03808211156200011757600080fd5b818601915086601f8301126200012c57600080fd5b815181811115620001415762000141620000b5565b604051601f8201601f19908116603f011681019083821181831017156200016c576200016c620000b5565b8160405282815289868487010111156200018557600080fd5b600093505b82841015620001a957848401860151818501870152928501926200018a565b60008684830101528096505050505050509250929050565b600181811c90821680620001d657607f821691505b602082108103620001f757634e487b7160e01b600052602260045260246000fd5b50919050565b601f8211156200024b57600081815260208120601f850160051c81016020861015620002265750805b601f850160051c820191505b81811015620002475782815560010162000232565b5050505b505050565b81516001600160401b038111156200026c576200026c620000b5565b62000284816200027d8454620001c1565b84620001fd565b602080601f831160018114620002bc5760008415620002a35750858301515b600019600386901b1c1916600185901b17855562000247565b600085815260208120601f198616915b82811015620002ed57888601518255948401946001909101908401620002cc565b50858210156200030c5787850151600019600388901b60f8161c191681555b5050505050600190811b01905550565b60805161154f6200034c6000396000818160ff015281816103ac015281816104ea0152610641015261154f6000f3fe608060405234801561001057600080fd5b50600436106100f55760003560e01c80638c6f12f011610097578063d753a63d11610066578063d753a63d14610252578063eed05dce14610265578063f15b3bad1461028a578063f2fde38b1461029d57600080fd5b80638c6f12f0146101f65780638da5cb5b14610216578063b1a3a35f14610227578063b6ebe5391461022f57600080fd5b80635e50864f116100d35780635e50864f146101735780636b122fe0146101ae578063715018a6146101db5780638298b030146101e357600080fd5b806304f3bcec146100fa5780630ee489481461013e5780632483056314610153575b600080fd5b6101217f000000000000000000000000000000000000000000000000000000000000000081565b6040516001600160a01b0390911681526020015b60405180910390f35b61015161014c366004610d43565b6102b0565b005b610166610161366004610d7c565b6102e3565b6040516101359190610de5565b61019e610181366004610dff565b6001600160a01b0316600090815260016020526040902054151590565b6040519015158152602001610135565b6040805180820190915260118152701d5a5b9d0e081cd8dc9bdb1b13195d995b607a1b6020820152610166565b61015161038b565b61019e6101f1366004610e1c565b61039f565b610209610204366004610d7c565b61047b565b6040516101359190610e57565b6000546001600160a01b0316610121565b6101666105a6565b61019e61023d366004610dff565b60026020526000908152604090205460ff1681565b61019e610260366004610e1c565b610634565b610278610273366004610d7c565b610710565b60405160ff9091168152602001610135565b6101666102983660046110fe565b61073f565b6101516102ab366004610dff565b610759565b6102b86107d2565b6001600160a01b03919091166000908152600260205260409020805460ff1916911515919091179055565b60608161037c57600380546102f790611132565b80601f016020809104026020016040519081016040528092919081815260200182805461032390611132565b80156103705780601f1061034557610100808354040283529160200191610370565b820191906000526020600020905b81548152906001019060200180831161035357829003601f168201915b50505050509050919050565b6103858261082c565b92915050565b6103936107d2565b61039d60006108f7565b565b6000336001600160a01b037f000000000000000000000000000000000000000000000000000000000000000016146103e9576040516282b42960e81b815260040160405180910390fd5b6103f282610947565b6103fe57506000919050565b600180600061041360e0860160c08701610dff565b6001600160a01b03166001600160a01b0316815260200190815260200160002060008282546104429190611182565b90915550506040518235907f504e4727721de18c6bf7f66448a6ff6da00aa4b1f00b6034e71723ae7ce6373a90600090a2506001919050565b604080516101408101825260008082526020820181905281830181905260608083018290526080830182905260a0830182905260c0830182905260e08301829052610100830182905261012083015291516308c6f12f60e41b8152600481018490529091906001600160a01b037f00000000000000000000000000000000000000000000000000000000000000001690638c6f12f090602401600060405180830381865afa158015610531573d6000803e3d6000fd5b505050506040513d6000823e601f3d908101601f1916820160405261055991908101906111fb565b9050600061056b826101200151610952565b5090506001600160a01b038116301461059f5760405163b923d26160e01b8152600481018590526024015b60405180910390fd5b5092915050565b600380546105b390611132565b80601f01602080910402602001604051908101604052809291908181526020018280546105df90611132565b801561062c5780601f106106015761010080835404028352916020019161062c565b820191906000526020600020905b81548152906001019060200180831161060f57829003601f168201915b505050505081565b6000336001600160a01b037f0000000000000000000000000000000000000000000000000000000000000000161461067e576040516282b42960e81b815260040160405180910390fd5b61068782610973565b61069357506000919050565b60018060006106a860e0860160c08701610dff565b6001600160a01b03166001600160a01b0316815260200190815260200160002060008282546106d791906112f1565b90915550506040518235907fa0785ec0b9bf31a5475d33c716fb9f500f0ea0bb9e4bc10ec39d5db763c1da1590600090a2506001919050565b60008061071c8361047b565b905060006107298261073f565b905060006107368261097e565b95945050505050565b60606000610751836101200151610952565b949350505050565b6107616107d2565b6001600160a01b0381166107c65760405162461bcd60e51b815260206004820152602660248201527f4f776e61626c653a206e6577206f776e657220697320746865207a65726f206160448201526564647265737360d01b6064820152608401610596565b6107cf816108f7565b50565b6000546001600160a01b0316331461039d5760405162461bcd60e51b815260206004820181905260248201527f4f776e61626c653a2063616c6c6572206973206e6f7420746865206f776e65726044820152606401610596565b6060600061083983610710565b905060006108498260ff16610994565b6040516020016108599190611304565b60408051601f19818403018152828201825260128352715363726f6c6c204c6576656c20426164676560701b602084810191909152825180820184526000808252935192955092916108c9916108b5918791879187910161133c565b604051602081830303815290604052610a26565b9050806040516020016108dc91906113dc565b60405160208183030381529060405295505050505050919050565b600080546001600160a01b038381166001600160a01b0319831681178455604051919092169283917f8be0079c531659141344cd1fd0a4f28419497f9722a3daafe3b4186f6b6457e09190a35050565b600061038582610b78565b600060608280602001905181019061096a9190611421565b91509150915091565b600061038582610b83565b6000818060200190518101906103859190611471565b606060006109a183610bd5565b60010190506000816001600160401b038111156109c0576109c0610f23565b6040519080825280601f01601f1916602001820160405280156109ea576020820181803683370190505b5090508181016020015b600019016f181899199a1a9b1b9c1cb0b131b232b360811b600a86061a8153600a85049450846109f457509392505050565b60608151600003610a4557505060408051602081019091526000815290565b60006040518060600160405280604081526020016114da6040913990506000600384516002610a7491906112f1565b610a7e9190611494565b610a899060046114b6565b6001600160401b03811115610aa057610aa0610f23565b6040519080825280601f01601f191660200182016040528015610aca576020820181803683370190505b509050600182016020820185865187015b80821015610b36576003820191508151603f8160121c168501518453600184019350603f81600c1c168501518453600184019350603f8160061c168501518453600184019350603f8116850151845350600183019250610adb565b5050600386510660018114610b525760028114610b6557610b6d565b603d6001830353603d6002830353610b6d565b603d60018303535b509195945050505050565b600061038582610cad565b6000610b8e82610cad565b610b9a57506000919050565b6000610ba8610298846114cd565b90508051600003610bcc57604051636de4b34760e01b815260040160405180910390fd5b50600192915050565b60008072184f03e93ff9f4daa797ed6e38ed64bf6a1f0160401b8310610c145772184f03e93ff9f4daa797ed6e38ed64bf6a1f0160401b830492506040015b6d04ee2d6d415b85acef81000000008310610c40576d04ee2d6d415b85acef8100000000830492506020015b662386f26fc100008310610c5e57662386f26fc10000830492506010015b6305f5e1008310610c76576305f5e100830492506008015b6127108310610c8a57612710830492506004015b60648310610c9c576064830492506002015b600a83106103855760010192915050565b600060026000610cc4610100850160e08601610dff565b6001600160a01b0316815260208101919091526040016000205460ff16610cfd576040516282b42960e81b815260040160405180910390fd5b506001919050565b6001600160a01b03811681146107cf57600080fd5b8035610d2581610d05565b919050565b80151581146107cf57600080fd5b8035610d2581610d2a565b60008060408385031215610d5657600080fd5b8235610d6181610d05565b91506020830135610d7181610d2a565b809150509250929050565b600060208284031215610d8e57600080fd5b5035919050565b60005b83811015610db0578181015183820152602001610d98565b50506000910152565b60008151808452610dd1816020860160208601610d95565b601f01601f19169290920160200192915050565b602081526000610df86020830184610db9565b9392505050565b600060208284031215610e1157600080fd5b8135610df881610d05565b600060208284031215610e2e57600080fd5b81356001600160401b03811115610e4457600080fd5b82016101408185031215610df857600080fd5b60208152815160208201526020820151604082015260006040830151610e8860608401826001600160401b03169052565b5060608301516001600160401b03811660808401525060808301516001600160401b03811660a08401525060a083015160c083015260c0830151610ed760e08401826001600160a01b03169052565b5060e0830151610100610ef4818501836001600160a01b03169052565b8401519050610120610f098482018315159052565b840151610140848101529050610751610160840182610db9565b634e487b7160e01b600052604160045260246000fd5b60405161014081016001600160401b0381118282101715610f5c57610f5c610f23565b60405290565b604051601f8201601f191681016001600160401b0381118282101715610f8a57610f8a610f23565b604052919050565b6001600160401b03811681146107cf57600080fd5b8035610d2581610f92565b60006001600160401b03821115610fcb57610fcb610f23565b50601f01601f191660200190565b600082601f830112610fea57600080fd5b8135610ffd610ff882610fb2565b610f62565b81815284602083860101111561101257600080fd5b816020850160208301376000918101602001919091529392505050565b6000610140828403121561104257600080fd5b61104a610f39565b9050813581526020820135602082015261106660408301610fa7565b604082015261107760608301610fa7565b606082015261108860808301610fa7565b608082015260a082013560a08201526110a360c08301610d1a565b60c08201526110b460e08301610d1a565b60e08201526101006110c7818401610d38565b90820152610120828101356001600160401b038111156110e657600080fd5b6110f285828601610fd9565b82840152505092915050565b60006020828403121561111057600080fd5b81356001600160401b0381111561112657600080fd5b6107518482850161102f565b600181811c9082168061114657607f821691505b60208210810361116657634e487b7160e01b600052602260045260246000fd5b50919050565b634e487b7160e01b600052601160045260246000fd5b818103818111156103855761038561116c565b8051610d2581610f92565b8051610d2581610d05565b8051610d2581610d2a565b600082601f8301126111c757600080fd5b81516111d5610ff882610fb2565b8181528460208386010111156111ea57600080fd5b610751826020830160208701610d95565b60006020828403121561120d57600080fd5b81516001600160401b038082111561122457600080fd5b90830190610140828603121561123957600080fd5b611241610f39565b825181526020830151602082015261125b60408401611195565b604082015261126c60608401611195565b606082015261127d60808401611195565b608082015260a083015160a082015261129860c084016111a0565b60c08201526112a960e084016111a0565b60e08201526101006112bc8185016111ab565b9082015261012083810151838111156112d457600080fd5b6112e0888287016111b6565b918301919091525095945050505050565b808201808211156103855761038561116c565b60408152600e60408201526d5363726f6c6c204c6576656c202360901b6060820152608060208201526000610df86080830184610db9565b683d913730b6b2911d1160b91b81528351600090611361816009850160208901610d95565b71111610113232b9b1b934b83a34b7b7111d1160711b600991840191820152845161139381601b840160208901610d95565b6b16101134b6b0b3b2911d101160a11b601b929091019182015283516113c0816027840160208801610d95565b61227d60f01b6027929091019182015260290195945050505050565b7f646174613a6170706c69636174696f6e2f6a736f6e3b6261736536342c00000081526000825161141481601d850160208701610d95565b91909101601d0192915050565b6000806040838503121561143457600080fd5b825161143f81610d05565b60208401519092506001600160401b0381111561145b57600080fd5b611467858286016111b6565b9150509250929050565b60006020828403121561148357600080fd5b815160ff81168114610df857600080fd5b6000826114b157634e487b7160e01b600052601260045260246000fd5b500490565b80820281158282048414176103855761038561116c565b6000610385368361102f56fe4142434445464748494a4b4c4d4e4f505152535455565758595a6162636465666768696a6b6c6d6e6f707172737475767778797a303132333435363738392b2fa2646970667358221220f7bfdb77b3e6aed2ff883d0a016e40ab1b5654d4f974e609c1068456b79ca7d464736f6c63430008130033",
  "linkReferences": {},
  "deployedLinkReferences": {}
}