{
  "_format": "hh-sol-artifact-1",
  "contractName": "ScrollBadgeResolver",
  "sourceName": "src/resolver/ScrollBadgeResolver.sol",
  "abi": [
    {
      "inputs": [
        {
          "internalType": "address",
          "name": "eas_",
          "type": "address"
        },
        {
          "internalType": "address",
          "name": "registry_",
          "type": "address"
        }
      ],
      "stateMutability": "nonpayable",
      "type": "constructor"
    },
    {
      "inputs": [],
      "name": "AccessDenied",
      "type": "error"
    },
    {
      "inputs": [
        {
          "internalType": "bytes32",
          "name": "uid",
          "type": "bytes32"
        }
      ],
      "name": "AttestationExpired",
      "type": "error"
    },
    {
      "inputs": [
        {
          "internalType": "bytes32",
          "name": "uid",
          "type": "bytes32"
        }
      ],
      "name": "AttestationNotFound",
      "type": "error"
    },
    {
      "inputs": [
        {
          "internalType": "bytes32",
          "name": "uid",
          "type": "bytes32"
        }
      ],
      "name": "AttestationRevoked",
      "type": "error"
    },
    {
      "inputs": [
        {
          "internalType": "bytes32",
          "name": "uid",
          "type": "bytes32"
        }
      ],
      "name": "AttestationSchemaMismatch",
      "type": "error"
    },
    {
      "inputs": [
        {
          "internalType": "address",
          "name": "badge",
          "type": "address"
        }
      ],
      "name": "BadgeNotAllowed",
      "type": "error"
    },
    {
      "inputs": [
        {
          "internalType": "address",
          "name": "badge",
          "type": "address"
        }
      ],
      "name": "BadgeNotFound",
      "type": "error"
    },
    {
      "inputs": [],
      "name": "InsufficientValue",
      "type": "error"
    },
    {
      "inputs": [],
      "name": "InvalidEAS",
      "type": "error"
    },
    {
      "inputs": [],
      "name": "InvalidLength",
      "type": "error"
    },
    {
      "inputs": [],
      "name": "NotPayable",
      "type": "error"
    },
    {
      "inputs": [],
      "name": "ResolverPaymentsDisabled",
      "type": "error"
    },
    {
      "inputs": [],
      "name": "UnknownSchema",
      "type": "error"
    },
    {
      "anonymous": false,
      "inputs": [
        {
          "indexed": false,
          "internalType": "uint8",
          "name": "version",
          "type": "uint8"
        }
      ],
      "name": "Initialized",
      "type": "event"
    },
    {
      "anonymous": false,
      "inputs": [
        {
          "indexed": true,
          "internalType": "bytes32",
          "name": "uid",
          "type": "bytes32"
        }
      ],
      "name": "IssueBadge",
      "type": "event"
    },
    {
      "anonymous": false,
      "inputs": [
        {
          "indexed": true,
          "internalType": "address",
          "name": "previousOwner",
          "type": "address"
        },
        {
          "indexed": true,
          "internalType": "address",
          "name": "newOwner",
          "type": "address"
        }
      ],
      "name": "OwnershipTransferred",
      "type": "event"
    },
    {
      "anonymous": false,
      "inputs": [
        {
          "indexed": true,
          "internalType": "bytes32",
          "name": "uid",
          "type": "bytes32"
        }
      ],
      "name": "RevokeBadge",
      "type": "event"
    },
    {
      "anonymous": false,
      "inputs": [
        {
          "indexed": true,
          "internalType": "address",
          "name": "badge",
          "type": "address"
        },
        {
          "indexed": true,
          "internalType": "bool",
          "name": "enable",
          "type": "bool"
        }
      ],
      "name": "UpdateAutoAttachWhitelist",
      "type": "event"
    },
    {
      "inputs": [
        {
          "components": [
            {
              "internalType": "bytes32",
              "name": "uid",
              "type": "bytes32"
            },
            {
              "internalType": "bytes32",
              "name": "schema",
              "type": "bytes32"
            },
            {
              "internalType": "uint64",
              "name": "time",
              "type": "uint64"
            },
            {
              "internalType": "uint64",
              "name": "expirationTime",
              "type": "uint64"
            },
            {
              "internalType": "uint64",
              "name": "revocationTime",
              "type": "uint64"
            },
            {
              "internalType": "bytes32",
              "name": "refUID",
              "type": "bytes32"
            },
            {
              "internalType": "address",
              "name": "recipient",
              "type": "address"
            },
            {
              "internalType": "address",
              "name": "attester",
              "type": "address"
            },
            {
              "internalType": "bool",
              "name": "revocable",
              "type": "bool"
            },
            {
              "internalType": "bytes",
              "name": "data",
              "type": "bytes"
            }
          ],
          "internalType": "struct Attestation",
          "name": "attestation",
          "type": "tuple"
        }
      ],
      "name": "attest",
      "outputs": [
        {
          "internalType": "bool",
          "name": "",
          "type": "bool"
        }
      ],
      "stateMutability": "payable",
      "type": "function"
    },
    {
      "inputs": [],
      "name": "eas",
      "outputs": [
        {
          "internalType": "address",
          "name": "",
          "type": "address"
        }
      ],
      "stateMutability": "view",
      "type": "function"
    },
    {
      "inputs": [
        {
          "internalType": "bytes32",
          "name": "uid",
          "type": "bytes32"
        }
      ],
      "name": "getAndValidateBadge",
      "outputs": [
        {
          "components": [
            {
              "internalType": "bytes32",
              "name": "uid",
              "type": "bytes32"
            },
            {
              "internalType": "bytes32",
              "name": "schema",
              "type": "bytes32"
            },
            {
              "internalType": "uint64",
              "name": "time",
              "type": "uint64"
            },
            {
              "internalType": "uint64",
              "name": "expirationTime",
              "type": "uint64"
            },
            {
              "internalType": "uint64",
              "name": "revocationTime",
              "type": "uint64"
            },
            {
              "internalType": "bytes32",
              "name": "refUID",
              "type": "bytes32"
            },
            {
              "internalType": "address",
              "name": "recipient",
              "type": "address"
            },
            {
              "internalType": "address",
              "name": "attester",
              "type": "address"
            },
            {
              "internalType": "bool",
              "name": "revocable",
              "type": "bool"
            },
            {
              "internalType": "bytes",
              "name": "data",
              "type": "bytes"
            }
          ],
          "internalType": "struct Attestation",
          "name": "",
          "type": "tuple"
        }
      ],
      "stateMutability": "view",
      "type": "function"
    },
    {
      "inputs": [],
      "name": "initialize",
      "outputs": [],
      "stateMutability": "nonpayable",
      "type": "function"
    },
    {
      "inputs": [],
      "name": "isPayable",
      "outputs": [
        {
          "internalType": "bool",
          "name": "",
          "type": "bool"
        }
      ],
      "stateMutability": "pure",
      "type": "function"
    },
    {
      "inputs": [
        {
          "components": [
            {
              "internalType": "bytes32",
              "name": "uid",
              "type": "bytes32"
            },
            {
              "internalType": "bytes32",
              "name": "schema",
              "type": "bytes32"
            },
            {
              "internalType": "uint64",
              "name": "time",
              "type": "uint64"
            },
            {
              "internalType": "uint64",
              "name": "expirationTime",
              "type": "uint64"
            },
            {
              "internalType": "uint64",
              "name": "revocationTime",
              "type": "uint64"
            },
            {
              "internalType": "bytes32",
              "name": "refUID",
              "type": "bytes32"
            },
            {
              "internalType": "address",
              "name": "recipient",
              "type": "address"
            },
            {
              "internalType": "address",
              "name": "attester",
              "type": "address"
            },
            {
              "internalType": "bool",
              "name": "revocable",
              "type": "bool"
            },
            {
              "internalType": "bytes",
              "name": "data",
              "type": "bytes"
            }
          ],
          "internalType": "struct Attestation[]",
          "name": "attestations",
          "type": "tuple[]"
        },
        {
          "internalType": "uint256[]",
          "name": "values",
          "type": "uint256[]"
        }
      ],
      "name": "multiAttest",
      "outputs": [
        {
          "internalType": "bool",
          "name": "",
          "type": "bool"
        }
      ],
      "stateMutability": "payable",
      "type": "function"
    },
    {
      "inputs": [
        {
          "components": [
            {
              "internalType": "bytes32",
              "name": "uid",
              "type": "bytes32"
            },
            {
              "internalType": "bytes32",
              "name": "schema",
              "type": "bytes32"
            },
            {
              "internalType": "uint64",
              "name": "time",
              "type": "uint64"
            },
            {
              "internalType": "uint64",
              "name": "expirationTime",
              "type": "uint64"
            },
            {
              "internalType": "uint64",
              "name": "revocationTime",
              "type": "uint64"
            },
            {
              "internalType": "bytes32",
              "name": "refUID",
              "type": "bytes32"
            },
            {
              "internalType": "address",
              "name": "recipient",
              "type": "address"
            },
            {
              "internalType": "address",
              "name": "attester",
              "type": "address"
            },
            {
              "internalType": "bool",
              "name": "revocable",
              "type": "bool"
            },
            {
              "internalType": "bytes",
              "name": "data",
              "type": "bytes"
            }
          ],
          "internalType": "struct Attestation[]",
          "name": "attestations",
          "type": "tuple[]"
        },
        {
          "internalType": "uint256[]",
          "name": "values",
          "type": "uint256[]"
        }
      ],
      "name": "multiRevoke",
      "outputs": [
        {
          "internalType": "bool",
          "name": "",
          "type": "bool"
        }
      ],
      "stateMutability": "payable",
      "type": "function"
    },
    {
      "inputs": [],
      "name": "owner",
      "outputs": [
        {
          "internalType": "address",
          "name": "",
          "type": "address"
        }
      ],
      "stateMutability": "view",
      "type": "function"
    },
    {
      "inputs": [],
      "name": "registry",
      "outputs": [
        {
          "internalType": "address",
          "name": "",
          "type": "address"
        }
      ],
      "stateMutability": "view",
      "type": "function"
    },
    {
      "inputs": [],
      "name": "renounceOwnership",
      "outputs": [],
      "stateMutability": "nonpayable",
      "type": "function"
    },
    {
      "inputs": [
        {
          "components": [
            {
              "internalType": "bytes32",
              "name": "uid",
              "type": "bytes32"
            },
            {
              "internalType": "bytes32",
              "name": "schema",
              "type": "bytes32"
            },
            {
              "internalType": "uint64",
              "name": "time",
              "type": "uint64"
            },
            {
              "internalType": "uint64",
              "name": "expirationTime",
              "type": "uint64"
            },
            {
              "internalType": "uint64",
              "name": "revocationTime",
              "type": "uint64"
            },
            {
              "internalType": "bytes32",
              "name": "refUID",
              "type": "bytes32"
            },
            {
              "internalType": "address",
              "name": "recipient",
              "type": "address"
            },
            {
              "internalType": "address",
              "name": "attester",
              "type": "address"
            },
            {
              "internalType": "bool",
              "name": "revocable",
              "type": "bool"
            },
            {
              "internalType": "bytes",
              "name": "data",
              "type": "bytes"
            }
          ],
          "internalType": "struct Attestation",
          "name": "attestation",
          "type": "tuple"
        }
      ],
      "name": "revoke",
      "outputs": [
        {
          "internalType": "bool",
          "name": "",
          "type": "bool"
        }
      ],
      "stateMutability": "payable",
      "type": "function"
    },
    {
      "inputs": [],
      "name": "schema",
      "outputs": [
        {
          "internalType": "bytes32",
          "name": "",
          "type": "bytes32"
        }
      ],
      "stateMutability": "view",
      "type": "function"
    },
    {
      "inputs": [
        {
          "internalType": "address",
          "name": "badge",
          "type": "address"
        },
        {
          "internalType": "bool",
          "name": "enable",
          "type": "bool"
        }
      ],
      "name": "toggleBadge",
      "outputs": [],
      "stateMutability": "nonpayable",
      "type": "function"
    },
    {
      "inputs": [
        {
          "internalType": "bool",
          "name": "enable",
          "type": "bool"
        }
      ],
      "name": "toggleWhitelist",
      "outputs": [],
      "stateMutability": "nonpayable",
      "type": "function"
    },
    {
      "inputs": [
        {
          "internalType": "address",
          "name": "newOwner",
          "type": "address"
        }
      ],
      "name": "transferOwnership",
      "outputs": [],
      "stateMutability": "nonpayable",
      "type": "function"
    },
    {
      "inputs": [],
      "name": "version",
      "outputs": [
        {
          "internalType": "string",
          "name": "",
          "type": "string"
        }
      ],
      "stateMutability": "view",
      "type": "function"
    },
    {
      "inputs": [
        {
          "internalType": "address",
          "name": "",
          "type": "address"
        }
      ],
      "name": "whitelist",
      "outputs": [
        {
          "internalType": "bool",
          "name": "",
          "type": "bool"
        }
      ],
      "stateMutability": "view",
      "type": "function"
    },
    {
      "inputs": [],
      "name": "whitelistEnabled",
      "outputs": [
        {
          "internalType": "bool",
          "name": "",
          "type": "bool"
        }
      ],
      "stateMutability": "view",
      "type": "function"
    },
    {
      "stateMutability": "payable",
      "type": "receive"
    }
  ],
  "bytecode": "0x6101206040523480156200001257600080fd5b5060405162001d2838038062001d28833981016040819052620000359162000181565b6001608052600360a052600060c052816001600160a01b0381166200006d576040516341bc07ff60e11b815260040160405180910390fd5b6001600160a01b031660e05262000083620000a3565b6001600160a01b038116610100526200009b620000a3565b5050620001b9565b600054610100900460ff1615620001105760405162461bcd60e51b815260206004820152602760248201527f496e697469616c697a61626c653a20636f6e747261637420697320696e697469604482015266616c697a696e6760c81b606482015260840160405180910390fd5b60005460ff9081161462000162576000805460ff191660ff9081179091556040519081527f7f26b83ff96e1f2b6a682f133852f6798a09c465da95921460cefb38474024989060200160405180910390a15b565b80516001600160a01b03811681146200017c57600080fd5b919050565b600080604083850312156200019557600080fd5b620001a08362000164565b9150620001b06020840162000164565b90509250929050565b60805160a05160c05160e05161010051611b0e6200021a600039600081816101aa01526110da0152600081816102280152818161052c015281816107dc0152610c52015260006103e4015260006103bb015260006103920152611b0e6000f3fe60806040526004361061010d5760003560e01c80638da5cb5b11610095578063ce46e04611610064578063ce46e0461461030d578063e49617e114610321578063e60c350514610334578063f2fde38b14610347578063f8895cc81461036757600080fd5b80638da5cb5b1461028c57806391db0b7e146102aa57806393f5be4f146102bd5780639b19251a146102dd57600080fd5b806380e3f1ad116100dc57806380e3f1ad146101e45780638129fc1c146102045780638150864d1461021957806388e5b2d91461024c5780638c6f12f01461025f57600080fd5b806351fb012d1461013257806354fd4d5014610161578063715018a6146101835780637b1039991461019857600080fd5b3661012d57604051631574f9f360e01b815260040160405180910390fd5b005b600080fd5b34801561013e57600080fd5b5060655461014c9060ff1681565b60405190151581526020015b60405180910390f35b34801561016d57600080fd5b5061017661038b565b60405161015891906112d8565b34801561018f57600080fd5b5061012b61042e565b3480156101a457600080fd5b506101cc7f000000000000000000000000000000000000000000000000000000000000000081565b6040516001600160a01b039091168152602001610158565b3480156101f057600080fd5b5061012b6101ff36600461130b565b610442565b34801561021057600080fd5b5061012b61045d565b34801561022557600080fd5b507f00000000000000000000000000000000000000000000000000000000000000006101cc565b61014c61025a366004611373565b61069e565b34801561026b57600080fd5b5061027f61027a3660046113de565b61076d565b60405161015891906113f7565b34801561029857600080fd5b506033546001600160a01b03166101cc565b61014c6102b8366004611373565b610933565b3480156102c957600080fd5b5061012b6102d83660046114e3565b6109f2565b3480156102e957600080fd5b5061014c6102f836600461151c565b60666020526000908152604090205460ff1681565b34801561031957600080fd5b50600061014c565b61014c61032f366004611539565b610a25565b61014c610342366004611539565b610a41565b34801561035357600080fd5b5061012b61036236600461151c565b610a55565b34801561037357600080fd5b5061037d60975481565b604051908152602001610158565b60606103b67f0000000000000000000000000000000000000000000000000000000000000000610acb565b6103df7f0000000000000000000000000000000000000000000000000000000000000000610acb565b6104087f0000000000000000000000000000000000000000000000000000000000000000610acb565b60405160200161041a93929190611574565b604051602081830303815290604052905090565b610436610b5d565b6104406000610bb7565b565b61044a610b5d565b6065805460ff1916911515919091179055565b600054610100900460ff161580801561047d5750600054600160ff909116105b806104975750303b158015610497575060005460ff166001145b6104ff5760405162461bcd60e51b815260206004820152602e60248201527f496e697469616c697a61626c653a20636f6e747261637420697320616c72656160448201526d191e481a5b9a5d1a585b1a5e995960921b60648201526084015b60405180910390fd5b6000805460ff191660011790558015610522576000805461ff0019166101001790555b61052a610c09565b7f00000000000000000000000000000000000000000000000000000000000000006001600160a01b031663f10b5cc86040518163ffffffff1660e01b8152600401602060405180830381865afa158015610588573d6000803e3d6000fd5b505050506040513d601f19601f820116820180604052508101906105ac91906115ce565b604080518082018252601c81527f616464726573732062616467652c206279746573207061796c6f61640000000060208201529051630c1af44f60e31b81526001600160a01b0392909216916360d7a2789161060f9130906001906004016115eb565b6020604051808303816000875af115801561062e573d6000803e3d6000fd5b505050506040513d601f19601f82011682018060405250810190610652919061161e565b609755801561069b576000805461ff0019169055604051600181527f7f26b83ff96e1f2b6a682f133852f6798a09c465da95921460cefb38474024989060200160405180910390a15b50565b60006106a8610c47565b838281146106c95760405163251f56a160e21b815260040160405180910390fd5b3460005b8281101561075d5760008686838181106106e9576106e9611637565b905060200201359050828111156107135760405163044044a560e21b815260040160405180910390fd5b61074089898481811061072857610728611637565b905060200281019061073a919061164d565b82610c90565b610751576000945050505050610765565b909103906001016106cd565b506001925050505b949350505050565b604080516101408101825260008082526020820181905281830181905260608083018290526080830182905260a0830182905260c0830182905260e08301829052610100830182905261012083015291516328c44a9960e21b8152600481018490529091906001600160a01b037f0000000000000000000000000000000000000000000000000000000000000000169063a3112a6490602401600060405180830381865afa158015610823573d6000803e3d6000fd5b505050506040513d6000823e601f3d908101601f1916820160405261084b919081019061176a565b8051909150610870576040516301fb6dd160e01b8152600481018490526024016104f6565b6097548160200151146108995760405163030f907360e01b8152600481018490526024016104f6565b60608101516001600160401b0316158015906108c257504281606001516001600160401b031611155b156108e357604051634f51d3f560e01b8152600481018490526024016104f6565b60808101516001600160401b03161580159061090c57504281608001516001600160401b031611155b1561092d5760405163025f692b60e11b8152600481018490526024016104f6565b92915050565b600061093d610c47565b8382811461095e5760405163251f56a160e21b815260040160405180910390fd5b3460005b8281101561075d57600086868381811061097e5761097e611637565b905060200201359050828111156109a85760405163044044a560e21b815260040160405180910390fd5b6109d58989848181106109bd576109bd611637565b90506020028101906109cf919061164d565b82610db5565b6109e6576000945050505050610765565b90910390600101610962565b6109fa610b5d565b6001600160a01b03919091166000908152606660205260409020805460ff1916911515919091179055565b6000610a2f610c47565b610a398234610c90565b90505b919050565b6000610a4b610c47565b610a398234610db5565b610a5d610b5d565b6001600160a01b038116610ac25760405162461bcd60e51b815260206004820152602660248201527f4f776e61626c653a206e6577206f776e657220697320746865207a65726f206160448201526564647265737360d01b60648201526084016104f6565b61069b81610bb7565b60606000610ad883610fb0565b60010190506000816001600160401b03811115610af757610af761166e565b6040519080825280601f01601f191660200182016040528015610b21576020820181803683370190505b5090508181016020015b600019016f181899199a1a9b1b9c1cb0b131b232b360811b600a86061a8153600a8504945084610b2b57509392505050565b6033546001600160a01b031633146104405760405162461bcd60e51b815260206004820181905260248201527f4f776e61626c653a2063616c6c6572206973206e6f7420746865206f776e657260448201526064016104f6565b603380546001600160a01b038381166001600160a01b0319831681179093556040519116919082907f8be0079c531659141344cd1fd0a4f28419497f9722a3daafe3b4186f6b6457e090600090a35050565b600054610100900460ff16610c305760405162461bcd60e51b81526004016104f690611860565b610c38611088565b6065805460ff19166001179055565b336001600160a01b037f0000000000000000000000000000000000000000000000000000000000000000161461044057604051634ca8886760e01b815260040160405180910390fd5b60008115610cb157604051631600a99160e11b815260040160405180910390fd5b6000610cfe610cc46101208601866118ab565b8080601f0160208091040260200160405190810160405280939291908181526020018383808284376000920191909152506110b792505050565b506040516308298b0360e41b81529091506001600160a01b03821690638298b03090610d2e90879060040161196a565b6020604051808303816000875af1158015610d4d573d6000803e3d6000fd5b505050506040513d601f19601f82011682018060405250810190610d719190611a6b565b610d7f57600091505061092d565b6040518435907f504e4727721de18c6bf7f66448a6ff6da00aa4b1f00b6034e71723ae7ce6373a90600090a25060019392505050565b60008115610dd657604051631600a99160e11b815260040160405180910390fd5b609754836020013514610dfc576040516373d4fd9360e11b815260040160405180910390fd5b6000610e0f610cc46101208601866118ab565b5090506001600160a01b0381163b610e45576040516304f7946560e31b81526001600160a01b03821660048201526024016104f6565b60655460ff168015610e7057506001600160a01b03811660009081526066602052604090205460ff16155b15610e9957604051630234f64960e11b81526001600160a01b03821660048201526024016104f6565b60405163d753a63d60e01b81526001600160a01b0382169063d753a63d90610ec590879060040161196a565b6020604051808303816000875af1158015610ee4573d6000803e3d6000fd5b505050506040513d601f19601f82011682018060405250810190610f089190611a6b565b610f1657600091505061092d565b610f27610100850160e0860161151c565b6001600160a01b0316610f4060e0860160c0870161151c565b6001600160a01b03161480610f6c575032610f6160e0860160c0870161151c565b6001600160a01b0316145b15610f7a57610f7a846110d8565b6040518435907fa0785ec0b9bf31a5475d33c716fb9f500f0ea0bb9e4bc10ec39d5db763c1da1590600090a25060019392505050565b60008072184f03e93ff9f4daa797ed6e38ed64bf6a1f0160401b8310610fef5772184f03e93ff9f4daa797ed6e38ed64bf6a1f0160401b830492506040015b6d04ee2d6d415b85acef8100000000831061101b576d04ee2d6d415b85acef8100000000830492506020015b662386f26fc10000831061103957662386f26fc10000830492506010015b6305f5e1008310611051576305f5e100830492506008015b612710831061106557612710830492506004015b60648310611077576064830492506002015b600a831061092d5760010192915050565b600054610100900460ff166110af5760405162461bcd60e51b81526004016104f690611860565b610440611258565b60006060828060200190518101906110cf9190611a88565b91509150915091565b7f000000000000000000000000000000000000000000000000000000000000000060006001600160a01b038216630f53a47061111a60e0860160c0870161151c565b6040516001600160e01b031960e084901b1681526001600160a01b039091166004820152602401602060405180830381865afa15801561115e573d6000803e3d6000fd5b505050506040513d601f19601f8201168201806040525081019061118291906115ce565b6040516337667b9b60e21b81526001600160a01b0380831660048301529192509083169063dd99ee6c90602401602060405180830381865afa1580156111cc573d6000803e3d6000fd5b505050506040513d601f19601f820116820180604052508101906111f09190611a6b565b6111f957505050565b60405163454bf6f360e11b8152833560048201526001600160a01b03821690638a97ede690602401600060405180830381600087803b15801561123b57600080fd5b505af115801561124f573d6000803e3d6000fd5b50505050505050565b600054610100900460ff1661127f5760405162461bcd60e51b81526004016104f690611860565b61044033610bb7565b60005b838110156112a357818101518382015260200161128b565b50506000910152565b600081518084526112c4816020860160208601611288565b601f01601f19169290920160200192915050565b6020815260006112eb60208301846112ac565b9392505050565b801515811461069b57600080fd5b8035610a3c816112f2565b60006020828403121561131d57600080fd5b81356112eb816112f2565b60008083601f84011261133a57600080fd5b5081356001600160401b0381111561135157600080fd5b6020830191508360208260051b850101111561136c57600080fd5b9250929050565b6000806000806040858703121561138957600080fd5b84356001600160401b03808211156113a057600080fd5b6113ac88838901611328565b909650945060208701359150808211156113c557600080fd5b506113d287828801611328565b95989497509550505050565b6000602082840312156113f057600080fd5b5035919050565b6020815281516020820152602082015160408201526000604083015161142860608401826001600160401b03169052565b5060608301516001600160401b03811660808401525060808301516001600160401b03811660a08401525060a083015160c083015260c083015161147760e08401826001600160a01b03169052565b5060e0830151610100611494818501836001600160a01b03169052565b84015190506101206114a98482018315159052565b8401516101408481015290506107656101608401826112ac565b6001600160a01b038116811461069b57600080fd5b8035610a3c816114c3565b600080604083850312156114f657600080fd5b8235611501816114c3565b91506020830135611511816112f2565b809150509250929050565b60006020828403121561152e57600080fd5b81356112eb816114c3565b60006020828403121561154b57600080fd5b81356001600160401b0381111561156157600080fd5b820161014081850312156112eb57600080fd5b60008451611586818460208901611288565b8083019050601760f91b80825285516115a6816001850160208a01611288565b600192019182015283516115c1816002840160208801611288565b0160020195945050505050565b6000602082840312156115e057600080fd5b81516112eb816114c3565b6060815260006115fe60608301866112ac565b6001600160a01b0394909416602083015250901515604090910152919050565b60006020828403121561163057600080fd5b5051919050565b634e487b7160e01b600052603260045260246000fd5b6000823561013e1983360301811261166457600080fd5b9190910192915050565b634e487b7160e01b600052604160045260246000fd5b60405161014081016001600160401b03811182821017156116a7576116a761166e565b60405290565b6001600160401b038116811461069b57600080fd5b8051610a3c816116ad565b8051610a3c816114c3565b8051610a3c816112f2565b600082601f8301126116f457600080fd5b81516001600160401b038082111561170e5761170e61166e565b604051601f8301601f19908116603f011681019082821181831017156117365761173661166e565b8160405283815286602085880101111561174f57600080fd5b611760846020830160208901611288565b9695505050505050565b60006020828403121561177c57600080fd5b81516001600160401b038082111561179357600080fd5b9083019061014082860312156117a857600080fd5b6117b0611684565b82518152602083015160208201526117ca604084016116c2565b60408201526117db606084016116c2565b60608201526117ec608084016116c2565b608082015260a083015160a082015261180760c084016116cd565b60c082015261181860e084016116cd565b60e082015261010061182b8185016116d8565b90820152610120838101518381111561184357600080fd5b61184f888287016116e3565b918301919091525095945050505050565b6020808252602b908201527f496e697469616c697a61626c653a20636f6e7472616374206973206e6f74206960408201526a6e697469616c697a696e6760a81b606082015260800190565b6000808335601e198436030181126118c257600080fd5b8301803591506001600160401b038211156118dc57600080fd5b60200191503681900382131561136c57600080fd5b8035610a3c816116ad565b6000808335601e1984360301811261191357600080fd5b83016020810192503590506001600160401b0381111561193257600080fd5b80360382131561136c57600080fd5b81835281816020850137506000828201602090810191909152601f909101601f19169091010190565b602081528135602082015260208201356040820152600061198d604084016118f1565b6001600160401b0381166060840152506119a9606084016118f1565b6001600160401b0381166080840152506119c5608084016118f1565b6001600160401b03811660a08401525060a083013560c08301526119eb60c084016114d8565b6001600160a01b03811660e084015250611a0760e084016114d8565b610100611a1e818501836001600160a01b03169052565b611a29818601611300565b915050610120611a3c8185018315159052565b611a48818601866118fc565b6101408681015292509050611a6261016085018383611941565b95945050505050565b600060208284031215611a7d57600080fd5b81516112eb816112f2565b60008060408385031215611a9b57600080fd5b8251611aa6816114c3565b60208401519092506001600160401b03811115611ac257600080fd5b611ace858286016116e3565b915050925092905056fea2646970667358221220d3e8311a39b65ea27bf0002e4daa55bc5396c5441ac5087b896004968d6ea93864736f6c63430008130033",
  "linkReferences": {},
  "deployedLinkReferences": {}
}