{
  "_format": "hh-sol-artifact-1",
  "contractName": "MockActivityPoints",
  "sourceName": "src/badge/examples/mock/MockActivityPoints.sol",
  "abi": [
    {
      "inputs": [
        {
          "internalType": "address",
          "name": "user_",
          "type": "address"
        }
      ],
      "name": "getPoints",
      "outputs": [
        {
          "internalType": "uint256",
          "name": "",
          "type": "uint256"
        }
      ],
      "stateMutability": "pure",
      "type": "function"
    }
  ],
  "bytecode": "0x608060405234801561001057600080fd5b50610164806100206000396000f3fe608060405234801561001057600080fd5b506004361061002b5760003560e01c8063ee204abb14610030575b600080fd5b61004361003e3660046100fe565b610055565b60405190815260200160405180910390f35b600073f39fd6e51aad88f6f4ce6ab8827279cfffb92265196001600160a01b0383160161008c57506863e95745e26cfb9a80919050565b7370997970c51812dc3a010c7d01b50e0d17dc79c7196001600160a01b038316016100c15750682340be2367a1361980919050565b733c44cdddb6a900fa2b585dd299e03d12fa4293bb196001600160a01b038316016100f65750683ba4bfea46508584c0919050565b506000919050565b60006020828403121561011057600080fd5b81356001600160a01b038116811461012757600080fd5b939250505056fea2646970667358221220c8667b83f4ecba9dee3f74b642c83e39f8fac476b62ae1ec58485b9506409a5964736f6c63430008130033",
  "linkReferences": {},
  "deployedLinkReferences": {}
}