{
  "_format": "hh-sol-artifact-1",
  "contractName": "ScrollBadgeLevelsScrolly",
  "sourceName": "src/badge/examples/ScrollBadgeLevelsScrolly.sol",
  "abi": [
    {
      "inputs": [
        {
          "internalType": "address",
          "name": "resolver_",
          "type": "address"
        },
        {
          "internalType": "address",
          "name": "activityPoints_",
          "type": "address"
        },
        {
          "internalType": "string",
          "name": "_defaultBadgeURI",
          "type": "string"
        },
        {
          "internalType": "string",
          "name": "_baseBadgeURI",
          "type": "string"
        }
      ],
      "stateMutability": "nonpayable",
      "type": "constructor"
    },
    {
      "inputs": [
        {
          "internalType": "bytes32",
          "name": "uid",
          "type": "bytes32"
        }
      ],
      "name": "AttestationBadgeMismatch",
      "type": "error"
    },
    {
      "inputs": [],
      "name": "ExpirationDisabled",
      "type": "error"
    },
    {
      "inputs": [],
      "name": "SingletonBadge",
      "type": "error"
    },
    {
      "inputs": [],
      "name": "Unauthorized",
      "type": "error"
    },
    {
      "anonymous": false,
      "inputs": [
        {
          "indexed": true,
          "internalType": "bytes32",
          "name": "uid",
          "type": "bytes32"
        }
      ],
      "name": "IssueBadge",
      "type": "event"
    },
    {
      "anonymous": false,
      "inputs": [
        {
          "indexed": true,
          "internalType": "address",
          "name": "previousOwner",
          "type": "address"
        },
        {
          "indexed": true,
          "internalType": "address",
          "name": "newOwner",
          "type": "address"
        }
      ],
      "name": "OwnershipTransferred",
      "type": "event"
    },
    {
      "anonymous": false,
      "inputs": [
        {
          "indexed": true,
          "internalType": "bytes32",
          "name": "uid",
          "type": "bytes32"
        }
      ],
      "name": "RevokeBadge",
      "type": "event"
    },
    {
      "inputs": [],
      "name": "MINIMUM_POINTS_ELIGIBILITY",
      "outputs": [
        {
          "internalType": "uint256",
          "name": "",
          "type": "uint256"
        }
      ],
      "stateMutability": "view",
      "type": "function"
    },
    {
      "inputs": [],
      "name": "MINIMUM_POINTS_LEVEL_0",
      "outputs": [
        {
          "internalType": "uint256",
          "name": "",
          "type": "uint256"
        }
      ],
      "stateMutability": "view",
      "type": "function"
    },
    {
      "inputs": [],
      "name": "MINIMUM_POINTS_LEVEL_1",
      "outputs": [
        {
          "internalType": "uint256",
          "name": "",
          "type": "uint256"
        }
      ],
      "stateMutability": "view",
      "type": "function"
    },
    {
      "inputs": [],
      "name": "MINIMUM_POINTS_LEVEL_2",
      "outputs": [
        {
          "internalType": "uint256",
          "name": "",
          "type": "uint256"
        }
      ],
      "stateMutability": "view",
      "type": "function"
    },
    {
      "inputs": [],
      "name": "MINIMUM_POINTS_LEVEL_3",
      "outputs": [
        {
          "internalType": "uint256",
          "name": "",
          "type": "uint256"
        }
      ],
      "stateMutability": "view",
      "type": "function"
    },
    {
      "inputs": [],
      "name": "MINIMUM_POINTS_LEVEL_4",
      "outputs": [
        {
          "internalType": "uint256",
          "name": "",
          "type": "uint256"
        }
      ],
      "stateMutability": "view",
      "type": "function"
    },
    {
      "inputs": [
        {
          "internalType": "bytes32",
          "name": "uid",
          "type": "bytes32"
        }
      ],
      "name": "badgeTokenURI",
      "outputs": [
        {
          "internalType": "string",
          "name": "",
          "type": "string"
        }
      ],
      "stateMutability": "view",
      "type": "function"
    },
    {
      "inputs": [],
      "name": "baseBadgeURI",
      "outputs": [
        {
          "internalType": "string",
          "name": "",
          "type": "string"
        }
      ],
      "stateMutability": "view",
      "type": "function"
    },
    {
      "inputs": [],
      "name": "defaultBadgeURI",
      "outputs": [
        {
          "internalType": "string",
          "name": "",
          "type": "string"
        }
      ],
      "stateMutability": "view",
      "type": "function"
    },
    {
      "inputs": [
        {
          "internalType": "uint256",
          "name": "points",
          "type": "uint256"
        }
      ],
      "name": "determineBadgeLevel",
      "outputs": [
        {
          "internalType": "uint8",
          "name": "",
          "type": "uint8"
        }
      ],
      "stateMutability": "pure",
      "type": "function"
    },
    {
      "inputs": [
        {
          "internalType": "bytes32",
          "name": "uid",
          "type": "bytes32"
        }
      ],
      "name": "getAndValidateBadge",
      "outputs": [
        {
          "components": [
            {
              "internalType": "bytes32",
              "name": "uid",
              "type": "bytes32"
            },
            {
              "internalType": "bytes32",
              "name": "schema",
              "type": "bytes32"
            },
            {
              "internalType": "uint64",
              "name": "time",
              "type": "uint64"
            },
            {
              "internalType": "uint64",
              "name": "expirationTime",
              "type": "uint64"
            },
            {
              "internalType": "uint64",
              "name": "revocationTime",
              "type": "uint64"
            },
            {
              "internalType": "bytes32",
              "name": "refUID",
              "type": "bytes32"
            },
            {
              "internalType": "address",
              "name": "recipient",
              "type": "address"
            },
            {
              "internalType": "address",
              "name": "attester",
              "type": "address"
            },
            {
              "internalType": "bool",
              "name": "revocable",
              "type": "bool"
            },
            {
              "internalType": "bytes",
              "name": "data",
              "type": "bytes"
            }
          ],
          "internalType": "struct Attestation",
          "name": "",
          "type": "tuple"
        }
      ],
      "stateMutability": "view",
      "type": "function"
    },
    {
      "inputs": [
        {
          "internalType": "bytes32",
          "name": "uid",
          "type": "bytes32"
        }
      ],
      "name": "getCurrentLevel",
      "outputs": [
        {
          "internalType": "uint8",
          "name": "",
          "type": "uint8"
        }
      ],
      "stateMutability": "view",
      "type": "function"
    },
    {
      "inputs": [
        {
          "internalType": "address",
          "name": "recipient",
          "type": "address"
        }
      ],
      "name": "getLevel",
      "outputs": [
        {
          "internalType": "uint8",
          "name": "",
          "type": "uint8"
        }
      ],
      "stateMutability": "view",
      "type": "function"
    },
    {
      "inputs": [
        {
          "internalType": "uint8",
          "name": "level",
          "type": "uint8"
        }
      ],
      "name": "getLevelDescription",
      "outputs": [
        {
          "internalType": "string",
          "name": "",
          "type": "string"
        }
      ],
      "stateMutability": "pure",
      "type": "function"
    },
    {
      "inputs": [
        {
          "internalType": "address",
          "name": "recipient",
          "type": "address"
        }
      ],
      "name": "getPoints",
      "outputs": [
        {
          "internalType": "uint256",
          "name": "",
          "type": "uint256"
        }
      ],
      "stateMutability": "view",
      "type": "function"
    },
    {
      "inputs": [
        {
          "internalType": "address",
          "name": "user",
          "type": "address"
        }
      ],
      "name": "hasBadge",
      "outputs": [
        {
          "internalType": "bool",
          "name": "",
          "type": "bool"
        }
      ],
      "stateMutability": "view",
      "type": "function"
    },
    {
      "inputs": [
        {
          "internalType": "address",
          "name": "",
          "type": "address"
        }
      ],
      "name": "isAttester",
      "outputs": [
        {
          "internalType": "bool",
          "name": "",
          "type": "bool"
        }
      ],
      "stateMutability": "view",
      "type": "function"
    },
    {
      "inputs": [
        {
          "internalType": "address",
          "name": "recipient",
          "type": "address"
        }
      ],
      "name": "isEligible",
      "outputs": [
        {
          "internalType": "bool",
          "name": "",
          "type": "bool"
        }
      ],
      "stateMutability": "view",
      "type": "function"
    },
    {
      "inputs": [
        {
          "components": [
            {
              "internalType": "bytes32",
              "name": "uid",
              "type": "bytes32"
            },
            {
              "internalType": "bytes32",
              "name": "schema",
              "type": "bytes32"
            },
            {
              "internalType": "uint64",
              "name": "time",
              "type": "uint64"
            },
            {
              "internalType": "uint64",
              "name": "expirationTime",
              "type": "uint64"
            },
            {
              "internalType": "uint64",
              "name": "revocationTime",
              "type": "uint64"
            },
            {
              "internalType": "bytes32",
              "name": "refUID",
              "type": "bytes32"
            },
            {
              "internalType": "address",
              "name": "recipient",
              "type": "address"
            },
            {
              "internalType": "address",
              "name": "attester",
              "type": "address"
            },
            {
              "internalType": "bool",
              "name": "revocable",
              "type": "bool"
            },
            {
              "internalType": "bytes",
              "name": "data",
              "type": "bytes"
            }
          ],
          "internalType": "struct Attestation",
          "name": "attestation",
          "type": "tuple"
        }
      ],
      "name": "issueBadge",
      "outputs": [
        {
          "internalType": "bool",
          "name": "",
          "type": "bool"
        }
      ],
      "stateMutability": "nonpayable",
      "type": "function"
    },
    {
      "inputs": [],
      "name": "owner",
      "outputs": [
        {
          "internalType": "address",
          "name": "",
          "type": "address"
        }
      ],
      "stateMutability": "view",
      "type": "function"
    },
    {
      "inputs": [],
      "name": "renounceOwnership",
      "outputs": [],
      "stateMutability": "nonpayable",
      "type": "function"
    },
    {
      "inputs": [],
      "name": "resolver",
      "outputs": [
        {
          "internalType": "address",
          "name": "",
          "type": "address"
        }
      ],
      "stateMutability": "view",
      "type": "function"
    },
    {
      "inputs": [
        {
          "components": [
            {
              "internalType": "bytes32",
              "name": "uid",
              "type": "bytes32"
            },
            {
              "internalType": "bytes32",
              "name": "schema",
              "type": "bytes32"
            },
            {
              "internalType": "uint64",
              "name": "time",
              "type": "uint64"
            },
            {
              "internalType": "uint64",
              "name": "expirationTime",
              "type": "uint64"
            },
            {
              "internalType": "uint64",
              "name": "revocationTime",
              "type": "uint64"
            },
            {
              "internalType": "bytes32",
              "name": "refUID",
              "type": "bytes32"
            },
            {
              "internalType": "address",
              "name": "recipient",
              "type": "address"
            },
            {
              "internalType": "address",
              "name": "attester",
              "type": "address"
            },
            {
              "internalType": "bool",
              "name": "revocable",
              "type": "bool"
            },
            {
              "internalType": "bytes",
              "name": "data",
              "type": "bytes"
            }
          ],
          "internalType": "struct Attestation",
          "name": "attestation",
          "type": "tuple"
        }
      ],
      "name": "revokeBadge",
      "outputs": [
        {
          "internalType": "bool",
          "name": "",
          "type": "bool"
        }
      ],
      "stateMutability": "nonpayable",
      "type": "function"
    },
    {
      "inputs": [
        {
          "internalType": "address",
          "name": "attester",
          "type": "address"
        },
        {
          "internalType": "bool",
          "name": "enable",
          "type": "bool"
        }
      ],
      "name": "toggleAttester",
      "outputs": [],
      "stateMutability": "nonpayable",
      "type": "function"
    },
    {
      "inputs": [
        {
          "internalType": "address",
          "name": "newOwner",
          "type": "address"
        }
      ],
      "name": "transferOwnership",
      "outputs": [],
      "stateMutability": "nonpayable",
      "type": "function"
    }
  ],
  "bytecode": "0x610160604052670de0b6b3a764000060a05268120d4da7b0bd14000060c052682a1f0a87470e84000060e05268487a9a304539440000610100526884618ecdbabfe800006101205268e3aeb5737240a00000610140523480156200006257600080fd5b5060405162001fe138038062001fe1833981016040819052620000859162000214565b81846200009233620000e2565b6001600160a01b03166080526003620000ac828262000333565b5050600480546001600160a01b0319166001600160a01b0385161790556005620000d7828262000333565b5050505050620003ff565b600080546001600160a01b038381166001600160a01b0319831681178455604051919092169283917f8be0079c531659141344cd1fd0a4f28419497f9722a3daafe3b4186f6b6457e09190a35050565b80516001600160a01b03811681146200014a57600080fd5b919050565b634e487b7160e01b600052604160045260246000fd5b600082601f8301126200017757600080fd5b81516001600160401b03808211156200019457620001946200014f565b604051601f8301601f19908116603f01168101908282118183101715620001bf57620001bf6200014f565b81604052838152602092508683858801011115620001dc57600080fd5b600091505b83821015620002005785820183015181830184015290820190620001e1565b600093810190920192909252949350505050565b600080600080608085870312156200022b57600080fd5b620002368562000132565b9350620002466020860162000132565b60408601519093506001600160401b03808211156200026457600080fd5b620002728883890162000165565b935060608701519150808211156200028957600080fd5b50620002988782880162000165565b91505092959194509250565b600181811c90821680620002b957607f821691505b602082108103620002da57634e487b7160e01b600052602260045260246000fd5b50919050565b601f8211156200032e57600081815260208120601f850160051c81016020861015620003095750805b601f850160051c820191505b818110156200032a5782815560010162000315565b5050505b505050565b81516001600160401b038111156200034f576200034f6200014f565b6200036781620003608454620002a4565b84620002e0565b602080601f8311600181146200039f5760008415620003865750858301515b600019600386901b1c1916600185901b1785556200032a565b600085815260208120601f198616915b82811015620003d057888601518255948401946001909101908401620003af565b5085821015620003ef5787850151600019600388901b60f8161c191681555b5050505050600190811b01905550565b60805160a05160c05160e051610100516101205161014051611b4862000499600039600081816102790152610bc60152600081816102a00152610b970152600081816103c40152610b680152600081816103760152610b390152600081816101c10152610b0a01526000818161039d015261069701526000818161017d015281816107a2015281816108e00152610a370152611b486000f3fe608060405234801561001057600080fd5b50600436106101735760003560e01c80638c6f12f0116100de578063cfe3e6a011610097578063ee204abb11610071578063ee204abb1461040c578063eed05dce1461041f578063f22abab414610432578063f2fde38b1461043a57600080fd5b8063cfe3e6a0146103bf578063d753a63d146103e6578063e7257d22146103f957600080fd5b80638c6f12f0146103155780638da5cb5b14610335578063b1a3a35f14610346578063b6ebe5391461034e578063c47162be14610371578063ceb51c411461039857600080fd5b80636538a7d9116101305780636538a7d9146102745780636636114d1461029b57806366e305fd146102c2578063715018a6146102d5578063817c8966146102dd5780638298b0301461030257600080fd5b806304f3bcec146101785780630cdcc387146101bc5780630ee48948146101f15780632483056314610206578063500eace2146102265780635e50864f14610239575b600080fd5b61019f7f000000000000000000000000000000000000000000000000000000000000000081565b6040516001600160a01b0390911681526020015b60405180910390f35b6101e37f000000000000000000000000000000000000000000000000000000000000000081565b6040519081526020016101b3565b6102046101ff36600461135c565b61044d565b005b610219610214366004611395565b610480565b6040516101b391906113fe565b610219610234366004611411565b610528565b610264610247366004611434565b6001600160a01b0316600090815260016020526040902054151590565b60405190151581526020016101b3565b6101e37f000000000000000000000000000000000000000000000000000000000000000081565b6101e37f000000000000000000000000000000000000000000000000000000000000000081565b6102646102d0366004611434565b61066f565b61020461070b565b6102f06102eb366004611434565b61071f565b60405160ff90911681526020016101b3565b610264610310366004611451565b610795565b610328610323366004611395565b610871565b6040516101b3919061148d565b6000546001600160a01b031661019f565b61021961099c565b61026461035c366004611434565b60026020526000908152604090205460ff1681565b6101e37f000000000000000000000000000000000000000000000000000000000000000081565b6101e37f000000000000000000000000000000000000000000000000000000000000000081565b6101e37f000000000000000000000000000000000000000000000000000000000000000081565b6102646103f4366004611451565b610a2a565b6102f0610407366004611395565b610b06565b6101e361041a366004611434565b610bfb565b6102f061042d366004611395565b610c6f565b610219610c91565b610204610448366004611434565b610c9e565b610455610d17565b6001600160a01b03919091166000908152600260205260409020805460ff1916911515919091179055565b606081610519576003805461049490611564565b80601f01602080910402602001604051908101604052809291908181526020018280546104c090611564565b801561050d5780601f106104e25761010080835404028352916020019161050d565b820191906000526020600020905b8154815290600101906020018083116104f057829003601f168201915b50505050509050919050565b61052282610d71565b92915050565b60608160ff1660000361055d57505060408051808201909152600c81526b5363726f6c6c79204261627960a01b602082015290565b8160ff1660010361059257505060408051808201909152600e81526d5363726f6c6c79204e6f7669636560901b602082015290565b8160ff166002036105c957505060408051808201909152601081526f29b1b937b6363c9022bc383637b932b960811b602082015290565b8160ff166003036105fd57505060408051808201909152600d81526c26b0b9ba32b91026b0b83832b960991b602082015290565b8160ff1660040361063157505060408051808201909152600d81526c436172746f204d61657374726f60981b602082015290565b505060408051808201909152601d81527f4772616e6420436172746f67726170686572206f66205363726f6c6c79000000602082015290565b919050565b6004805460405163ee204abb60e01b81526001600160a01b03848116938201939093526000927f000000000000000000000000000000000000000000000000000000000000000092169063ee204abb90602401602060405180830381865afa1580156106df573d6000803e3d6000fd5b505050506040513d601f19601f82011682018060405250810190610703919061159e565b101592915050565b610713610d17565b61071d6000610e4c565b565b6004805460405163ee204abb60e01b81526001600160a01b038481169382019390935260009261052292169063ee204abb90602401602060405180830381865afa158015610771573d6000803e3d6000fd5b505050506040513d601f19601f82011682018060405250810190610407919061159e565b6000336001600160a01b037f000000000000000000000000000000000000000000000000000000000000000016146107df576040516282b42960e81b815260040160405180910390fd5b6107e882610e9c565b6107f457506000919050565b600180600061080960e0860160c08701611434565b6001600160a01b03166001600160a01b03168152602001908152602001600020600082825461083891906115cd565b90915550506040518235907f504e4727721de18c6bf7f66448a6ff6da00aa4b1f00b6034e71723ae7ce6373a90600090a2506001919050565b604080516101408101825260008082526020820181905281830181905260608083018290526080830182905260a0830182905260c0830182905260e08301829052610100830182905261012083015291516308c6f12f60e41b8152600481018490529091906001600160a01b037f00000000000000000000000000000000000000000000000000000000000000001690638c6f12f090602401600060405180830381865afa158015610927573d6000803e3d6000fd5b505050506040513d6000823e601f3d908101601f1916820160405261094f91908101906116df565b90506000610961826101200151610ea7565b5090506001600160a01b03811630146109955760405163b923d26160e01b8152600481018590526024015b60405180910390fd5b5092915050565b600380546109a990611564565b80601f01602080910402602001604051908101604052809291908181526020018280546109d590611564565b8015610a225780601f106109f757610100808354040283529160200191610a22565b820191906000526020600020905b815481529060010190602001808311610a0557829003601f168201915b505050505081565b6000336001600160a01b037f00000000000000000000000000000000000000000000000000000000000000001614610a74576040516282b42960e81b815260040160405180910390fd5b610a7d82610ec8565b610a8957506000919050565b6001806000610a9e60e0860160c08701611434565b6001600160a01b03166001600160a01b031681526020019081526020016000206000828254610acd91906117d6565b90915550506040518235907fa0785ec0b9bf31a5475d33c716fb9f500f0ea0bb9e4bc10ec39d5db763c1da1590600090a2506001919050565b60007f00000000000000000000000000000000000000000000000000000000000000008211610b3757506000919050565b7f00000000000000000000000000000000000000000000000000000000000000008211610b6657506001919050565b7f00000000000000000000000000000000000000000000000000000000000000008211610b9557506002919050565b7f00000000000000000000000000000000000000000000000000000000000000008211610bc457506003919050565b7f00000000000000000000000000000000000000000000000000000000000000008211610bf357506004919050565b506005919050565b6004805460405163ee204abb60e01b81526001600160a01b03848116938201939093526000929091169063ee204abb90602401602060405180830381865afa158015610c4b573d6000803e3d6000fd5b505050506040513d601f19601f82011682018060405250810190610522919061159e565b600080610c7b83610871565b9050610c8a8160c0015161071f565b9392505050565b600580546109a990611564565b610ca6610d17565b6001600160a01b038116610d0b5760405162461bcd60e51b815260206004820152602660248201527f4f776e61626c653a206e6577206f776e657220697320746865207a65726f206160448201526564647265737360d01b606482015260840161098c565b610d1481610e4c565b50565b6000546001600160a01b0316331461071d5760405162461bcd60e51b815260206004820181905260248201527f4f776e61626c653a2063616c6c6572206973206e6f7420746865206f776e6572604482015260640161098c565b60606000610d7e83610c6f565b90506000610d8e8260ff16610f02565b604051602001610d9e91906117e9565b60405160208183030381529060405290506000610dba83610528565b905060006005610dcc8560ff16610f02565b604051602001610ddd929190611822565b60405160208183030381529060405290506000610e1e84848488604051602001610e0a949392919061191c565b604051602081830303815290604052610f95565b905080604051602001610e3191906119e6565b60405160208183030381529060405295505050505050919050565b600080546001600160a01b038381166001600160a01b0319831681178455604051919092169283917f8be0079c531659141344cd1fd0a4f28419497f9722a3daafe3b4186f6b6457e09190a35050565b6000610522826110e8565b6000606082806020019051810190610ebf9190611a2b565b91509150915091565b6000610edd6102d060e0840160c08501611434565b610ef9576040516282b42960e81b815260040160405180910390fd5b610522826110f3565b60606000610f0f83611162565b600101905060008167ffffffffffffffff811115610f2f57610f2f6115e0565b6040519080825280601f01601f191660200182016040528015610f59576020820181803683370190505b5090508181016020015b600019016f181899199a1a9b1b9c1cb0b131b232b360811b600a86061a8153600a8504945084610f6357509392505050565b60608151600003610fb457505060408051602081019091526000815290565b6000604051806060016040528060408152602001611ad36040913990506000600384516002610fe391906117d6565b610fed9190611a7c565b610ff8906004611a9e565b67ffffffffffffffff811115611010576110106115e0565b6040519080825280601f01601f19166020018201604052801561103a576020820181803683370190505b509050600182016020820185865187015b808210156110a6576003820191508151603f8160121c168501518453600184019350603f81600c1c168501518453600184019350603f8160061c168501518453600184019350603f811685015184535060018301925061104b565b50506003865106600181146110c257600281146110d5576110dd565b603d6001830353603d60028303536110dd565b603d60018303535b509195945050505050565b60006105228261123a565b60006110fe82611245565b61110a57506000919050565b61111b610100830160e08401611434565b6001600160a01b031661113460e0840160c08501611434565b6001600160a01b03161461115a576040516282b42960e81b815260040160405180910390fd5b506001919050565b60008072184f03e93ff9f4daa797ed6e38ed64bf6a1f0160401b83106111a15772184f03e93ff9f4daa797ed6e38ed64bf6a1f0160401b830492506040015b6d04ee2d6d415b85acef810000000083106111cd576d04ee2d6d415b85acef8100000000830492506020015b662386f26fc1000083106111eb57662386f26fc10000830492506010015b6305f5e1008310611203576305f5e100830492506008015b612710831061121757612710830492506004015b60648310611229576064830492506002015b600a83106105225760010192915050565b60006105228261128d565b600061125082611298565b61125c57506000919050565b61126f61024760e0840160c08501611434565b1561115a57604051630c59311960e11b815260040160405180910390fd5b6000610522826112e9565b60006112a3826112e9565b6112af57506000919050565b60006112c16080840160608501611ab5565b67ffffffffffffffff161461115a57604051637bfd865360e11b815260040160405180910390fd5b600060026000611300610100850160e08601611434565b6001600160a01b0316815260208101919091526040016000205460ff1661115a576040516282b42960e81b815260040160405180910390fd5b6001600160a01b0381168114610d1457600080fd5b8015158114610d1457600080fd5b6000806040838503121561136f57600080fd5b823561137a81611339565b9150602083013561138a8161134e565b809150509250929050565b6000602082840312156113a757600080fd5b5035919050565b60005b838110156113c95781810151838201526020016113b1565b50506000910152565b600081518084526113ea8160208601602086016113ae565b601f01601f19169290920160200192915050565b602081526000610c8a60208301846113d2565b60006020828403121561142357600080fd5b813560ff81168114610c8a57600080fd5b60006020828403121561144657600080fd5b8135610c8a81611339565b60006020828403121561146357600080fd5b813567ffffffffffffffff81111561147a57600080fd5b82016101408185031215610c8a57600080fd5b602081528151602082015260208201516040820152600060408301516114bf606084018267ffffffffffffffff169052565b50606083015167ffffffffffffffff8116608084015250608083015167ffffffffffffffff811660a08401525060a083015160c083015260c083015161151060e08401826001600160a01b03169052565b5060e083015161010061152d818501836001600160a01b03169052565b84015190506101206115428482018315159052565b84015161014084810152905061155c6101608401826113d2565b949350505050565b600181811c9082168061157857607f821691505b60208210810361159857634e487b7160e01b600052602260045260246000fd5b50919050565b6000602082840312156115b057600080fd5b5051919050565b634e487b7160e01b600052601160045260246000fd5b81810381811115610522576105226115b7565b634e487b7160e01b600052604160045260246000fd5b604051610140810167ffffffffffffffff8111828210171561161a5761161a6115e0565b60405290565b67ffffffffffffffff81168114610d1457600080fd5b805161066a81611620565b805161066a81611339565b805161066a8161134e565b600082601f83011261166857600080fd5b815167ffffffffffffffff80821115611683576116836115e0565b604051601f8301601f19908116603f011681019082821181831017156116ab576116ab6115e0565b816040528381528660208588010111156116c457600080fd5b6116d58460208301602089016113ae565b9695505050505050565b6000602082840312156116f157600080fd5b815167ffffffffffffffff8082111561170957600080fd5b90830190610140828603121561171e57600080fd5b6117266115f6565b825181526020830151602082015261174060408401611636565b604082015261175160608401611636565b606082015261176260808401611636565b608082015260a083015160a082015261177d60c08401611641565b60c082015261178e60e08401611641565b60e08201526101006117a181850161164c565b9082015261012083810151838111156117b957600080fd5b6117c588828701611657565b918301919091525095945050505050565b80820180821115610522576105226115b7565b60408152600f60408201526e5363726f6c6c79204c6576656c202360881b6060820152608060208201526000610c8a60808301846113d2565b60808152600080845481600182811c91508083168061184257607f831692505b6020808410820361186157634e487b7160e01b86526022600452602486fd5b6080880184905260a088018280156118805760018114611896576118c1565b60ff198716825285151560051b820197506118c1565b60008c81526020902060005b878110156118bb578154848201529086019084016118a2565b83019850505b5050878603908801525050600183525050602f60f81b602082015260408101905082810360408401526118f481856113d2565b838103606085015260048152632e706e6760e01b602082015290506040810195945050505050565b683d913730b6b2911d1160b91b81528451600090611941816009850160208a016113ae565b71111610113232b9b1b934b83a34b7b7111d1160711b600991840191820152855161197381601b840160208a016113ae565b6b16101134b6b0b3b2911d101160a11b601b929091019182015284516119a08160278401602089016113ae565b6b1610113632bb32b6111d101160a11b6027929091019182015260f89390931b6001600160f81b0319166033840152505061227d60f01b60348201526036019392505050565b7f646174613a6170706c69636174696f6e2f6a736f6e3b6261736536342c000000815260008251611a1e81601d8501602087016113ae565b91909101601d0192915050565b60008060408385031215611a3e57600080fd5b8251611a4981611339565b602084015190925067ffffffffffffffff811115611a6657600080fd5b611a7285828601611657565b9150509250929050565b600082611a9957634e487b7160e01b600052601260045260246000fd5b500490565b8082028115828204841417610522576105226115b7565b600060208284031215611ac757600080fd5b8135610c8a8161162056fe4142434445464748494a4b4c4d4e4f505152535455565758595a6162636465666768696a6b6c6d6e6f707172737475767778797a303132333435363738392b2fa2646970667358221220423c5bad70722303210d610ccaa123c16e2279337753f370234000174828b55e64736f6c63430008130033",
  "linkReferences": {},
  "deployedLinkReferences": {}
}